:100000003FC059C058C057C056C055C054C053C057
:1000100052C029C350C04FC04EC04DC04CC04BC091
:100020004AC049C048C00000000037003400310019
:1000300000000000380035003200000000003600EB
:100040003300300004040404040404040202020225
:10005000020203030303030301020408102040808B
:100060000102040810200102040810200000000012
:100070000000000000030405000000000000000074
:1000800011241FBECFE5D4E0DEBFCDBF10E0A0E657
:10009000B0E0E4ECF8E002C005900D92A036B107A4
:1000A000D9F710E0A0E6B0E001C01D92A936B10773
:1000B000E1F740D205C4A4CFDF93CF93CDB7DEB72D
:1000C00029970FB6F894DEBF0FBECDBF898789850B
:1000D00081708887898582708F83898584708E83FB
:1000E000898588708D83898580718C8389858072EC
:1000F0008B83898580748A8389858078898385E06C
:1001000060E06ED386E060E06BD387E060E068D3A8
:1001100088E060E065D389E060E062D38AE060E077
:100120005FD38BE060E05CD38CE060E059D38885DE
:10013000882321F085E061E053D303C085E060E0CF
:100140004FD38F81882321F086E061E049D303C03B
:1001500086E060E045D38E81882321F087E061E06E
:100160003FD303C087E060E03BD38D81882321F03B
:1001700088E061E035D303C088E060E031D38C8152
:10018000882321F089E061E02BD303C089E060E09F
:1001900027D38B81882321F08AE061E021D303C03B
:1001A0008AE060E01DD38A81882321F08BE061E042
:1001B00017D303C08BE060E013D38981882321F03B
:1001C0008CE061E00DD303C08CE060E009D361E016
:1001D00070E080E090E09BD285E060E001D386E0B3
:1001E00060E0FED287E060E0FBD288E060E0F8D219
:1001F00089E060E0F5D28AE060E0F2D28BE060E076
:10020000EFD28CE060E0ECD261E070E080E090E062
:100210007ED229960FB6F894DEBF0FBECDBFCF9128
:10022000DF910895DF93CF93CDB7DEB781E044DF50
:1002300062E370E080E090E06AD282E03DDF62E35A
:1002400070E080E090E063D284E036DF62E370E04B
:1002500080E090E05CD288E02FDF62E370E080E035
:1002600090E055D280E128DF62E370E080E090E02A
:100270004ED280E221DF62E370E080E090E047D27E
:1002800080E41ADF62E370E080E090E040D280E832
:1002900013DF62E370E080E090E039D280E40CDFAD
:1002A00062E370E080E090E032D280E205DF62E35A
:1002B00070E080E090E02BD280E1FEDE62E370E04F
:1002C00080E090E024D288E0F7DE62E370E080E036
:1002D00090E01DD284E0F0DE62E370E080E090E028
:1002E00016D282E0E9DE62E370E080E090E00FD2B7
:1002F00081E0E2DE62E370E080E090E008D282E03C
:10030000DBDE62E370E080E090E001D284E0D4DEE6
:1003100062E370E080E090E0FAD188E0CDDE62E355
:1003200070E080E090E0F3D180E1C6DE62E370E04F
:1003300080E090E0ECD180E2BFDE62E370E080E03C
:1003400090E0E5D180E4B8DE62E370E080E090E028
:10035000DED180E8B1DE62E370E080E090E0D7D1EA
:1003600080E4AADE62E370E080E090E0D0D180E239
:10037000A3DE62E370E080E090E0C9D180E19CDE22
:1003800062E370E080E090E0C2D188E095DE62E355
:1003900070E080E090E0BBD184E08EDE62E370E04C
:1003A00080E090E0B4D182E087DE62E370E080E03C
:1003B00090E0ADD181E080DE62E370E080E090E02B
:1003C000A6D1CF91DF910895DF93CF930F92CDB750
:1003D000DEB789838981813459F48FE36DDE84E44B
:1003E0006BDE84E869DE84E467DE8FE365DE9EC051
:1003F0008981823449F48FEF5FDE81E95DDE81E936
:100400005BDE8EE659DE92C08981833449F48EE743
:1004100053DE81E851DE81E84FDE82E44DDE86C0A6
:100420008981843449F48FEF47DE81E845DE82E438
:1004300043DE8CE341DE7AC08981853449F48FEF55
:100440003BDE81E939DE81E937DE81E835DE6EC0E9
:1004500089818C3449F48FEF2FDE81E02DDE81E03D
:100460002BDE81E029DE62C089818D3459F48FEF63
:1004700023DE80E421DE80E21FDE80E41DDE8FEFDC
:100480001BDE54C089818E3449F48FEF15DE80E481
:1004900013DE80E211DE8FEF0FDE48C089818F34DA
:1004A00059F48CE309DE82E407DE81E805DE82E4AC
:1004B00003DE8CE301DE3AC08981803549F48FEF99
:1004C000FBDD88E8F9DD80E9F7DD80E6F5DD2EC0AB
:1004D0008981853559F48CEFEFDD82E0EDDD81E037
:1004E000EBDD82E0E9DD8CEFE7DD20C08981803241
:1004F00059F480E0E1DD80E0DFDD88E1DDDD80E0F2
:10050000DBDD80E0D9DD12C081E8D6DD82E8D4DD14
:1005100084E4D2DD88E2D0DD80E1CEDD88E2CCDD8E
:1005200084E4CADD82E8C8DD81E8C6DD0F90CF91A2
:10053000DF910895DF93CF9300D000D00F92CDB715
:10054000DEB71A8219820DD185E061E029D186E0FB
:1005500061E026D187E061E023D188E061E020D12D
:1005600089E061E01DD18AE061E01AD18BE061E0B1
:1005700017D18CE061E014D18DE061E011D180E011
:1005800060E00ED181E060E00BD182E060E008D154
:1005900064E670E080E090E0BAD044DE80E057D1BD
:1005A0001D82009711F481E08D838D81882309F1EC
:1005B00082E40ADF85E508DF8FE406DF8EE404DFEE
:1005C00080E202DF83E400DF8FE4FEDE8DE4FCDE08
:1005D00080E5FADE8CE4F8DE85E4F6DE8EE4F4DE17
:1005E0008EE4F2DE8FE4F0DE60E971E080E090E01E
:1005F0008ED081E02CD11C82009711F481E08C8395
:100600008C81882369F082E4DFDE85E5DDDE8FE41E
:10061000DBDE8EE4D9DE60E971E080E090E077D047
:1006200082E015D11B82009711F481E08B838B81CE
:10063000882309F4B3CF83E4C7DE8FE4C5DE8DE4FD
:10064000C3DE80E5C1DE8CE4BFDE85E4BDDE8EE482
:10065000BBDE8EE4B9DE8FE4B7DE60E971E080E0F6
:1006600090E055D09BCF1F920F920FB60F9211249E
:100670002F933F934F935F936F937F938F939F93AA
:10068000AF93BF9320916400309165004091660064
:100690005091670070916800DA01C9010296A11DAE
:1006A000B11D672F6A5F6D3730F06D57DA01C901F0
:1006B0000396A11DB11D6093680080936400909320
:1006C0006500A0936600B0936700809160009091F0
:1006D0006100A0916200B09163000196A11DB11D5F
:1006E0008093600090936100A0936200B0936300D8
:1006F000BF91AF919F918F917F916F915F914F913A
:100700003F912F910F900FBE0F901F901895EF9271
:10071000FF920F931F937B018C018FB7F894409148
:1007200064005091650060916600709167008FBF12
:100730002FB7F8948091640090916500A0916600B5
:10074000B09167002FBF841B950BA60BB70BE81663
:10075000F9060A071B0760F71F910F91FF90EF90B2
:100760000895789483B7826083BF83B7816083BF25
:1007700089B7816089BF8EB582608EBD8EB581607C
:100780008EBD8FB581608FBD85B5846085BD85B513
:10079000806485BD329A319A309A379A1AB8089592
:1007A000282F30E0C901885A9F4FFC0194912C5B9F
:1007B0003F4FF9018491882391F0E82FF0E0EE0F8C
:1007C000FF1FEA5DFF4FA591B491662329F48C9138
:1007D000909589238C9308958C91892B8C930895FF
:1007E000482F50E0CA0184599F4FFC012491CA014F
:1007F000885A9F4FFC0194914C5B5F4FFA013491F2
:10080000332321F1222381F0233019F48FB58F7720
:1008100004C0243021F48FB58F7D8FBD05C02530F5
:1008200019F485B58F7D85BDE32FF0E0EE0FFF1F36
:10083000E05DFF4FA591B491662329F48C919095CA
:1008400089238C9308958C91892B8C930895682F1C
:1008500070E0CB0184599F4FFC012491CB01885A51
:100860009F4FFC0144916C5B7F4FFB019491992356
:1008700019F420E030E022C0222381F0233019F463
:100880008FB58F7704C0243021F48FB58F7D8FBD55
:1008900005C0253019F485B58F7D85BD892F90E081
:1008A000880F991F865C9F4FFC01A591B4918C9194
:1008B00020E030E0842311F021E030E0C901089508
:0408C000F894FFCFDA
:00000001FF
