:100000000C9435000C945D000C945D000C945D0024
:100010000C945D000C945D000C945D000C945D00EC
:100020000C945D000C945D000C945D000C945D00DC
:100030000C945D000C945D000C945D000C945D00CC
:100040000C943C010C945D000C94E8010C945D0050
:100050000C945D000C945D000C945D000C945D00AC
:100060000C945D000C945D00650311241FBECFEF5E
:10007000D8E0DEBFCDBF11E0A0E0B1E0E0EEF8E0F7
:1000800002C005900D92A03BB107D9F712E0A0EB9A
:10009000B1E001C01D92A235B107E1F710E0CAE658
:1000A000D0E004C02297FE010E946A04C836D1073E
:1000B000C9F70E94C3000C946E040C940000DF93F7
:1000C000CF930F92CDB7DEB78FE392E020E031E01F
:1000D000B9010E94F5038FE392E021E131E0B9011B
:1000E0000E94F5038FE392E020E031E0B9010E9425
:1000F000F5038FE392E022E231E0B9010E94F503BB
:100100008FE392E024E431E0B9010E94F5038FE32C
:1001100092E02FE431E0B9010E94F5038FE392E011
:100120000E94160389838981882311F081E08983E5
:1001300089818823E9F08FE392E00E942A0390935B
:10014000B1018093B0018091B0019091B1018133F0
:10015000910539F48FE392E02AE531E0B9010E947C
:10016000F5038091B0019091B1018233910539F08E
:1001700064EF71E080E090E00E948401CFCF0F90A7
:10018000CF91DF910895DF93CF930F92CDB7DEB774
:100190000E94AE0160E177E280E090E00E9484017D
:1001A0008FE392E040E855E260E070E00E942502B3
:1001B0008FE392E024E631E0B9010E94F5038FE37A
:1001C00092E020E731E0B9010E94F5038FE392E06D
:1001D00024E631E0B9010E94F5038FE392E02CE7B9
:1001E00031E0B9010E94F5038FE392E024E431E0AD
:1001F000B9010E94F5038FE392E02FE431E0B901E9
:100200000E94F5038FE392E00E941603898389819F
:10021000882311F081E089838981882331F18FE37C
:1002200092E00E942A039093B1018093B0018091E3
:10023000B0019091B1018133910549F48FE392E0CF
:1002400022E831E0B9010E94F5030E945F0080912D
:10025000B0019091B1018233910539F48FE392E0BE
:100260002EE931E0B9010E94F50364EF71E080E00E
:1002700090E00E948401C6CF1F920F920FB60F929A
:1002800011242F933F938F939F93AF93BF938091AC
:10029000B6019091B701A091B801B091B901309128
:1002A000BA010196A11DB11D232F2D5F2D3720F01E
:1002B0002D570196A11DB11D2093BA018093B6015F
:1002C0009093B701A093B801B093B9018091B201A6
:1002D0009091B301A091B401B091B5010196A11D17
:1002E000B11D8093B2019093B301A093B401B09378
:1002F000B501BF91AF919F918F913F912F910F9039
:100300000FBE0F901F901895EF92FF920F931F93BF
:100310007B018C018FB7F8944091B6015091B701E1
:100320006091B8017091B9018FBF2FB7F894809197
:10033000B6019091B701A091B801B091B9012FBF5A
:10034000841B950BA60BB70BE816F9060A071B07CB
:1003500060F71F910F91FF90EF900895789484B506
:10036000826084BD84B5816084BD85B5826085BDB1
:1003700085B5816085BDEEE6F0E080818160808397
:10038000E1E8F0E080818260808380818160808309
:10039000E0E8F0E0808181608083E1EBF0E0808143
:1003A00084608083E0EBF0E0808181608083EAE715
:1003B000F0E080818460808380818260808380819E
:1003C000816080838081806880831092C10008955D
:1003D0001F920F920FB60F9211242F933F934F93BA
:1003E0005F936F937F938F939F93AF93BF93EF939D
:1003F000FF934091C600E0913B02F0913C02CF0197
:10040000019660E870E00E941F049C0180913D020B
:1004100090913E022817390739F0E554FE4F40838A
:1004200030933C0220933B02FF91EF91BF91AF913B
:100430009F918F917F916F915F914F913F912F91FC
:100440000F900FBE0F901F9018955F926F927F9242
:100450008F929F92AF92BF92CF92DF92EF92FF92D4
:100460000F931F93CF93DF93EC015A016B0181E44B
:10047000A81682E4B8068FE0C80680E0D80608F027
:1004800077C060E874E88EE190E0A60195010E94D3
:10049000320439014A010894610871088108910801
:1004A0009694879477946794A40193012F5F3F4FAC
:1004B0004F4F5F4F74E0220F331F441F551F7A9533
:1004C000D1F760E074E284EF90E00E943204CA0148
:1004D000B9012FEF30E040E050E00E940004A60197
:1004E00095010E9432048FEF90E0821B930B181647
:1004F00019061CF4522E509402C0522E539460E000
:1005000079E08DE390E0A60195010E94320421502C
:1005100030404040504056954795379527952F5F7E
:100520003F4F4F4F5F4F93E0220F331F441F551F24
:100530009A95D1F760E074E284EF90E00E94320473
:10054000CA01B9012FEF30E040E050E00E94000402
:10055000A60195010E9432048FEF90E0821B930B5D
:100560001816190614F4209501C02F5F2515F0F414
:10057000E885F98581E090E00A8802C0880F991F1C
:100580000A94E2F7808360E079E08DE390E0A601D1
:1005900095010E9432042150304040405040569511
:1005A000479537952795822F232F05C0E885F98534
:1005B0001082862D272DEC81FD812083EE81FF8125
:1005C0008083EA85FB85208141E050E0CA010E84EA
:1005D00002C0880F991F0A94E2F7282B2083EA852E
:1005E000FB852081CA010F8402C0880F991F0A94DD
:1005F000E2F7282B2083EA85FB858081088802C0EA
:10060000440F551F0A94E2F7842B8083DF91CF912A
:100610001F910F91FF90EF90DF90CF90BF90AF9020
:100620009F908F907F906F905F900895DC0112965D
:10063000ED91FC911397E058FF4F81919191805873
:100640009F4F20813181821B930B60E870E00E94F4
:100650001F040895CF93DF93DC011296ED91FC9176
:100660001397EF01CE57DF4F48815981E058FF4F74
:1006700080819181E058F0408417950719F42FEF9D
:100680003FEF0CC0E40FF51F2081CA01019660E81E
:1006900070E00E941F049983888330E0C901DF91D4
:1006A000CF910895FC01A085B18521898C9190E0BE
:1006B000022E02C0959587950A94E2F780FFF6CF47
:1006C0000484F585E02D6083089589EA91E0909394
:1006D000400280933F028BEB91E090934202809323
:1006E000410285EC90E0909344028093430284ECB5
:1006F00090E0909346028093450280EC90E09093C6
:1007000048028093470281EC90E090934A028093E4
:10071000490286EC90E090934C0280934B0284E077
:1007200080934D0283E080934E0287E080934F02D6
:1007300085E08093500281E08093510208950F93E9
:100740001F93CF93DF938C01EB0109C02196D80151
:10075000ED91FC910190F081E02DC801099568812F
:100760006623A1F7DF91CF911F910F910895EF922A
:10077000FF920F931F93CF93DF938C017B01EA01CC
:100780000CC0D7016D917D01D801ED91FC910190D4
:10079000F081E02DC80109952197209791F7DF910D
:1007A000CF911F910F91FF90EF900895DC01ED9193
:1007B000FC910280F381E02D099508950F931F931A
:1007C0008C01DC01ED91FC910190F081E02D6DE058
:1007D0000995D801ED91FC910190F081E02DC801BF
:1007E0006AE009951F910F9108950F931F938C0153
:1007F0000E94D603C8010E94DE031F910F91089545
:10080000629FD001739FF001829FE00DF11D649FF4
:10081000E00DF11D929FF00D839FF00D749FF00D80
:10082000659FF00D9927729FB00DE11DF91F639F21
:10083000B00DE11DF91FBD01CF011124089597FBF3
:10084000092E07260AD077FD04D02ED006D000202E
:100850001AF4709561957F4F0895F6F790958195FC
:100860009F4F0895A1E21A2EAA1BBB1BFD010DC0CC
:10087000AA1FBB1FEE1FFF1FA217B307E407F50750
:1008800020F0A21BB30BE40BF50B661F771F881F2C
:10089000991F1A9469F760957095809590959B01C2
:1008A000AC01BD01CF010895AA1BBB1B51E107C0DC
:1008B000AA1FBB1FA617B70710F0A61BB70B881FF0
:1008C000991F5A95A9F780959095BC01CD0108957F
:1008D000EE0FFF1F0590F491E02D0994F894FFCFDF
:1008E0002A2A2A2A2A2A2A2A2A2A2A2A2A2A2A2A68
:1008F000002A205052494D4120504147494E412045
:100900002A002D2D2D2D2D2D2D2D2D2D2D2D2D2D47
:100910002D2D2D2D2D2D2D2D2D2D2D2D2D2D2D2D07
:100920002D2D2D0031202D20496E697A696100320C
:10093000202D2053616C7574610064696E756F764B
:100940006F2031002A2A2A2A2A2A2A2A2A2A2A0019
:100950002A2057454C434F4D45202A0053544152BD
:10096000540042656E652061646573736F2073691E
:100970002066612073756C20736572696F0046494B
:100980004E49544F000000000052039F03B703007C
:00000001FF
