:100000000C94D0000C94F8000C94F8000C94F800B8
:100010000C94F8000C94F8000C94F8000C94F80080
:100020000C94F8000C94F8000C94F8000C94F80070
:100030000C94F8000C94F8000C94F8000C94F80060
:100040000C9480020C94F8000C9452130C94F80059
:100050000C94F8000C94F8000C94F8000C94F80040
:100060000C94F8000C94F8004E6F20696E697420AF
:100070006572726F7220666F756E642E0043616EDA
:100080002774206F70656E20726F6F7420646972C0
:100090006563746F72792E00436172642069732006
:1000A000666F726D61747465642046415431322EFE
:1000B00000496E76616C696420666F726D61742CA4
:1000C000207265666F726D61742053442E004E6F0E
:1000D0002063617264206F72205350492070726FE8
:1000E000626C656D3F0043616E27742061636365D8
:1000F000737320534420636172642E20446F206E1A
:100100006F74207265666F726D61742E0065727215
:100110006F723A20006572726F723A200053442069
:100120006572726F72436F64653A20000D0A007C3D
:100130003C3E5E2B3D3F2F5B5D3B2C2A225C00004A
:10014000000000240027002A0000000000250028ED
:10015000002B0000000000230026002900040404F6
:100160000404040404020202020202030303030360
:10017000030102040810204080010204081020013D
:100180000204081020000000070002010000030420
:1001900006000000000000000000D701F113CA01B2
:1001A00011241FBECFEFD4E0DEBFCDBF11E0A0E031
:1001B000B1E0E2E4FEE202C005900D92A036B10784
:1001C000D9F715E0A0E6B1E001C01D92A433B10754
:1001D000E1F711E0CEE9D1E004C02297FE010E94D0
:1001E000FA16CA39D107C9F70E943B020C941417BA
:1001F0000C940000DF93CF9300D0CDB7DEB79A8385
:100200008983E981FA811182E981FA8114820F9050
:100210000F90CF91DF910895DF93CF9300D0CDB7AA
:10022000DEB79A838983E981FA8182E090E0A0E0D9
:10023000B0E080839183A283B383E981FA81178A36
:100240000F900F90CF91DF910895DF93CF9300D05F
:10025000CDB7DEB79A838983E981FA818DE391E096
:10026000918380830F900F90CF91DF910895DF935A
:10027000CF9300D0CDB7DEB79A83898389819A81E5
:100280000E942501E981FA8187E491E091838083CE
:10029000E981FA811282E981FA8115820F900F902B
:1002A000CF91DF910895DF93CF9300D0CDB7DEB724
:1002B0009A83898389819A810E94FA0089819A812F
:1002C00005960E940C0189819A8183960E943701CC
:1002D0000F900F90CF91DF910895DF93CF9300D0CF
:1002E000CDB7DEB79A838983E981FA8187E491E00B
:1002F0009183808389819A810E9466070F900F9075
:10030000CF91DF910895DF93CF9300D0CDB7DEB7C3
:100310009A83898389819A8183960E946D010F90C7
:100320000F90CF91DF910895DF93CF9300D000D04D
:10033000CDB7DEB79A8389837C836B8389819A8169
:100340008130910571F48B819C812FEF8F3F920753
:1003500041F480E691E00E94530180EA91E00E941E
:10036000370189819A81009771F48B819C812FEFED
:100370008F3F920741F480EA91E00E946D0180E690
:1003800091E00E9483010F900F900F900F90CF91FA
:10039000DF910895DF93CF93CDB7DEB780E090E093
:1003A0006FEF7FEF0E949401CF91DF910895DF936B
:1003B000CF93CDB7DEB781E090E06FEF7FEF0E9483
:1003C0009401CF91DF910895DF93CF9300D0CDB703
:1003D000DEB71A82198280E691E061E04AE00E946D
:1003E000DB05982F81E08927882329F080E691E0BA
:1003F0000E94A2053BC080EA91E020E031E0B90113
:1004000046E150E00E94830E982F81E089278823DF
:1004100011F160E273E080E090E00E94E20287E088
:1004200060E00E949C0368EC70E080E090E00E9435
:10043000E20287E061E00E949C0360E273E080E0FA
:1004400090E00E94E20280E691E02BE031E0B90109
:100450000E94BC050BC080EA91E02DE231E0B901B9
:100460000E943B0580EA91E00E9466070F900F9082
:10047000CF91DF910895DF93CF93CDB7DEB70E9480
:100480003B0387E061E00E94760387E060E00E9422
:100490009C0368EC70E080E090E00E94E20287E05C
:1004A00061E00E949C0360E273E080E090E00E94C3
:1004B000E20287E060E00E949C0368EC70E080E06C
:1004C00090E00E94E20287E061E00E949C0360E20B
:1004D00073E080E090E00E94E2020E94E40164EF99
:1004E00071E080E090E00E94E20287E060E00E941C
:1004F0009C0364EF71E080E090E00E94E202C5CFCF
:100500001F920F920FB60F9211242F933F934F9388
:100510005F936F937F938F939F93AF93BF9320913C
:100520008D0230918E0240918F0250919002709115
:100530009102DA01C9010296A11DB11D672F6A5F00
:100540006D3730F06D57DA01C9010396A11DB11D59
:100550006093910280938D0290938E02A0938F02FC
:10056000B09390028091890290918A02A0918B02AF
:10057000B0918C020196A11DB11D809389029093C8
:100580008A02A0938B02B0938C02BF91AF919F918E
:100590008F917F916F915F914F913F912F910F902C
:1005A0000FBE0F901F9018958FB7F89420918D0271
:1005B00030918E0240918F02509190028FBFB9010D
:1005C000CA0108959B01AC017FB7F894809189021C
:1005D00090918A02A0918B02B0918C0266B5A89B83
:1005E00005C06F3F19F00196A11DB11D7FBFBA2F45
:1005F000A92F982F8827860F911DA11DB11D63E09B
:10060000880F991FAA1FBB1F6A95D1F7BC012DC087
:10061000FFB7F8948091890290918A02A0918B0291
:10062000B0918C02E6B5A89B05C0EF3F19F001968A
:10063000A11DB11DFFBFBA2FA92F982F88278E0F9C
:10064000911DA11DB11DE3E0880F991FAA1FBB1FBB
:10065000EA95D1F7861B970B885E9340C8F221502C
:1006600030404040504068517C4F211531054105D4
:10067000510571F60895789484B5826084BD84B57F
:10068000816084BD85B5826085BD85B5816085BD8D
:10069000EEE6F0E0808181608083E1E8F0E01082A6
:1006A000808182608083808181608083E0E8F0E0E7
:1006B000808181608083E1EBF0E0808184608083D1
:1006C000E0EBF0E0808181608083EAE7F0E0808108
:1006D0008460808380818260808380818160808368
:1006E0008081806880831092C1000895482F50E077
:1006F000CA018F589E4FFC012491435A5E4FFA0164
:1007000084918823C1F0E82FF0E0EE0FFF1FE15C39
:10071000FE4FA591B491662341F49FB7F8948C9154
:10072000209582238C939FBF08959FB7F8948C9156
:10073000822B8C939FBF0895482F50E0CA018B579E
:100740009E4FFC012491CA018F589E4FFC013491A9
:10075000435A5E4FFA019491992309F444C022232D
:1007600051F1233071F0243028F42130A1F02230EF
:1007700011F514C02630B1F02730C1F02430D9F47F
:1007800004C0809180008F7703C0809180008F7DAE
:100790008093800010C084B58F7702C084B58F7DB0
:1007A00084BD09C08091B0008F7703C08091B000F4
:1007B0008F7D8093B000E92FF0E0EE0FFF1FE75B25
:1007C000FE4FA591B491662341F49FB7F8948C91A4
:1007D000309583238C939FBF08959FB7F8948C9195
:1007E000832B8C939FBF08950F931F93CF93DF9319
:1007F0008C01EB0109C02196D801ED91FC9101908B
:10080000F081E02DC801099568816623A1F7DF9189
:10081000CF911F910F910895EF92FF920F931F9325
:10082000CF93DF938C017B01EA010CC0D7016D915E
:100830007D01D801ED91FC910190F081E02DC8017E
:1008400009952197209791F7DF91CF911F910F91F3
:10085000FF90EF900895DC01ED91FC910280F3810F
:10086000E02D099508952F923F924F925F926F92DB
:100870007F928F929F92AF92BF92CF92DF92EF9230
:10088000FF920F931F93DF93CF93CDB7DEB7A0975F
:100890000FB6F894DEBF0FBECDBF1C016A017B010D
:1008A000411551056105710549F440E350E060E0F0
:1008B00070E020E030E00E94EE0456C088249924C5
:1008C0005401422E55246624772401E010E00C0FD9
:1008D0001D1F080D191DC701B601A30192010E9439
:1008E000D616F80160830894811C911CA11CB11CD0
:1008F000C701B601A30192010E94D616C901DA010F
:100900006C017D01C114D104E104F104F1F681E030
:10091000E82EF12CEC0EFD1EE80CF91C3E010894AB
:10092000611C711CD501C4010197A109B1096C01B9
:10093000C818D90816C0F601EE0DFF1D40814A30D7
:1009400010F4405D01C0495C552747FD5095652F67
:10095000752FC10120E030E00E94EE040894E10808
:10096000F1086E147F0439F7A0960FB6F894DEBF35
:100970000FBECDBFCF91DF911F910F91FF90EF90F0
:10098000DF90CF90BF90AF909F908F907F906F90AF
:100990005F904F903F902F900895DC012115310515
:1009A00041F4ED91FC910190F081E02D642F0995C7
:1009B00008950E9433040895EF92FF920F931F93BE
:1009C0009A01E62EFF2400E010E0B801A7010E9482
:1009D000CD041F910F91FF90EF900895EF92FF9239
:1009E0000F931F93CF93DF93EC017A018B012115B5
:1009F000310541F4E881F9810190F081E02D642F07
:100A000009951BC02A303105B1F477FF10C04DE2C3
:100A100050E060E070E020E030E00E94EE041095CD
:100A20000095F094E094E11CF11C011D111DCE0114
:100A3000B801A7012AE00E943304DF91CF911F91F2
:100A40000F91FF90EF9008950F931F938C014DE04D
:100A500050E060E070E020E030E00E94EE04C80169
:100A60004AE050E060E070E020E030E00E94EE04F8
:100A70001F910F9108950F931F938C010E942B04D7
:100A8000C8010E9424051F910F910895CF93DF9311
:100A9000EC0107C081E295E040E050E00E94DC04F8
:100AA0002196FE0164916623A9F7DF91CF91089505
:100AB0000E94460581E295E00E9424050895CF93A7
:100AC000DF93EC018981882379F08DE191E00E9428
:100AD000460581E295E0698140E150E00E94DC0436
:100AE00081E295E00E942405DF91CF910895CF9394
:100AF000DF93EC018981882369F086EE90E00E9403
:100B00005805CE010E945F0589818130C1F48EECC9
:100B100090E013C08C8D882319F481EB90E00DC018
:100B20008C3019F488E990E008C088A5882319F46E
:100B30008DE790E002C088E690E00E945805DF91C2
:100B4000CF9108950E947705FFCFEF92FF920F9308
:100B50001F937C018B0185E191E00E94460581E2B3
:100B600095E0B8010E943B05C7010E945F051F91F7
:100B70000F91FF90EF9008950E94A505FFCFEF928F
:100B8000FF920F931F937C018C010D5D1F4F1093FB
:100B9000930200939202C8010E94660785E090E0EC
:100BA000E80EF91EC801B7010E9498091F910F9124
:100BB000FF90EF9008950F931F93CF93DF93EC0175
:100BC0000E94E8158823C1F08E010B5F1F4FC801FA
:100BD000BE0141E00E94330F882339F4C801BE01F1
:100BE00040E00E94330F882339F0CE010E94BF05F8
:100BF000882319F081E001C080E0DF91CF911F913F
:100C00000F9108950F931F93CF93DF93DC01EB01B6
:100C10008A0180E090E020E2FE01E80FF91F2083C6
:100C200001968B309105C1F757E040E01EC05A3065
:100C300081F15AE048E018C0321759F1FC010196E1
:100C400034913323C9F7541720F1213210F12F3793
:100C500000F5822F81568A3110F4622F6052FE0116
:100C6000E40FF11D60834F5F11962C91222341F018
:100C70002F3231F0622F2E32D1F28FE291E0DECFAF
:100C8000F801B183A08390E08881803219F091E06F
:100C900001C090E0892FDF91CF911F910F910895AE
:100CA0006F927F928F929F92AF92BF92CF92DF927C
:100CB000EF92FF920F931F93CF93DF93EC017A0192
:100CC0008B012D81222309F480C08B899C89AD89F9
:100CD000BE8984179507A607B70708F476C085C0B4
:100CE000E114F1040105110551F41E821F821886DA
:100CF00019861A861B861C861D8681E067C02A8598
:100D00003B854C855D85EB8DFC8D858590E0099656
:100D1000215030404040504039014A01082E04C063
:100D200096948794779467940A94D2F72F5F3F4FF5
:100D30004F4F5F4F0894E108F1080109110957016D
:100D4000680104C0D694C794B794A7948A95D2F743
:100D50000894E11CF11C011D111DA614B704C80460
:100D6000D90428F0211531054105510549F48F8931
:100D7000988DA98DBA8D8E839F83A887B98716C059
:100D8000A618B708C808D90811C04E815F816885C8
:100D900079858B8D9C8D94010E9403110894A10884
:100DA000B108C108D108882331F40FC086E0882E2D
:100DB000912C8C0E9D1EA114B104C104D10429F7FD
:100DC000EA86FB860C871D8798CF80E0DF91CF9164
:100DD0001F910F91FF90EF90DF90CF90BF90AF9059
:100DE0009F908F907F906F900895223009F078CF78
:100DF000E7CFCF93DF93EC01462F6E857F858889FF
:100E000099890E94F00E882319F420E030E00AC08E
:100E10008A89282F30E095E0220F331F9A95E1F759
:100E20002A563D4FC901DF91CF9108950F931F932B
:100E3000CF93DF938C01FC0185818823F1F18381BD
:100E400087FF38C0C80161E00E94F906EC010097F5
:100E5000A1F18881853E89F1F8018581823040F4D5
:100E600083899489A589B6898C8F9D8FAE8FBF8F1A
:100E7000F8018789908D9B8F8A8F8789908DA18DAE
:100E8000B28DCD01AA27BB279D8B8C8BE09194025C
:100E9000F0919502309751F0BE016A5E7F4FCE010E
:100EA00048960995888D998D9B8B8A8BF801838153
:100EB0008F7783830E94910E04C081E0F8018283C2
:100EC00080E0DF91CF911F910F910895CF93DF9331
:100ED000EC010E941607882311F01D8281E0DF914A
:100EE000CF9108956F927F928F929F92AF92BF920F
:100EF000CF92DF92EF92FF920F931F93DF93CF93E6
:100F000000D000D0CDB7DEB77C015A016B01DC0107
:100F100015968C911597813009F091C013968C919C
:100F200081FF8DC0A0C00097A105B10511F481E03B
:100F300087C0F7016284738484849584C701B601F5
:100F4000A5010E945006882309F479C0D7015B9659
:100F50008D919C915C97A114B104C104D10489F4D2
:100F600057964D915D916D917C915A970E947911A0
:100F7000882309F464C0F701178A108E118E128E2F
:100F800044C0D70116964D915D916D917C91199752
:100F90009E012F5F3F4F0E940311882309F44FC029
:100FA000D7015B96ED91FC915C9749815A816B81E9
:100FB0007C818789803149F4483FBFEF5B07B0E00F
:100FC0006B07B0E07B0748F020C0483F8FEF580721
:100FD0008FEF68078FE07807C0F4CF010E94791186
:100FE000882369F1D70116964D915D916D917C91A1
:100FF00019975B968D919C915C970FEF1FEF2FEFE8
:101000003FE00E947C108823D1F0F701A38AB48AC4
:10101000C58AD68A838180688383C7010E941607A8
:10102000882369F0B601A5016A147B048C049D0431
:1010300010F4B401A301C7010E94500601C080E072
:101040000F900F900F900F90CF91DF911F910F9104
:10105000FF90EF90DF90CF90BF90AF909F908F90D8
:101060007F906F900895F70183899489A589B68947
:1010700084179507A607B70708F055CFE0CF2F9242
:101080003F924F925F926F927F928F929F92AF9218
:10109000BF92CF92DF92EF92FF920F931F93CF9365
:1010A000DF93EC012A018D81882309F4B6C08B817E
:1010B00080FFB3C0C8C025014E185F083B0176E031
:1010C000272E312C2C0E3D1E4201A1C02A853B85C6
:1010D0004C855D856FEFA62E61E0B62EA222B3226D
:1010E0008D8179018A0199E016950795F794E79427
:1010F0009A95D1F7EB8DFC8D823049F4428D538D5A
:10110000648D758D4E0D5F1D601F711F3FC0D480B3
:10111000DA94DE20A114B104D9F4DD20C9F421153C
:1011200031054105510549F48F89988DA98DBA8DF6
:101130008E839F83A887B9870BC04E815F816885A6
:101140007985CF0191010E940311882309F465C0BC
:10115000EB8DFC8D4E815F816885798542505040D2
:1011600060407040058404C0440F551F661F771F00
:101170000A94D2F786859785A089B189480F591FAF
:101180006A1F7B1F4D0D511D611D711D80E092E096
:101190008A199B0984018815990508F48C0182E05D
:1011A0000030180709F067C0809135019091360131
:1011B000A0913701B0913801481759076A077B079A
:1011C00009F459C0809196049091970493010E946C
:1011D000AD15882349F421C095012A563D4FC3011E
:1011E000B901A8010E940B17600E711E980140E022
:1011F00050E08A859B85AC85BD85820F931FA41F17
:10120000B51F8A879B87AC87BD87801A910A811496
:10121000910409F05BCFA20102C04FEF5FEFCA015A
:10122000DF91CF911F910F91FF90EF90DF90CF90C2
:10123000BF90AF909F908F907F906F905F904F90F6
:101240003F902F900895AB88BC88CD88DE88EA84D3
:10125000FB840C851D859A0140E050E0D601C50154
:101260008E199F09A00BB10B281739074A075B0796
:1012700008F021CF23CFCB01BA0140E00E94F00E4D
:10128000882309F0A9CFC9CFDF93CF930F92CDB7B1
:10129000DEB7BE016F5F7F4F41E050E00E943F0824
:1012A000019719F02FEF3FEF03C08981282F30E01D
:1012B000C9010F90CF91DF910895EF92FF920F93A4
:1012C0001F93CF93DF93EC018D81823038F1EA8454
:1012D000FB840C851D85CE010E94440997FD1EC02C
:1012E0008A859B85AC85BD854F96A11DB11D8A87DA
:1012F0009B87AC87BD87F5E016950795F794E79433
:10130000FA95D1F72E2D30E02F703070E5E0220FE6
:10131000331FEA95E1F72A563D4F02C020E030E046
:10132000C901DF91CF911F910F91FF90EF90089528
:101330000F931F93CF93DF93EC018B018D81882353
:1013400009F040C0FB018789803109F041C082E08B
:101350008D831F8A188E198E1A8E808D918DA0E034
:10136000B0E045E0880F991FAA1FBB1F4A95D1F72F
:101370008B8B9C8BAD8BBE8B13C083E08D83F80170
:10138000428D538D648D758D4F8B588F698F7A8FF9
:101390009E012D5E3F4FC8010E94D711882391F016
:1013A0001C8F0B8F81E08B831E821F82188619860B
:1013B0001A861B861C861D861E861F86188A198A19
:1013C0001A8A01C080E0DF91CF911F910F9108959B
:1013D0008032C1F7D2CF0F931F93CF93DF93EC01ED
:1013E0008A01262F30E0F90175E0EE0FFF1F7A9594
:1013F000E1F7EA56FD4F8385817131F0CA018274AD
:101400009070892B09F061C080913501909136016F
:10141000A0913701B09138018E879F87A88BB98B37
:101420006A8BF90165E0EE0FFF1F6A95E1F7EA5656
:10143000FD4F84899589A0E0B0E0DC0199278827D9
:101440008F8B988FA98FBA8F228D338DA90160E081
:1014500070E0482B592B6A2B7B2B4F8B588F698F51
:101460007A8F838590E088719070009751F4848D15
:10147000958DA68DB78D8B8B9C8BAD8BBE8B81E0B4
:101480000CC0409711F59E012D5E3F4F8B8D9C8DBA
:101490000E94D7118823C9F084E08D83802F8F703C
:1014A0008B831E821F82188619861A861B861C86CD
:1014B0001D8606FD02C081E00AC0CE0140E050E07A
:1014C00060E070E00E94720702C01D8280E0DF9140
:1014D000CF911F910F910895CF93DF93EC019C0161
:1014E0002A5F3F4F8B8D9C8D41E050E060E070E0C3
:1014F0000E9443128823A1F08F89988DA98DBA8DFF
:101500000097A105B10559F48E819F81A885B98501
:101510008F8B988FA98FBA8F8B8180688B8381E0A6
:10152000DF91CF9108952F923F924F925F927F92D9
:101530008F929F92AF92BF92CF92DF92EF92FF92E3
:101540000F931F93DF93CF9300D000D000D0CDB77F
:10155000DEB76C01162F072F5E834D83DC011596D5
:101560008C911597813009F06FC113968C9181FF92
:101570006BC189C1F6014389548965897689828561
:101580009385A485B58584179507A607B70731F01D
:10159000C6010E945006882309F456C1812F902F5E
:1015A0009C0119014D805E8013C1D6015B96ED91BF
:1015B000FC915C97DA01C90149E0B695A79597952A
:1015C00087954A95D1F774807A9478228FEF882E88
:1015D00081E0982E82229322772009F053C0811453
:1015E000910409F04FC0D60116964D915D916D9111
:1015F0007C911997411551056105710581F4579644
:101600008D919D910D90BC91A02D0097A105B105E4
:1016100061F1F60186839783A087B18733C0CF013C
:101620009E012F5F3F4F0E940311882309F40CC1D4
:1016300029813A814B815C81D6015B96ED91FC91C9
:101640005C978789803149F4283FBFEF3B07B0E0C2
:101650004B07B0E05B0778F008C0283FEFEF3E078C
:10166000EFEF4E07EFE05E0730F0C6010E946C0A14
:10167000882341F4E9C0D60116962D933D934D93EE
:101680005C93199780E092E08819990952018415BA
:10169000950508F45C01D6015B96ED91FC915C9791
:1016A0001696ED90FD900D911C9119978EEF9FEF7E
:1016B000AFEFBFEFE80EF91E0A1F1B1F058404C021
:1016C000EE0CFF1C001F111F0A94D2F78685978528
:1016D000A089B189E80EF91E0A1F1B1FE70CF11C37
:1016E000011D111D90E0A91692E0B90639F580910F
:1016F000350190913601A0913701B09138018E15D6
:101700009F05A007B10771F4109298048FEF9FEF27
:10171000AFEFBFEF8093350190933601A09337016F
:10172000B09338018091960490919704B801A70175
:1017300091010E94F6148823B9F586C081149104A2
:1017400019F5D6011A962D913D914D915C911D97F9
:1017500053968D919D910D90BC91A02D281739071E
:101760004A075B0788F00E94910E882309F46CC039
:1017700081E080939804E0923501F0923601009365
:1017800037011093380108C0C801B70141E00E9439
:10179000F00E882309F458C094012A563D4FC90120
:1017A000B101A5010E940B17950140E050E0F60140
:1017B00082859385A485B585820F931FA41FB51FCD
:1017C00082879387A487B5872A0C3B1C4A185B083D
:1017D000D6011A962D913D914D915C911D97411422
:1017E000510409F0E2CE53968D919D910D90BC91DC
:1017F000A02D82179307A407B50748F4F601238BA1
:10180000348B458B568B83818068838311C0809194
:10181000940290919502892B59F08D819E81892B9C
:1018200039F0D60113968C911397806813968C9398
:10183000F601838183FF05C0C6010E941607882335
:1018400019F04D815E8106C081E0D60112968C931D
:101850004FEF5FEFCA0126960FB6F894DEBF0FBEBA
:10186000CDBFCF91DF911F910F91FF90EF90DF904F
:10187000CF90BF90AF909F908F907F905F904F9050
:101880003F902F90089582FD75CE88CEDB010D909C
:101890000020E9F71197A61BB70BAD010E94930A30
:1018A0000895DF93CF930F92CDB7DEB76983BE0162
:1018B0006F5F7F4F41E050E00E94930A0F90CF91FD
:1018C000DF910895DF92EF92FF920F931F93CF93D2
:1018D000DF93EC018B899C89AD89BE89805E9F4F27
:1018E000AF41B04008F055C0CE010E946C0A882379
:1018F00009F44FC0EB8DFC8DEE80FF8008851985C3
:101900008EEF9FEFAFEFBFEFE80EF91E0A1F1B1F10
:10191000058404C0EE0CFF1C001F111F0A94D2F7AF
:1019200086859785A089B189E80EF91E0A1F1B1FBD
:10193000D4800894E108F108010911090CC0B8012C
:10194000A7014D0D511D611D711DCF010E94CC0ECF
:101950008823F9F0DA94EB8DFC8DDD2081F720E00F
:1019600032E040E050E0058404C0220F331F441FE2
:10197000551F0A94D2F78B899C89AD89BE89820F45
:10198000931FA41FB51F8B8B9C8BAD8BBE8B81E0EF
:1019900001C080E0DF91CF911F910F91FF90EF90F8
:1019A000DF9008957F928F929F92AF92BF92CF92D5
:1019B000DF92EF92FF920F931F93CF93DF936C010F
:1019C000EB01942E852EA22E732E8B8D9C8DD6012D
:1019D0005C969C938E935B97CB0140E050E060E077
:1019E00070E00E945006BB2438C0CE010E945D0901
:1019F000FC01009709F494C055E016950795F794FB
:101A0000E7945A95D1F71E2D1F708081882311F01D
:101A1000853EC9F4BB2099F42091350130913601FF
:101A20004091370150913801D6011E962D933D9378
:101A30004D935C93519752961C93BB24B394808131
:101A4000882359F418C0892D982DBF014BE050E030
:101A50000E94FE16009709F472C0EA84FB840C858C
:101A60001D858B899C89AD89BE89E816F9060A0710
:101A70001B0708F4BACFA4FE53C0A1FE51C0BB207F
:101A800051F0F6011289C60161E00E94F906EC01ED
:101A9000009769F445C08D81823009F441C0CE01C0
:101AA0000E94620C8823E1F110E0C6E9D2E080E2F6
:101AB000DE011D928A95E9F7DE01292D382DC90135
:101AC000FC018BE001900D928150E1F7E0919402CE
:101AD000F0919502309739F0BE01625F7F4FCE01E1
:101AE0004096099508C081E298E2998B888B80E046
:101AF00098E09F878E87888999899B8B8A8B998F9D
:101B0000888F8E859F859F8B8E8B0E94910E882358
:101B100039F0C601612F4A2D572D0E94EB0901C0F3
:101B200080E0DF91CF911F910F91FF90EF90DF90B8
:101B3000CF90BF90AF909F908F907F900895A5FE1B
:101B4000E8CFEECF2F923F924F925F926F927F92AB
:101B50008F929F92AF92BF92CF92DF92EF92FF92BD
:101B60000F931F93DF93CF93CDB7DEB7CB54D04005
:101B70000FB6F894DEBF0FBECDBF3C016B01DE0196
:101B8000AA5BBF4F11965C934E932A963FAF2EAF40
:101B90002A9787E491E09D878C871E86198A9AA7E9
:101BA00089A71BA61EA66115710509F482C0F30161
:101BB0008581882309F07DC0FA0180818F32F1F0A0
:101BC0008601ECE0EE2EF12CEC0EFD1E76E4A72E45
:101BD000B12CAC0EBD1E4E010894811C911C2C969C
:101BE000FFAEEEAE2C9769E2262E312C2C0E3D1E58
:101BF000270124C01196B183A08301C0FD01A081FB
:101C0000B1818C918F32B1F3D60115968C911597D5
:101C100082508230A8F28E01075D1F4F5B966D9156
:101C20007C915C97C8010E949809882351F641C0B5
:101C3000342D252D8701832F922F7C01F501808182
:101C40009181B401A5010E940206882329F431C0C4
:101C50003196D501ED93FC93D501ED91FC918081F6
:101C60008F32B1F38823D1F0C701B801A40121E07C
:101C700030E00E94D20C8823E1F00C151D0519F00C
:101C8000C8010E9466072C96EEADFFAD2C97EE16AC
:101C9000FF0671F6C101322D292FCCCFC301B80147
:101CA000A4012A962EAD3FAD2A970E94D20CF82EA1
:101CB00001C0FF2407E411E01AA709A7CE01899605
:101CC0000E9466071D870C87CE010C960E9466074E
:101CD0008F2DC55BDF4F0FB6F894DEBF0FBECDBFB3
:101CE000CF91DF911F910F91FF90EF90DF90CF90F8
:101CF000BF90AF909F908F907F906F905F904F902C
:101D00003F902F900895FB019A016091920270918B
:101D10009302AF010E94A20D089581E090E00E941D
:101D2000141780919804882399F1409135015091BE
:101D3000360160913701709138018091960490913D
:101D4000970426E932E00E94F614882319F14091A5
:101D5000990450919A0460919B0470919C044115E0
:101D600051056105710591F0809196049091970459
:101D700026E932E00E94F614882361F0109299045B
:101D800010929A0410929B0410929C041092980452
:101D900081E0089580E00895EF92FF920F931F93E2
:101DA0007A018B010E94910E8823A9F080E092E0D5
:101DB000E6E9F2E0DF019C011D9221503040E1F79D
:101DC000E0923501F092360100933701109338010B
:101DD00081E0809398041F910F91FF90EF900895F8
:101DE000DF92EF92FF920F931F937B018C01D42E11
:101DF0008091350190913601A0913701B091380161
:101E00008E159F05A007B107C1F00E94910E88238F
:101E100019F18091960490919704B801A70126E9E1
:101E200032E00E94AD158823B9F0E0923501F092BE
:101E30003601009337011093380140E02D2D30E03A
:101E40008091980490E0282B392B232B09F041E056
:101E50004093980481E001C080E01F910F91FF90B2
:101E6000EF90DF9008958F929F92AF92BF92CF92A2
:101E7000DF92EF92FF920F931F93CF93DF936C014A
:101E8000142F7093970460939604FC01178A4423DF
:101E900021F488249924540140C0453008F01EC123
:101EA00060E070E080E090E040E00E94F00E882367
:101EB00009F414C1C12FD0E02197FE0174E0EE0FA8
:101EC000FF1F7A95E1F7EA56FD4FE254FE4F8081FD
:101ED000EE5BF14090E08F779070892B09F0FEC0A7
:101EE000E653FE4F80819181A281B38184369105B2
:101EF000A105B10508F4F2C064E0CC0FDD1F6A95BE
:101F0000E1F7C45ADB4F88809980AA80BB80811496
:101F10009104A104B10409F4E1C0C501B40140E099
:101F20000E94F00E882309F4D9C08091A1029091FB
:101F3000A2028050924009F0D1C02091A602222333
:101F400009F4CCC08091A4029091A502892B09F4D8
:101F5000C5C08091A302882309F4C0C0F601228B7A
:101F60008091A3028483158661E070E007C04F5F13
:101F7000F60145874150483008F0B0C0F60145856C
:101F8000848190E09B01042E02C0220F331F0A942B
:101F9000E2F78217930759F72091AC023091AD0216
:101FA0002115310519F040E050E008C02091BA0237
:101FB0003091BB024091BC025091BD02F6012583D5
:101FC000368347835087E090A402F090A50200E09A
:101FD00010E0E80CF91C0A1D1B1DE38AF48A058B2E
:101FE000168B8091A7029091A802918F808F6091AB
:101FF000A60270E080E090E00E94B7166E0D7F1D93
:10200000801F911FF601628F738F848F958F2091AF
:10201000A7023091A80255E0220F331F5A95E1F72D
:1020200021503E4F232F3327269540E050E0260FC6
:10203000371F481F591F26873787408B518B809148
:10204000A9029091AA02009719F0A0E0B0E008C0A0
:102050008091B6029091B702A091B802B091B902F6
:1020600085017401E21AF30A040B150BA80197010C
:10207000280F391F4A1F5B1FF601058404C05695BF
:102080004795379527950A94D2F72187328743875A
:102090005487253FFFE03F07F0E04F07F0E05F0780
:1020A00020F48CE0F601878B19C0255F3F4F40403C
:1020B000504018F480E1F6010EC08091C202909168
:1020C000C302A091C402B091C502F601828F938F22
:1020D000A48FB58F80E2878B81E001C080E0DF9123
:1020E000CF911F910F91FF90EF90DF90CF90BF9015
:1020F000AF909F908F9008956F927F928F929F9252
:10210000AF92BF92CF92DF92EF92FF920F931F9305
:10211000CF93DF93EC015A016B0138014901423042
:1021200051056105710508F45EC089859A85AB8506
:10213000BC850196A11DB11D84179507A607B70799
:1021400008F451C08F89803129F4E52EF62E072F2F
:1021500011270CC0803209F046C07A018B0187E05C
:1021600016950795F794E7948A95D1F78B899C8902
:10217000AD89BE89E80EF91E0A1F1B1FC801B701F1
:1021800041E00E94F00E882371F18F89803149F47B
:10219000F501F070EE0FFF1FEA56FD4F718260826D
:1021A0000DC0F501EF77F070EE0FFF1FEE0FFF1F70
:1021B000EA56FD4F60827182828293828A898230E0
:1021C00080F08D819E81AF81B885E80EF91E0A1FCF
:1021D0001B1FE0929904F0929A0400939B041093C1
:1021E0009C0481E001C080E0DF91CF911F910F91AD
:1021F000FF90EF90DF90CF90BF90AF909F908F9027
:102200007F906F900895CF92DF92EF92FF920F939D
:102210001F93CF93DF93EC017A018B0169018985CC
:102220009A85AB85BC850196A11DB11D84179507C4
:10223000A607B70708F453C08F89803129F45527C2
:10224000412F302F2F2D0CC0803209F048C09A0149
:10225000AB0167E056954795379527956A95D1F775
:102260008B899C89AD89BE89280F391F4A1F5B1F46
:102270008091350190913601A0913701B0913801DC
:10228000281739074A075B0739F0CA01B90140E04E
:102290000E94F00E882319F18F89803159F4F701DB
:1022A000F070EE0FFF1FEA56FD4F80819181A0E094
:1022B000B0E00EC0F701EF77F070EE0FFF1FEE0FEA
:1022C000FF1FEA56FD4F80819181A281B381BF70CB
:1022D000F60180839183A283B38381E001C080E013
:1022E000DF91CF911F910F91FF90EF90DF90CF90F2
:1022F0000895AF92BF92CF92DF92EF92FF920F9329
:102300001F93DF93CF9300D000D0CDB7DEB76C0121
:102310007A018B0182E090E0A0E0B0E0F6018083DA
:102320009183A283B3835E010894A11CB11CC601F2
:10233000B801A70195010E940311882341F1C6014C
:10234000B801A70100E010E020E030E00E947C101E
:102350008823E9F0E980FA800B811C81F6018789E6
:10236000803151F4F8EFEF16FFEFFF06F0E00F07B2
:10237000F0E01F07E0F209C088EFE8168FEFF806DB
:102380008FEF08078FE0180790F281E001C080E02E
:102390000F900F900F900F90CF91DF911F910F91A1
:1023A000FF90EF90DF90CF90BF90AF9008954F9245
:1023B0005F926F927F928F929F92AF92BF92CF92D5
:1023C000DF92EF92FF920F931F93DF93CF9300D092
:1023D00000D0CDB7DEB76C0149835A836B837C8311
:1023E0003901EE24FF2487012E010894411C511C61
:1023F000812CE2E09E2EA12CB12C49815A816B8167
:102400007C81C60192010E940311882339F1D50114
:10241000C401F601058404C0880F991FAA1FBB1FC1
:102420000A94D2F7E80EF91E0A1F1B1F29813A8170
:102430004B815C818789803131F4285F3F4F404078
:102440005040D8F205C0285F3F4F4F4F5F40A8F281
:10245000F301E082F1820283138381E00F900F90F9
:102460000F900F90CF91DF911F910F91FF90EF9000
:10247000DF90CF90BF90AF909F908F907F906F90A4
:102480005F904F9008952F923F924F925F926F927C
:102490007F928F929F92AF92BF92CF92DF92EF92F4
:1024A000FF920F931F93DF93CF93CDB7DEB72F9794
:1024B0000FB6F894DEBF0FBECDBF1C014A875B8705
:1024C0006C877D873F872E87D9010D911D912D91B6
:1024D0003C91011511052105310549F048015901CB
:1024E0000894811C911CA11CB11C198610C0FC0110
:1024F00080809180A280B38019868A859B85AC8577
:10250000BD850197A105B10511F491E09987D1012D
:1025100019968D919D910D90BC91A02D0196A11DB4
:10252000B11D8D839E83AF83B887750164014424F8
:10253000552432018E010F5F1F4FF1018185928575
:10254000A385B485481659066A067B0608F090C034
:102550008D819E81AF81B8858C159D05AE05BF0527
:1025600050F4A2E08A2E912CA12CB12CF2E0CF2EB7
:10257000D12CE12CF12CC101B701A60198010E94D8
:102580000311882309F474C089819A81AB81BC81CD
:10259000A70196012F5F3F4F4F4F5F4F0097A10557
:1025A000B10519F049015A010DC0281939094A0924
:1025B0005B098A859B85AC85BD85281739074A0745
:1025C0005B0759F00894411C511C611C711C089454
:1025D000C11CD11CE11CF11CB0CFC101A601B70187
:1025E0000FEF1FEF2FEF3FE00E947C10882399F43C
:1025F0003FC026013701089441085108610871085D
:10260000C101B301A201970186010E947C108823B9
:1026100079F1730162018C149D04AE04BF0448F388
:10262000AE85BF854D915D916D917C9141155105B0
:102630006105710539F0C101950184010E947C108A
:102640008823B1F0EE85FF8580829182A282B382D9
:10265000F985FF2359F00894811C911CA11CB11C21
:10266000D1018D929D92AD92BC92139781E001C0F1
:1026700080E02F960FB6F894DEBF0FBECDBFCF918E
:10268000DF911F910F91FF90EF90DF90CF90BF905F
:10269000AF909F908F907F906F905F904F903F9002
:1026A0002F9008951F920F920FB60F9211242F931F
:1026B0003F934F938F939F93EF93FF934091C60067
:1026C000E0911D05F0911E0531969F012F77307026
:1026D000319780911F05909120052817390739F00F
:1026E000E356FB4F408330931E0520931D05FF9159
:1026F000EF919F918F914F913F912F910F900FBE2E
:102700000F901F901895DC011296ED91FC91139794
:10271000E058FF4F2191319180819181281B390B25
:102720002F773070C9010895DC011296ED91FC916C
:102730001397EE57FF4F2081318192918291E0589B
:10274000F0408217930719F42FEF3FEF05C0E20F17
:10275000F31F8081282F30E0C9010895DC01129613
:10276000ED91FC911397DF01AE57BF4F2D913C9136
:102770001197E058FF4F80819181E058F040821717
:10278000930719F42FEF3FEF0BC0E20FF31F808187
:102790002F5F3F4F2F7730702D933C93282F30E0E1
:1027A000C9010895DC011296ED91FC911397EE5743
:1027B000FF4F80819181929382930895FC01A085BF
:1027C000B18521898C9190E0022E02C09595879564
:1027D0000A94E2F780FFF6CF0484F585E02D60834C
:1027E000089581E591E090932205809321058DE97C
:1027F00094E0909324058093230585EC90E09093DA
:1028000026058093250584EC90E09093280580931D
:10281000270580EC90E090932A058093290581ECB0
:1028200090E090932C0580932B0586EC90E090939C
:102830002E0580932D0584E080932F0583E08093FF
:10284000300587E08093310585E08093320581E093
:10285000809333050895FF920F931F93CF93DF93D7
:102860008B010E94D402EB01FF24FA9409C00E945C
:10287000D4026C1B7D0B6017710710F080E008C05C
:10288000FEBC0DB407FEFDCF8EB58F3F81F781E012
:10289000DF91CF911F910F91FF900895FC018081EE
:1028A00060E00E949C030895DF92EF92FF920F93E5
:1028B0001F93CF93DF93EC01D62E79018A014A81D1
:1028C000242F30E0C9019595879580658CBD40FF28
:1028D00002C080E004C080E0463009F081E08DBD98
:1028E000CE010E944E14CE016CE271E00E942B14C6
:1028F0008D2D80648EBD0DB407FEFDCF28E130E044
:10290000D801C701022E04C0B695A7959795879563
:102910000A94D2F78EBD0DB407FEFDCF285030408B
:102920008FEF283F380761F7DD2011F485E906C0F5
:1029300088E0D81611F487E801C08FEF8EBD0DB482
:1029400007FEFDCF90E02FEF2EBD0DB407FEFDCFAB
:102950008EB587FF02C09150B9F78B83DF91CF917D
:102960001F910F91FF90EF90DF900895FC018081FF
:1029700061E00E949C030895DC016EBDFA0120E035
:1029800030E00DB407FEFDCF80818EBD0DB407FE93
:10299000FDCF81818EBD2E5F3F4F329682E0203089
:1029A000380779F70DB407FEFDCF8FEF8EBD0DB45C
:1029B00007FEFDCF8FEF8EBD0DB407FEFDCF8FEF6D
:1029C0008EBD0DB407FEFDCF8EB513968C93139775
:1029D0008F71853011F481E0089581E111968C9317
:1029E0001197CD010E94B61480E00895CF92DF9236
:1029F000EF92FF920F931F93CF93DF93EC017A0135
:102A00008B0169018C81833039F059E0EE0CFF1C99
:102A1000001F111F5A95D1F7CE0168E1A801970157
:102A20000E945414882311F084E023C0CE016EEF7D
:102A3000A6010E94BC148823E9F0CE0168E572E08B
:102A40000E942B14882311F485E113C0CE016DE0A0
:102A500020E030E040E050E00E945414882341F42C
:102A60008FEF8EBD0DB407FEFDCF8EB5882379F0B4
:102A700084E18983CE010E94B61480E0DF91CF917A
:102A80001F910F91FF90EF90DF90CF900895CE01AE
:102A90000E94B61481E0F2CFFF920F931F93CF9361
:102AA000DF93EC010E94D4028B01FF24FA9409C049
:102AB0000E94D402601B710B6D52714010F08FE0C8
:102AC0000DC0FEBC0DB407FEFDCF8EB58B838F3FCE
:102AD00079F38E3F11F481E006C08DE08983CE0149
:102AE0000E94B61480E0DF91CF911F910F91FF906B
:102AF0000895CF93DF93EC01DA011197452BD9F0BC
:102B00008FEF8EBD20E030E09FEF0BC00DB407FECD
:102B1000FDCF8EB5FB01E20FF31F80839EBD2F5FBB
:102B20003F4F2A173B0790F30DB407FEFDCF8EB53C
:102B3000A60FB71F8C938FEF8EBD0DB407FEFDCF90
:102B40008EB58FEF8EBD0DB407FEFDCF8EB5CE01D5
:102B50000E94B614DF91CF910895CF92DF92EF9249
:102B6000FF920F931F93CF93DF93EC017A018B01B8
:102B700069018C81833039F0F9E0EE0CFF1C001FF5
:102B8000111FFA95D1F7CE0161E1A80197010E94CA
:102B90005414882319F083E089830DC0CE010E946C
:102BA0004C15882341F0CE01B60140E052E00E946E
:102BB000791581E004C0CE010E94B61480E0DF9157
:102BC000CF911F910F91FF90EF90DF90CF900895DC
:102BD000BF92CF92DF92EF92FF920F931F93CF930A
:102BE000DF93EC01B62E1C82198248830E94D40226
:102BF0006B01888161E00E947603CE010E94B614C9
:102C00008CE060E00E9476038BE061E00E94760336
:102C10008DE061E00E9476038AE061E00E94760325
:102C200086E08A8383E58CBD1DBC80E09FEF9EBD5E
:102C30000DB407FEFDCF8F5F8A30C9F709C00E942F
:102C4000D4026C197D09615D774010F081E05EC0AF
:102C5000CE0160E020E030E040E050E00E945414FB
:102C6000182F8B83813059F7CE0168E02AEA31E0D2
:102C700040E050E00E94541482FF02C01C8311C047
:102C800080E02FEF2EBD0DB407FEFDCF9EB58F5F08
:102C90008430C1F79B839A3A11F082E037C082E01A
:102CA0008C838C81823021F0EE24FF2487010FC0B9
:102CB000E12CF12C012DA0E41A2F09C00E94D402AE
:102CC0006C197D09615D774010F088E01FC0CE016E
:102CD00067E320E030E040E050E00E945414CE0171
:102CE00069E2A80197010E9454148B83882331F76D
:102CF0008C81823029F5CE016AE320E030E040E0AB
:102D000050E00E945414882331F086E08983CE017C
:102D10000E94B61421C08FEF8EBD0DB407FEFDCF0B
:102D20008EB5807C803C11F483E08C8380E09FEF43
:102D30009EBD0DB407FEFDCF2EB58F5F8330C1F76A
:102D4000CE010E94B61486E08B1518F486E18983C3
:102D500003C0BA8281E001C080E0DF91CF911F9172
:102D60000F91FF90EF90DF90CF90BF900895629FFA
:102D7000D001739FF001829FE00DF11D649FE00D73
:102D8000F11D929FF00D839FF00D749FF00D659FD4
:102D9000F00D9927729FB00DE11DF91F639FB00DD3
:102DA000E11DF91FBD01CF0111240895A1E21A2EE2
:102DB000AA1BBB1BFD010DC0AA1FBB1FEE1FFF1FDF
:102DC000A217B307E407F50720F0A21BB30BE40B2F
:102DD000F50B661F771F881F991F1A9469F7609576
:102DE0007095809590959B01AC01BD01CF01089530
:102DF000EE0FFF1F0590F491E02D0994FB01DC011B
:102E000004C08D910190801921F441505040C8F7C1
:102E1000881B990B0895FB01DC0102C001900D9203
:102E200041505040D8F7089511E0CEE9D1E004C0F8
:102E3000FE010E94FA162296C03AD107C9F7F8940B
:022E4000FFCFC2
:102E4200746573742D312E747874006F70656E69B9
:102E52006E6720746573742E74787420666F7220A6
:102E62007772697465206661696C656400206D54CF
:102E720065736C6100FFFFFFFF000000008D0EF420
:102E8200030C0400000000510C460C0C040000006E
:102E920000DE13F4030C048313AE139413D2130055
:00000001FF
