:100000000C9463000C948B000C948B000C948B006C
:100010000C948B000C948B000C948B000C948B0034
:100020000C948B000C948B000C948B000C948B0024
:100030000C948B000C948B000C948B000C948B0014
:100040000C9404010C948B000C9494010C948B0080
:100050000C948B000C948B000C948B000C948B00F4
:100060000C948B000C948B000000000024002700EF
:100070002A0000000000250028002B0000000000DE
:1000800023002600290004040404040404040202DA
:100090000202020203030303030301020408102007
:1000A0004080010204081020010204081020000012
:1000B0000007000201000003040600000000000029
:1000C0000000BE00D50211241FBECFEFD8E0DEBF76
:1000D000CDBF11E0A0E0B1E0E8E2FCE002C0059095
:1000E0000D92A232B107D9F711E0A2E2B1E001C04E
:1000F0001D92A63DB107E1F710E0C6ECD0E004C0C8
:100100002297FE010E940E06C23CD107C9F70E9449
:10011000F9000C9412060C940000EF920F93DF93F9
:10012000CF9300D000D0CDB7DEB79A8389837C838C
:100130006B8389819A8181309105B9F48B819C818F
:100140002FEF8F3F920789F440E051E082E291E087
:1001500020E131E0E4E1F1E0BA01A9019F0104E00E
:10016000EE246894E2F80E94DB030F900F900F904A
:100170000F90CF91DF910F91EF900895DF93CF9380
:10018000CDB7DEB781E090E06FEF7FEF0E948D008A
:10019000CF91DF910895DF93CF930F92CDB7DEB764
:1001A00082E291E00E94020489838981882371F0B0
:1001B0008981833231F083EC91E069810E944603AA
:1001C00005C083EC91E069810E9465030F90CF9197
:1001D000DF910895DF93CF93CDB7DEB783EC91E045
:1001E00040E855E260E070E00E94D101CF91DF91DC
:1001F0000895DF93CF93CDB7DEB70E945A010E94D6
:10020000EA000E94CB00FDCF1F920F920FB60F9213
:1002100011242F933F938F939F93AF93BF9380911C
:100220003A0190913B01A0913C01B0913D01309188
:100230003E010196A11DB11D232F2D5F2D3720F00A
:100240002D570196A11DB11D20933E0180933A01C7
:1002500090933B01A0933C01B0933D018091360106
:1002600090913701A0913801B09139010196A11DFB
:10027000B11D8093360190933701A0933801B0935C
:100280003901BF91AF919F918F913F912F910F9025
:100290000FBE0F901F9018958FB7F89420913A01D8
:1002A00030913B0140913C0150913D018FBFB9011C
:1002B000CA010895789484B5826084BD84B5816054
:1002C00084BD85B5826085BD85B5816085BDEEE65E
:1002D000F0E0808181608083E1E8F0E080818260ED
:1002E0008083808181608083E0E8F0E080818160AC
:1002F0008083E1EBF0E0808184608083E0EBF0E0DC
:10030000808181608083EAE7F0E08081846080837F
:100310008081826080838081816080838081806829
:1003200080831092C10008951F920F920FB60F9212
:1003300011242F933F934F935F936F937F938F93EA
:100340009F93AF93BF93EF93FF934091C600E091CB
:10035000BF01F091C001CF01019660E870E00E94FA
:10036000C3059C018091C1019091C20128173907F2
:1003700039F0E15CFE4F40833093C0012093BF0110
:10038000FF91EF91BF91AF919F918F917F916F916D
:100390005F914F913F912F910F900FBE0F901F9043
:1003A00018955F926F927F928F929F92AF92BF92B9
:1003B000CF92DF92EF92FF920F931F93CF93DF9331
:1003C000EC015A016B0181E4A81682E4B8068FE0C3
:1003D000C80680E0D80608F077C060E874E88EE1CF
:1003E00090E0A60195010E94D60539014A010894C2
:1003F00061087108810891089694879477946794AE
:10040000A40193012F5F3F4F4F4F5F4F74E0220FC6
:10041000331F441F551F7A95D1F760E074E284EFD3
:1004200090E00E94D605CA01B9012FEF30E040E00C
:1004300050E00E94A405A60195010E94D6058FEF09
:1004400090E0821B930B181619061CF4522E509440
:1004500002C0522E539460E079E08DE390E0A60153
:1004600095010E94D605215030404040504056959D
:100470004795379527952F5F3F4F4F4F5F4F93E03D
:10048000220F331F441F551F9A95D1F760E074E285
:1004900084EF90E00E94D605CA01B9012FEF30E049
:1004A00040E050E00E94A405A60195010E94D605F7
:1004B0008FEF90E0821B930B1816190614F4209509
:1004C00001C02F5F2515F0F4E885F98581E090E003
:1004D0000A8802C0880F991F0A94E2F7808360E0BF
:1004E00079E08DE390E0A60195010E94D6052150A8
:1004F0003040404050405695479537952795822F7C
:10050000232F05C0E885F9851082862D272DEC81E3
:10051000FD812083EE81FF818083EA85FB85208138
:1005200041E050E0CA010E8402C0880F991F0A946E
:10053000E2F7282B2083EA85FB852081CA010F84FE
:1005400002C0880F991F0A94E2F7282B2083EA85BE
:10055000FB858081088802C0440F551F0A94E2F78A
:10056000842B8083DF91CF911F910F91FF90EF90AB
:10057000DF90CF90BF90AF909F908F907F906F90C3
:100580005F900895FC01A085B18521898C9190E050
:10059000022E02C0959587950A94E2F780FFF6CF68
:1005A0000484F585E02D608308958CE191E09093BB
:1005B000C4018093C3018FE391E09093C6018093BF
:1005C000C50185EC90E09093C8018093C70184EC4D
:1005D00090E09093CA018093C90180EC90E09093E1
:1005E000CC018093CB0181EC90E09093CE0180937D
:1005F000CD0186EC90E09093D0018093CF0184E010
:100600008093D10183E08093D20187E08093D3016E
:1006100085E08093D40181E08093D50108950F9304
:100620001F93CF93DF938C01EB0109C02196D80172
:10063000ED91FC910190F081E02DC8010995688150
:100640006623A1F7DF91CF911F910F910895EF924B
:10065000FF920F931F93CF93DF938C017B01EA01ED
:100660000CC0D7016D917D01D801ED91FC910190F5
:10067000F081E02DC80109952197209791F7DF912E
:10068000CF911F910F91FF90EF900895DC01ED91B4
:10069000FC910190F081E02D099508950F931F932F
:1006A0008C01DC01ED91FC910190F081E02D6DE079
:1006B0000995D801ED91FC910190F081E02DC801E0
:1006C0006AE009951F910F9108950F931F938C0174
:1006D000DC01ED91FC910190F081E02D0995C801BC
:1006E0000E944E031F910F910895FC018781908510
:1006F0008617970751F07087678322893389211500
:10070000310519F08185F90109950895DF92EF927D
:10071000FF920F931F93CF93DF937C01DD2438C0AA
:10072000D7011496ED91FC911597EC0FFD1F808178
:1007300061E00E94E804D7011496ED91FC911597B1
:10074000EC0FFD1F808161E00E9408050F5FC02F44
:10075000D0E0F701868182958F7090E0C817D907A5
:10076000FCF20D2D10E00280F381E02DE00FF11F6F
:10077000808160E00E94E804D7011296ED91FC911F
:100780001397E00FF11F808161E00E940805D39468
:100790002D2D30E0F70186818F7090E02817390702
:1007A00014F400E0D4CFDF91CF911F910F91FF900F
:1007B000EF90DF900895EF920F93FC0153834283F3
:1007C00035832483EE0CEE0CEE0CEE0C0F700E292C
:1007D000068371836083128613861486158682E3EE
:1007E00090E09787868788EE93E0918B808B138AC1
:1007F000128A118610861782CF010E9486030F91FC
:10080000EF900895CF92DF92EF92FF920F931F9394
:10081000CF93DF93EC01CC24BBC0EC81FD81EE0DC6
:10082000FF1D808160E00E940805DD249EC02295A6
:100830002F70822F90E09C01029FC001039F900DBA
:10084000129F900D1124E881F981EE0DFF1DE80F34
:10085000F91F99858081981709F046C00E944C01C4
:100860002A853B854C855D85621B730B840B950B3C
:100870002889398940E050E062177307840795079B
:1008800070F0EA81FB81E00FF11F80810E94550525
:10089000892B29F4CE0163E070E00E9475030E9469
:1008A0004C012A853B854C855D85621B730B840B4F
:1008B000950B2E853F8540E050E062177307840753
:1008C000950708F451C0EA81FB81ED0DF11D80818F
:1008D0000E945505019709F047C0CE0162E070E023
:1008E0000E947503198640C00E944C012A853B85F1
:1008F0004C855D85621B730B840B950B2E853F85A4
:1009000040E050E0621773078407950768F1EA81B9
:10091000FB81E00FF11F80810E945505892B21F595
:10092000EC81FD81EE0DFF1D808161E00E940805D4
:100930008E8182958F7090E09C01029FC001039F81
:10094000900D129F900D1124E881F981EE0DFF1D8D
:10095000E80FF91F10810E944C016A877B878C8702
:100960009D87112301F52AC0D3940D2D10E02E810F
:10097000822F8F7090E0081719070CF458CFEC8184
:10098000FD81EE0DFF1D808161E00E940805C3948A
:10099000EC2CFF248E8182958F7090E0E816F9068A
:1009A0000CF43BCF0BC08985181741F01987CE0195
:1009B00061E070E00E947503898501C080E0DF91ED
:1009C000CF911F910F91FF90EF90DF90CF900895FE
:1009D000282F30E0C90186569F4FFC0194912A5779
:1009E0003F4FF9018491882391F0E82FF0E0EE0F5A
:1009F000FF1FE859FF4FA591B491662329F48C910C
:100A0000909589238C9308958C91892B8C930895CC
:100A1000482F50E0CA0182559F4FFC012491CA0122
:100A200086569F4FFC0194914A575F4FFA013491CB
:100A30003323D1F1222331F1233021F4809180003E
:100A40008F7705C0243031F4809180008F7D8093B2
:100A5000800018C0213019F484B58F7704C022308B
:100A600021F484B58F7D84BD0DC0263021F48091A2
:100A7000B0008F7705C0273029F48091B0008F7DBA
:100A80008093B000E32FF0E0EE0FFF1FEE58FF4F12
:100A9000A591B491662329F48C91909589238C9328
:100AA00008958C91892B8C930895682F70E0CB0169
:100AB00082559F4FFC012491CB0186569F4FFC012C
:100AC00044916A577F4FFB019491992319F420E0D8
:100AD00030E038C0222331F1233021F480918000AE
:100AE0008F7705C0243031F4809180008F7D809312
:100AF000800018C0213019F484B58F7704C02230EB
:100B000021F484B58F7D84BD0DC0263021F4809101
:100B1000B0008F7705C0273029F48091B0008F7D19
:100B20008093B000892F90E0880F991F84589F4FC1
:100B3000FC01A591B4918C9120E030E0842311F068
:100B400021E030E0C9010895629FD001739FF00158
:100B5000829FE00DF11D649FE00DF11D929FF00D4D
:100B6000839FF00D749FF00D659FF00D9927729F84
:100B7000B00DE11DF91F639FB00DE11DF91FBD010F
:100B8000CF011124089597FB092E07260AD077FD7F
:100B900004D02ED006D000201AF4709561957F4FB6
:100BA0000895F6F7909581959F4F0895A1E21A2E2A
:100BB000AA1BBB1BFD010DC0AA1FBB1FEE1FFF1F01
:100BC000A217B307E407F50720F0A21BB30BE40B51
:100BD000F50B661F771F881F991F1A9469F7609598
:100BE0007095809590959B01AC01BD01CF01089552
:100BF000AA1BBB1B51E107C0AA1FBB1FA617B70743
:100C000010F0A61BB70B881F991F5A95A9F780955E
:100C10009095BC01CD010895EE0FFF1F0590F49152
:080C2000E02D0994F894FFCFC8
:100C280031323341343536423738394323302A4458
:100C380008090A0B0405060700000000C2020F039A
:020C4800270380
:00000001FF
