:100000000C9436000C945E000C945E000C945E0020
:100010000C945E000C945E000C945E000C945E00E8
:100020000C945E000C945E000C945E000C945E00D8
:100030000C945E000C945E000C945E000C945E00C8
:100040000C9455010C945E000C9431020C945E00EB
:100050000C945E000C945E000C945E000C945E00A8
:100060000C945C060C945E008000290311241FBED2
:10007000CFEFD8E0DEBFCDBF11E0A0E0B1E0E2EC11
:10008000F2E102C005900D92AA32B107D9F711E052
:10009000AAE2B1E001C01D92A43EB107E1F710E071
:1000A000CCE6D0E004C02297FE010E943308C83697
:1000B000D107C9F70E948D000C945F090C940000D1
:1000C000DF93CF9300D000D0CDB7DEB79A8389837A
:1000D0007C836B8389819A818130910551F48B8176
:1000E0009C812FEF8F3F920721F48AE291E00E94DA
:1000F00060040F900F900F900F90CF91DF910895B3
:10010000DF93CF93CDB7DEB781E090E06FEF7FEF65
:100110000E946000CF91DF9108950F931F93DF93AA
:10012000CF93CDB7DEB7A2970FB6F894DEBF0FBE60
:10013000CDBF0E94F6018BEB91E040E855E260E014
:1001400070E00E9462028AE291E066E041E021E014
:100150000E942F048C838BEB91E020E031E0B90109
:100160000E949A048C81282F30E08BEB91E0B9013A
:100170004AE050E00E94A8058AE291E066E041E092
:1001800025E00E942F048B838B81882339F08BEB31
:1001900091E06B8140E050E00E94C3058AE291E06B
:1001A000FE01359666E041E024E08F010E94EC03F9
:1001B0008C831A82198215C029813A81CE01059655
:1001C000FC01E20FF31F8081282F8BEB91E0622F5F
:1001D00040E050E00E94720589819A8101969A83DD
:1001E00089838C81282F30E089819A818217930737
:1001F0001CF38BEB91E026E031E0B9010E949D05F4
:1002000060ED77E080E090E00E949D019CCF0F932D
:100210001F93DF93CF93CDB7DEB728970FB6F8942F
:10022000DEBF0FBECDBF89836A834B833D832C83A2
:100230000E838981882F90E08630910559F58A8157
:10024000882F90E08130910529F58B81282F30E0AF
:1002500038872F838F8198858130910531F02F81E8
:1002600038852230310561F015C08AE291E0E8E07E
:10027000F1E065E041E022E08F010E94AE030AC098
:100280008AE291E0ECE0F1E065E041E022E08F01FC
:100290000E94AE0328960FB6F894DEBF0FBECDBF06
:1002A000CF91DF911F910F9108951F920F920FB67A
:1002B0000F9211242F933F938F939F93AF93BF93EC
:1002C0008091320190913301A0913401B0913501B8
:1002D000309136010196A11DB11D232F2D5F2D37C1
:1002E00020F02D570196A11DB11D2093360180935A
:1002F000320190933301A0933401B0933501809182
:100300002E0190912F01A0913001B0913101019601
:10031000A11DB11D80932E0190932F01A093300158
:10032000B0933101BF91AF919F918F913F912F91E8
:100330000F900FBE0F901F9018959B01AC017FB7D7
:10034000F89480912E0190912F01A0913001B091ED
:10035000310166B5A89B05C06F3F19F00196A11D3C
:10036000B11D7FBFBA2FA92F982F8827860F911D07
:10037000A11DB11D62E0880F991FAA1FBB1F6A95BE
:10038000D1F7BC012DC0FFB7F89480912E01909158
:100390002F01A0913001B0913101E6B5A89B05C0B5
:1003A000EF3F19F00196A11DB11DFFBFBA2FA92F74
:1003B000982F88278E0F911DA11DB11DE2E0880F97
:1003C000991FAA1FBB1FEA95D1F7861B970B885E62
:1003D0009340C8F2215030404040504068517C4F1B
:1003E000211531054105510571F60895789484B5BC
:1003F000826084BD84B5816084BD85B5826085BD21
:1004000085B5816085BDEEE6F0E080818160808306
:10041000E1E8F0E0108280818260808380818160E9
:100420008083E0E8F0E0808181608083E1EBF0E0B0
:10043000808184608083E0EBF0E080818160808354
:10044000EAE7F0E08081846080838081826080833D
:100450008081816080838081806880831092C10068
:1004600008951F920F920FB60F9211242F933F936E
:100470004F938F939F93EF93FF934091C600E0912A
:10048000B701F091B80131969F012F773070319705
:100490008091B9019091BA012817390739F0E95CC8
:1004A000FE4F40833093B8012093B701FF91EF9145
:1004B0009F918F914F913F912F910F900FBE0F9071
:1004C0001F901895CF93DF93EC019A01AB01E8855B
:1004D000F985203081EE380780E0480780E0580732
:1004E00009F445C081E090E00A8802C0880F991F96
:1004F0000A94E2F7808360E079E08DE390E00E9467
:100500000F08215030404040504056954795379550
:100510002795EC81FD813083EE81FF812083EA8580
:10052000FB85208141E050E0CA010E8402C0880FA3
:10053000991F0A94E2F7282B2083EA85FB85208106
:10054000CA010F8402C0880F991F0A94E2F7282B72
:100550002083EA85FB858081088802C0440F551FEF
:100560000A94E2F7842B8083DF91CF910895108263
:1005700020E130E0CECFDC011296ED91FC91139793
:10058000E058FF4F2191319180819181281B390BD7
:100590002F773070C9010895DC011296ED91FC911E
:1005A0001397EE57FF4F2081318192918291E0584D
:1005B000F0408217930719F42FEF3FEF05C0E20FC9
:1005C000F31F8081282F30E0C9010895DC011296C5
:1005D000ED91FC911397DF01AE57BF4F2D913C91E8
:1005E0001197E058FF4F80819181E058F0408217C9
:1005F000930719F42FEF3FEF0BC0E20FF31F808139
:100600002F5F3F4F2F7730702D933C93282F30E092
:10061000C9010895DC011296ED91FC911397EE57F4
:10062000FF4F80819181929382930895FC01A08570
:10063000B18521898C9190E0022E02C09595879515
:100640000A94E2F780FFF6CF0484F585E02D6083FD
:1006500008958BE191E09093BC018093BB0187E307
:1006600091E09093BE018093BD0185EC90E0909362
:10067000C0018093BF0184EC90E09093C20180930D
:10068000C10180EC90E09093C4018093C30181ECA0
:1006900090E09093C6018093C50186EC90E0909322
:1006A000C8018093C70184E08093C90183E08093EF
:1006B000CA0187E08093CB0185E08093CC0181E083
:1006C0008093CD010895BF92CF92DF92EF92FF9277
:1006D0000F931F93DF93CF93CDB7DEB7B62ED42EF3
:1006E000C22EB8011E2DEDB6FEB6812F90E0049605
:1006F0002DB73EB7281B390B0FB6F8943EBF0FBE7F
:100700002DBF4DB75EB74F5F5F4F9A01A0E0B0E0DD
:1007100007C0FB01EA0FFB1F8081F901838311965B
:100720002F5F3F4FA117A8F3FA01D082C182128335
:100730001C5F8B2DBA01412F21E00E9417060FB6D6
:10074000F894FEBE0FBEEDBECF91DF911F910F91C9
:10075000FF90EF90DF90CF90BF900895EF920F93AE
:100760001F93D8010D900020E9F71197A01BB10B42
:10077000EA2E0E9463031F910F91EF900895EF926C
:100780000F931F93DF93CF930F92CDB7DEB71982EC
:100790008E010F5F1F4FEE240E9463030F90CF91D5
:1007A000DF911F910F91EF900895EF920F931F9398
:1007B000DF93CF930F92CDB7DEB709838E010F5F22
:1007C0001F4FEE24E3940E9463030F90CF91DF91BB
:1007D0001F910F91EF900895CF92DF92EF92FF92C9
:1007E0000F931F93DF93CF93CDB7DEB7A4970FB6C8
:1007F000F894DEBF0FBECDBF7C01D62E322FC02EA7
:100800002FEF032F0E94D503C7016FE741E021E0DE
:100810000E94BF038D2DBE016F5F7F4F44E20E9497
:10082000DF05FE0135962C2D312FC901DC019E011B
:10083000275D3F4F81918D93E217F307D9F78C81A4
:10084000A4960FB6F894DEBF0FBECDBFCF91DF9157
:100850001F910F91FF90EF90DF90CF900895EF924E
:10086000FF920F931F93DF93CF93CDB7DEB7A4977B
:100870000FB6F894DEBF0FBECDBF7C01162F022F3E
:100880002FEF0E94D503C7016FE741E021E00E94EE
:10089000BF0384E68D83812FBE016F5F7F4F44E2EB
:1008A0000E94DF058D81A4960FB6F894DEBF0FBEBF
:1008B000CDBFCF91DF911F910F91FF90EF900895E1
:1008C0000E94DE0708950F931F93CF93DF938C014F
:1008D000EB0109C02196D801ED91FC910190F081C6
:1008E000E02DC801099568816623A1F7DF91CF91BA
:1008F0001F910F910895EF92FF920F931F93CF9343
:10090000DF938C017B01EA010CC0D7016D917D0161
:10091000D801ED91FC910190F081E02DC80109957D
:100920002197209791F7DF91CF911F910F91FF9021
:10093000EF900895DC01ED91FC910280F381E02DB0
:10094000099508952F923F924F925F926F927F92F6
:100950008F929F92AF92BF92CF92DF92EF92FF92CF
:100960000F931F93DF93CF93CDB7DEB7A0970FB64A
:10097000F894DEBF0FBECDBF1C016A017B0141159B
:1009800051056105710549F440E350E060E070E015
:1009900020E030E00E943C0556C088249924540190
:1009A000422E55246624772401E010E00C0F1D1F11
:1009B000080D191DC701B601A30192010E940F087D
:1009C000F80160830894811C911CA11CB11CC70113
:1009D000B601A30192010E940F08C901DA016C015E
:1009E0007D01C114D104E104F104F1F681E0E82EA7
:1009F000F12CEC0EFD1EE80CF91C3E010894611C64
:100A0000711CD501C4010197A109B1096C01C81875
:100A1000D90816C0F601EE0DFF1D40814A3010F4D2
:100A2000405D01C0495C552747FD5095652F752FE6
:100A3000C10120E030E00E943C050894E108F10883
:100A40006E147F0439F7A0960FB6F894DEBF0FBE80
:100A5000CDBFCF91DF911F910F91FF90EF90DF906D
:100A6000CF90BF90AF909F908F907F906F905F904E
:100A70004F903F902F900895EF92FF920F931F9306
:100A8000CF93DF93EC017A018B012115310541F4FD
:100A9000E881F9810190F081E02D642F09951BC058
:100AA0002A303105B1F477FF10C04DE250E060E02C
:100AB00070E020E030E00E943C0510950095F09435
:100AC000E094E11CF11C011D111DCE01B801A7012C
:100AD0002AE00E94A204DF91CF911F910F91FF9015
:100AE000EF900895EF92FF920F931F93E62E9A01D5
:100AF000FF24E7FCF0940F2D1F2DB801A7010E94E1
:100B00003C051F910F91FF90EF9008950F931F9355
:100B10008C014DE050E060E070E020E030E00E94A9
:100B20003C05C8014AE050E060E070E020E030E0C1
:100B30000E943C051F910F9108950F931F938C0104
:100B40000E949A04C8010E9486051F910F91089582
:100B5000CF92DF92EF92FF920F931F938C016B0164
:100B60009A01EE24D7FCE094FE2CB701A6010E9466
:100B70003C05C8010E9486051F910F91FF90EF90E0
:100B8000DF90CF900895CF92DF92EF92FF920F9374
:100B90001F938C01C62E9A01DD24C7FCD094ED2C46
:100BA000FD2CB701A6010E943C05C8010E948605E4
:100BB0001F910F91FF90EF90DF90CF900895982FA5
:100BC000453210F040E031C08091CE018823E1F73A
:100BD00081E08093CE018FEF8093DF011092D601E8
:100BE00041504093D7014F5F990F91609093CF018F
:100BF00085EE8093BC008091CE018130E1F380913D
:100C0000D601841710F44091D601A091D401B0917F
:100C1000D50120E030E007C0FB01E20FF31F8D910A
:100C200080832F5F3F4F2417B8F3842F08951F93BD
:100C3000582F122F453210F081E03CC08091CE0138
:100C40008823E1F782E08093CE018FEF8093DF016C
:100C50001092D6014093D701A091D401B091D50153
:100C6000FB0102C081918D938E2F861B8417D0F3D8
:100C7000852F90E0880F991F8093CF0185EE809398
:100C8000BC00112321F08091CE018230E1F38091EC
:100C9000DF018F3F11F480E00DC08091DF018032D1
:100CA00011F482E007C08091DF01803311F084E00D
:100CB00001C083E01F9108951F920F920FB60F920B
:100CC00011242F933F934F935F936F937F938F9351
:100CD0009F93AF93BF93EF93FF938091B90090E000
:100CE000887F90708036910509F4E2C081369105C5
:100CF000CCF58832910509F47BC089329105B4F4B2
:100D00008031910509F46FC0813191053CF4009761
:100D100009F438C1089709F040C165C088319105D0
:100D200009F466C0809709F038C17FC0803491050E
:100D300009F4A3C08134910544F48033910509F48A
:100D40007FC0C89709F029C186C08035910509F494
:100D500086C08835910509F495C08834910509F05D
:100D60001CC19EC08839910509F404C189399105D7
:100D7000ECF48837910509F49BC0893791054CF450
:100D80008836910509F494C08037910509F005C1B2
:100D90008FC08838910509F4EDC08039910509F4B8
:100DA0008DC08038910509F0F8C088C0803B91055E
:100DB00009F4B2C0813B91054CF4803A910509F4E5
:100DC00091C0883A910509F0E8C0A6C0803C910521
:100DD00009F4D4C0883C910509F4D0C0883B910542
:100DE00009F0DBC0B1C08091CF018093BB00C0C0CF
:100DF0009091D6018091D701981778F49091D601FF
:100E0000E091D401F091D501E90FF11D808180932B
:100E1000BB009F5F9093D601ABC085ED8093BC0073
:100E20008091BC0084FDFCCFB6C080E28093DF01DE
:100E300085ED8093BC008091BC0084FDFCCFABC0ED
:100E400080E38093DF0185ED8093BC008091BC003E
:100E500084FDFCCFA0C088E38093DF018FC0809128
:100E6000D6019091BB00E091D401F091D501E80F3B
:100E7000F11D90838F5F8093D6019091D601809170
:100E8000D70174C08091D6019091BB00E091D4014C
:100E9000F091D501E80FF11D90838F5F8093D6010B
:100EA00085ED8093BC008091BC0084FDFCCF73C0B5
:100EB00083E08093CE011092DE015AC08091DE0162
:100EC000843208F057C08091DE019091BB00E09120
:100ED000DC01F091DD01E80FF11D90838F5F8093BD
:100EE000DE0146C08091DE01843248F48091DE014B
:100EF000E091DC01F091DD01E80FF11D10826091BD
:100F0000DE01E091D201F091D3018091DC0190915A
:100F1000DD0170E0099532C084E08093CE0110922B
:100F2000DA011092DB01E091D001F091D101099535
:100F30008091DB01882341F481E08093DB01E09123
:100F4000D801F091D90110829091DA01E091D80195
:100F5000F091D901E90FF11D80818093BB009F5F63
:100F60009093DA019091DA018091DB01981710F4E7
:100F700085EC01C085E88093BC000FC085EC8093B0
:100F8000BC0009C01092DF0185ED8093BC00809108
:100F9000BC0084FDFCCF1092CE01FF91EF91BF9178
:100FA000AF919F918F917F916F915F914F913F9101
:100FB0002F910F900FBE0F901F9018951092CE0199
:100FC000449A459AE9EBF0E080818E7F80838081AE
:100FD0008D7F808388E48093B80085E48093BC0093
:100FE00084E290E061E070E00E9437088093D401D1
:100FF0009093D50184E290E061E070E00E943708B0
:101000008093D8019093D90184E290E061E070E090
:101010000E9437088093DC019093DD010895A1E2DE
:101020001A2EAA1BBB1BFD010DC0AA1FBB1FEE1F62
:10103000FF1FA217B307E407F50720F0A21BB30BAD
:10104000E40BF50B661F771F881F991F1A9469F729
:1010500060957095809590959B01AC01BD01CF0185
:101060000895EE0FFF1F0590F491E02D09940F9362
:101070001F93CF93DF93689F8001699F100D789F26
:10108000100D1124C8010E945308EC01009729F0AB
:1010900060E070E0A8010E945809CE01DF91CF9175
:1010A0001F910F910895CF93DF93BC01823091057A
:1010B00010F462E070E0A091E201B091E301ED0173
:1010C000E0E0F0E040E050E021C08881998186179F
:1010D000970769F48A819B81309719F09383828303
:1010E00004C09093E3018093E201FE0134C06817CD
:1010F000790738F44115510519F08417950708F45C
:10110000AC01FE018A819B819C01E9012097E9F6EF
:1011100041155105A9F1CA01861B970B049708F4E4
:10112000BA01E0E0F0E02AC08D919C9111978417FC
:101130009507F9F46417750781F412968D919C91C7
:101140001397309719F09383828304C09093E3013F
:101150008093E201FD0132964FC0CA01861B970BB6
:10116000FD01E80FF91F6193719302978D939C9392
:1011700043C0FD01828193819C01D9011097A1F6A2
:101180008091E0019091E101892B41F4809113015C
:10119000909114019093E1018093E0014091150139
:1011A000509116014115510541F44DB75EB780913C
:1011B000110190911201481B590B2091E0013091CF
:1011C000E10124173507B0F4CA01821B930B86177F
:1011D000970780F0AB014E5F5F4F8417950750F083
:1011E000420F531F5093E1014093E001F9016193D5
:1011F000719302C0E0E0F0E0CF01DF91CF9108955C
:10120000CF93DF93009709F450C0EC0122971B8223
:101210001A82A091E201B091E301109709F140E038
:1012200050E0AC17BD0708F1BB83AA83FE012191F2
:101230003191E20FF31FAE17BF0779F48D919C91A6
:101240001197280F391F2E5F3F4F3983288312963D
:101250008D919C9113979B838A834115510571F45D
:10126000D093E301C093E20120C012968D919C912E
:101270001397AD01009711F0DC01D3CFFA01D383AE
:10128000C28321913191E20FF31FCE17DF0769F47A
:1012900088819981280F391F2E5F3F4FFA013183D2
:1012A00020838A819B8193838283DF91CF910895EC
:1012B000DC0101C06D9341505040E0F70895F8946F
:0212C000FFCF5E
:1012C2004C454E3A20002E004C454E0044415441BC
:1012D200002000E401000000000000160363047B0C
:0A12E20004BB02E602CC020A03007E
:00000001FF
