:100000000C9463000C948B000C948B000C948B006C
:100010000C948B000C948B000C948B000C948B0034
:100020000C948B000C948B000C948B000C948B0024
:100030000C948B000C948B000C948B000C948B0014
:100040000C9452020C948B000C9441030C948B0082
:100050000C948B000C948B000C948B000C948B00F4
:100060000C9409070C948B0000000000240027006A
:100070002A0000000000250028002B0000000000DE
:1000800023002600290004040404040404040202DA
:100090000202020203030303030301020408102007
:1000A0004080010204081020010204081020000012
:1000B0000007000201000003040600000000000029
:1000C0000000BE044A0611241FBECFEFD8E0DEBFF9
:1000D000CDBF13E0A0E0B1E0E8EAF4E102C0059092
:1000E0000D92AE32B107D9F713E0AEE2B3E001C032
:1000F0001D92A83FB107E1F710E0C6ECD0E004C0C4
:100100002297FE010E942609C23CD107C9F70E942E
:1001100047020C94520A0C940000DF93CF93CDB7A2
:10012000DEB784EC93E020E031E0B9010E944E0597
:1001300084EC93E029E031E0B9010E944E0584ECA3
:1001400093E022E131E0B9010E944E0584EC93E096
:1001500023E331E0B9010E944E0584EC93E020E4F2
:1001600031E0B9010E944E0584EC93E021E631E0D4
:10017000B9010E944E0584EC93E020E831E0B9011A
:100180000E944E0584EC93E022E131E0B9010E9427
:100190004E05CF91DF910895DF93CF930F92CDB7A6
:1001A000DEB784EC93E00E946F0489838981882301
:1001B00011F081E089838981882309F4F4C084ECFB
:1001C00093E00E94830490932F0380932E038091E9
:1001D0002E0390912F038D30910509F07AC0809104
:1001E00034039091350399230CF468C08091340353
:1001F000909135038F3F910511F00CF05FC0809115
:1002000036038823D1F1209134033091350381EEF8
:1002100093E0B9010E94730684EC93E024E931E095
:10022000B9010E942F0580913203909133039C0104
:10023000442737FD4095542F84EC93E0BA01A9017F
:100240002AE030E00E94200684EC93E022EB31E0CB
:10025000B9010E942F0580913403909135039C01D0
:10026000442737FD4095542F84EC93E0BA01A9014F
:100270002AE030E00E94350628C080913403909136
:100280003503909333038093320384EC93E02CEB9B
:1002900031E0B9010E942F05809132039091330320
:1002A0009C01442737FD4095542F84EC93E0BA011C
:1002B000A9012AE030E00E94350607C084EC93E0F3
:1002C0002FED31E0B9010E944E05109235031092D6
:1002D000340380912E0390912F038D36910511F4F4
:1002E0000E948D0080912E0390912F0389369105F5
:1002F00099F4209132033091330381EE93E0B901F8
:100300000E94400684EC93E02CE032E0B9010E94A8
:100310004E0581E08093360380912E0390912F0348
:100320008F36910569F481EE93E00E94760684ECA5
:1003300093E025E232E0B9010E944E0510923603A7
:1003400080912E0390912F038033910564F1809169
:100350002E0390912F038A3391052CF5809134035D
:10036000909135039C01220F331FC901880F991FFB
:10037000880F991F280F391F80912E0390912F030A
:10038000C097820F931F909335038093340380911D
:100390002E0390912F039C012053304084EC93E076
:1003A000B9010E9418060F90CF91DF910895DF9355
:1003B000CF93CDB7DEB781EE93E00E94880684EC40
:1003C00093E040E855E260E070E00E947E030E9406
:1003D0008D0082E061E00E94D40282E060E00E9431
:1003E000F4021092330310923203109231031092F0
:1003F000300310923503109234031092360380912B
:100400003203909133039C01442737FD4095542FCC
:1004100084EC93E0BA01A9012AE030E00E9435069D
:1004200084EC93E02CE332E0B9010E944E0584ECA9
:1004300093E02DE632E0B9010E944E0584EC93E092
:100440002BE932E0B9010E944E0584EC93E028ECE0
:1004500032E0B9010E942F0580913203909133035D
:100460009C01442737FD4095542F84EC93E0BA015A
:10047000A9012AE030E00E94350684EC93E02DEEDD
:1004800032E0B9010E944E05CF91DF910895DF93CC
:10049000CF93CDB7DEB70E949A020E94D7010E9487
:1004A000CC00FDCF1F920F920FB60F9211242F9305
:1004B0003F938F939F93AF93BF9380913B03909112
:1004C0003C03A0913D03B0913E0330913F03019660
:1004D000A11DB11D232F2D5F2D3720F02D57019623
:1004E000A11DB11D20933F0380933B0390933C03D8
:1004F000A0933D03B0933E0380913703909138035E
:10050000A0913903B0913A030196A11DB11D8093CA
:10051000370390933803A0933903B0933A03BF9104
:10052000AF919F918F913F912F910F900FBE0F90A0
:100530001F901895789484B5826084BD84B58160DD
:1005400084BD85B5826085BD85B5816085BDEEE6DB
:10055000F0E0808181608083E1E8F0E0808182606A
:100560008083808181608083E0E8F0E08081816029
:100570008083E1EBF0E0808184608083E0EBF0E059
:10058000808181608083EAE7F0E0808184608083FD
:1005900080818260808380818160808380818068A7
:1005A00080831092C1000895282F30E0C90186563B
:1005B0009F4FFC0194912A573F4FF9018491882362
:1005C00091F0E82FF0E0EE0FFF1FE859FF4FA591E3
:1005D000B491662329F48C91909589238C93089586
:1005E0008C91892B8C930895482F50E0CA01825535
:1005F0009F4FFC012491CA0186569F4FFC019491A4
:100600004A575F4FFA0134913323D1F1222331F15C
:10061000233021F4809180008F7705C0243031F49D
:10062000809180008F7D8093800018C0213019F464
:1006300084B58F7704C0223021F484B58F7D84BDCA
:100640000DC0263021F48091B0008F7705C027308F
:1006500029F48091B0008F7D8093B000E32FF0E00B
:10066000EE0FFF1FEE58FF4FA591B491662329F4BA
:100670008C91909589238C9308958C91892B8C93E0
:1006800008951F920F920FB60F9211242F933F934C
:100690004F935F936F937F938F939F93AF93BF938A
:1006A000EF93FF934091C600E091C003F091C10326
:1006B000CF01019660E870E00E94DB089C01809108
:1006C000C2039091C3032817390739F0E05CFC4F4F
:1006D00040833093C1032093C003FF91EF91BF91FA
:1006E000AF919F918F917F916F915F914F913F91CA
:1006F0002F910F900FBE0F901F9018955F926F92E1
:100700007F928F929F92AF92BF92CF92DF92EF92A1
:10071000FF920F931F93CF93DF93EC015A016B016C
:1007200081E4A81682E4B8068FE0C80680E0D80607
:1007300008F077C060E874E88EE190E0A6019501CA
:100740000E94EE0839014A01089461087108810885
:1007500091089694879477946794A40193012F5FEE
:100760003F4F4F4F5F4F74E0220F331F441F551F01
:100770007A95D1F760E074E284EF90E00E94EE0891
:10078000CA01B9012FEF30E040E050E00E94BC0800
:10079000A60195010E94EE088FEF90E0821B930B5B
:1007A000181619061CF4522E509402C0522E53945F
:1007B00060E079E08DE390E0A60195010E94EE08EB
:1007C00021503040404050405695479537952795E9
:1007D0002F5F3F4F4F4F5F4F93E0220F331F441F58
:1007E000551F9A95D1F760E074E284EF90E00E9483
:1007F000EE08CA01B9012FEF30E040E050E00E945E
:10080000BC08A60195010E94EE088FEF90E0821BC4
:10081000930B1816190614F4209501C02F5F2515A7
:10082000F0F4E885F98581E090E00A8802C0880F3D
:10083000991F0A94E2F7808360E079E08DE390E00D
:10084000A60195010E94EE082150304040405040E2
:100850005695479537952795822F232F05C0E88514
:10086000F9851082862D272DEC81FD812083EE8174
:10087000FF818083EA85FB85208141E050E0CA0149
:100880000E8402C0880F991F0A94E2F7282B208358
:10089000EA85FB852081CA010F8402C0880F991F59
:1008A0000A94E2F7282B2083EA85FB85808108885B
:1008B00002C0440F551F0A94E2F7842B8083DF9116
:1008C000CF911F910F91FF90EF90DF90CF90BF904D
:1008D000AF909F908F907F906F905F900895DC0114
:1008E0001296ED91FC911397E058FF4F81919191F1
:1008F00080589F4F20813181821B930B60E870E00C
:100900000E94DB080895CF93DF93DC011296ED91EE
:10091000FC911397EF01CE57DF4F48815981E05882
:10092000FF4F80819181E058F0408417950719F4BA
:100930002FEF3FEF0CC0E40FF51F2081CA01019695
:1009400060E870E00E94DB089983888330E0C90189
:10095000DF91CF910895FC01A085B18521898C910B
:1009600090E0022E02C0959587950A94E2F780FFE9
:10097000F6CF0484F585E02D6083089587E293E047
:100980009093C5038093C40380E493E09093C703DE
:100990008093C60385EC90E09093C9038093C803CD
:1009A00084EC90E09093CB038093CA0380EC90E0BA
:1009B0009093CD038093CC0381EC90E09093CF0390
:1009C0008093CE0386EC90E09093D1038093D00384
:1009D00084E08093D20383E08093D30387E0809305
:1009E000D40385E08093D50381E08093D6030895F6
:1009F0000F931F93CF93DF938C01EB0109C02196D6
:100A0000D801ED91FC910190F081E02DC80109958C
:100A100068816623A1F7DF91CF911F910F9108950F
:100A2000EF92FF920F931F93CF93DF938C017B0183
:100A3000EA010CC0D7016D917D01D801ED91FC91C7
:100A40000190F081E02DC80109952197209791F739
:100A5000DF91CF911F910F91FF90EF900895DC01EE
:100A6000ED91FC910280F381E02D099508950F939B
:100A70001F938C01DC01ED91FC910190F081E02D40
:100A80006DE00995D801ED91FC910190F081E02D88
:100A9000C8016AE009951F910F9108950F931F9364
:100AA0008C010E942F05C8010E9437051F910F91EC
:100AB00008952F923F924F925F926F927F928F9202
:100AC0009F92AF92BF92CF92DF92EF92FF920F93DD
:100AD0001F93DF93CF93CDB7DEB7A0970FB6F894EF
:100AE000DEBF0FBECDBF1C016A017B014115510560
:100AF0006105710549F4DC01ED91FC910190F081F3
:100B0000E02D60E3099554C0882499245401422EB5
:100B100055246624772401E010E00C0F1D1F080DFA
:100B2000191DC701B601A30192010E94EE08F80148
:100B300060830894811C911CA11CB11CC701B601E3
:100B4000A30192010E94EE08C901DA016C017D0146
:100B5000C114D104E104F104F1F681E0E82EF12C96
:100B6000EC0EFD1EE80CF91C3E010894611C711C82
:100B7000D501C4010197A109B1096C01C818D908B0
:100B800014C0F601EE0DFF1D60816A3010F4605D47
:100B900001C0695CD101ED91FC910190F081E02DE3
:100BA000C10109950894E108F1086E147F0449F722
:100BB000A0960FB6F894DEBF0FBECDBFCF91DF91E8
:100BC0001F910F91FF90EF90DF90CF90BF90AF906B
:100BD0009F908F907F906F905F904F903F902F905D
:100BE0000895EF92FF920F931F93CF93DF93EC0141
:100BF0007A018B0177FF0FC0E881F9810190F081C4
:100C0000E02D6DE2099510950095F094E094E11CBB
:100C1000F11C011D111DCE01B801A7012AE00E949F
:100C20005905DF91CF911F910F91FF90EF9008959B
:100C3000AB01662757FD6095762F0E94F105089558
:100C4000DC012115310541F4ED91FC910190F08119
:100C5000E02D642F099508952A30310519F40E947A
:100C6000F10508950E94590508950F931F938C0173
:100C70000E942006C8010E9437051F910F91089518
:100C800081E08093E0036093DB031092DE03109217
:100C9000DF0308950895DF93CF930F92CDB7DEB7AA
:100CA00069838091E0038823A9F08091DF0380327B
:100CB000B0F48091DE03E091DC03F091DD03E80FF6
:100CC000F11D60838091DE038F5F8093DE0380934C
:100CD000DF0305C0CE01019661E00E94EC060F9093
:100CE000CF91DF9108950E944B0608956091DC0337
:100CF0007091DD038091DB034091DF0321E00E94CE
:100D0000A7061092DE031092DF031092E00308950D
:100D100080E290E061E070E00E942A098093D703AE
:100D20009093D8031092D9031092DA0380E290E0F6
:100D300061E070E00E942A098093DC039093DD0358
:100D40001092DE031092DF030E948B0808951F9318
:100D5000582F122F413210F081E03CC08091E20305
:100D60008823E1F782E08093E2038FEF8093F3031F
:100D70001092EA034093EB03A091E803B091E903DA
:100D8000FB0102C081918D938E2F861B8417D0F3B7
:100D9000852F90E0880F991F8093E30385EE809361
:100DA000BC00112321F08091E2038230E1F38091B5
:100DB000F3038F3F11F480E00DC08091F303803284
:100DC00011F482E007C08091F303803311F084E0D6
:100DD00001C083E01F910895482F613210F081E037
:100DE00008958091E203843011F082E008956093C9
:100DF000EF03A091EC03B091ED03842F9C01F90166
:100E000002C081918D938E2F841B8617D0F380E0D2
:100E100008951F920F920FB60F9211242F933F93B4
:100E20004F935F936F937F938F939F93AF93BF93F2
:100E3000EF93FF938091B90090E0887F90708036A7
:100E4000910509F4E2C081369105CCF5883291050F
:100E500009F47BC089329105B4F48031910509F41D
:100E60006FC0813191053CF4009709F438C10897AF
:100E700009F040C165C08831910509F466C08097CA
:100E800009F038C17FC08034910509F4A3C08134D2
:100E9000910544F48033910509F47FC0C89709F0A7
:100EA00029C186C08035910509F486C08835910531
:100EB00009F495C08834910509F01CC19EC0883999
:100EC000910509F404C189399105ECF4883791053D
:100ED00009F49BC0893791054CF48836910509F4D3
:100EE00094C08037910509F005C18FC088389105FD
:100EF00009F4EDC08039910509F48DC08038910561
:100F000009F0F8C088C0803B910509F4B2C0813B6C
:100F100091054CF4803A910509F491C0883A910505
:100F200009F0E8C0A6C0803C910509F4D4C0883C13
:100F3000910509F4D0C0883B910509F0DBC0B1C030
:100F40008091E3038093BB00C0C09091EA0380913D
:100F5000EB03981778F49091EA03E091E803F0919D
:100F6000E903E90FF11D80818093BB009F5F90939F
:100F7000EA03ABC085ED8093BC008091BC0084FD8A
:100F8000FCCFB6C080E28093F30385ED8093BC0074
:100F90008091BC0084FDFCCFABC080E38093F30361
:100FA00085ED8093BC008091BC0084FDFCCFA0C087
:100FB00088E38093F3038FC08091EA039091BB0094
:100FC000E091E803F091E903E80FF11D90838F5F52
:100FD0008093EA039091EA038091EB0374C08091BF
:100FE000EA039091BB00E091E803F091E903E80F78
:100FF000F11D90838F5F8093EA0385ED8093BC00A1
:101000008091BC0084FDFCCF73C083E08093E20339
:101010001092F2035AC08091F203803208F057C058
:101020008091F2039091BB00E091F003F091F10305
:10103000E80FF11D90838F5F8093F20346C080918B
:10104000F203803248F48091F203E091F003F091D2
:10105000F103E80FF11D10826091F203E091E603C5
:10106000F091E7038091F0039091F10370E009950E
:1010700032C084E08093E2031092EE031092EF03FB
:10108000E091E403F091E50309958091EF03882353
:1010900041F481E08093EF03E091EC03F091ED03E4
:1010A00010829091EE03E091EC03F091ED03E90FD3
:1010B000F11D80818093BB009F5F9093EE03909120
:1010C000EE038091EF03981710F485EC01C085E8DA
:1010D0008093BC000FC085EC8093BC0009C01092C7
:1010E000F30385ED8093BC008091BC0084FDFCCFB0
:1010F0001092E203FF91EF91BF91AF919F918F9179
:101100007F916F915F914F913F912F910F900FBE03
:101110000F901F9018951092E203449A459AE9EBBC
:10112000F0E080818E7F808380818D7F808388E462
:101130008093B80085E48093BC0080E290E061E099
:1011400070E00E942A098093E8039093E90380E20B
:1011500090E061E070E00E942A098093EC03909394
:10116000ED0380E290E061E070E00E942A09809344
:10117000F0039093F1030895629FD001739FF001F3
:10118000829FE00DF11D649FE00DF11D929FF00D17
:10119000839FF00D749FF00D659FF00D9927729F4E
:1011A000B00DE11DF91F639FB00DE11DF91FBD01D9
:1011B000CF011124089597FB092E07260AD077FD49
:1011C00004D02ED006D000201AF4709561957F4F80
:1011D0000895F6F7909581959F4F0895A1E21A2EF4
:1011E000AA1BBB1BFD010DC0AA1FBB1FEE1FFF1FCB
:1011F000A217B307E407F50720F0A21BB30BE40B1B
:10120000F50B661F771F881F991F1A9469F7609561
:101210007095809590959B01AC01BD01CF0108951B
:10122000AA1BBB1B51E107C0AA1FBB1FA617B7070C
:1012300010F0A61BB70B881F991F5A95A9F7809528
:101240009095BC01CD010895EE0FFF1F0590F4911C
:10125000E02D09940F931F93CF93DF93689F800134
:10126000699F100D789F100D1124C8010E94460936
:10127000EC01009729F060E070E0A8010E944B0AA1
:10128000CE01DF91CF911F910F910895CF93DF93FE
:10129000BC018230910510F462E070E0A091F60389
:1012A000B091F703ED01E0E0F0E040E050E021C054
:1012B000888199818617970769F48A819B81309785
:1012C00019F09383828304C09093F7038093F6030D
:1012D000FE0134C06817790738F44115510519F03B
:1012E0008417950708F4AC01FE018A819B819C015B
:1012F000E9012097E9F641155105A9F1CA01861BBC
:10130000970B049708F4BA01E0E0F0E02AC08D9151
:101310009C91119784179507F9F46417750781F468
:1013200012968D919C911397309719F09383828335
:1013300004C09093F7038093F603FD0132964FC0EB
:10134000CA01861B970BFD01E80FF91F619371938A
:1013500002978D939C9343C0FD01828193819C01F0
:10136000D9011097A1F68091F4039091F503892B90
:1013700041F480911F03909120039093F503809393
:10138000F40340912103509122034115510541F48A
:101390004DB75EB780911D0390911E03481B590BFA
:1013A0002091F4033091F50324173507B0F4CA01F6
:1013B000821B930B8617970780F0AB014E5F5F4F40
:1013C0008417950750F0420F531F5093F503409335
:1013D000F403F9016193719302C0E0E0F0E0CF0102
:1013E000DF91CF910895CF93DF93009709F450C018
:1013F000EC0122971B821A82A091F603B091F703A9
:10140000109709F140E050E0AC17BD0708F1BB832D
:10141000AA83FE0121913191E20FF31FAE17BF079E
:1014200079F48D919C911197280F391F2E5F3F4FB2
:101430003983288312968D919C9113979B838A837D
:101440004115510571F4D093F703C093F60320C002
:1014500012968D919C911397AD01009711F0DC01CC
:10146000D3CFFA01D383C28321913191E20FF31FCD
:10147000CE17DF0769F488819981280F391F2E5F05
:101480003F4FFA01318320838A819B81938382833A
:10149000DF91CF910895DC0101C06D934150504020
:0814A000E0F70895F894FFCF76
:1014A8002A2A2A2A2A2A2A2A002A204D454E552045
:1014B8002A002A2A2A2A2A2A2A2A2A2A2A2A2A2AAE
:1014C8002A2A2A2A2A2A2A2A2A2A2A2A2A2A2A2A74
:1014D8002A2A004D20202020202D204D656D7500E2
:1014E8004920202020202D20496E697A696F2074B8
:1014F8007261666D697373696F6E65206461746982
:10150800004F20202020202D2046696E652074720F
:1015180061736D697373696F6E65206461746900C6
:10152800496E76696F202D2046696E65206E756D4F
:1015380065726F00203E3E20547261736D6573734F
:101548006F20616C20646973706F73697469766F5A
:10155800200020696C206461746F2000203E3E20CA
:1015680053656C657A696F6E61746F20696C20646D
:101578006973706F73697469766F206E2E2000200E
:101588003E3E206E756D65726F206E6F6E207661BF
:101598006C69646F202D206F706572617A696F6E57
:1015A8006520616E6E756C6C61746100494E495AB4
:1015B800494F20545241534D495353494F4E4520AA
:1015C800444154490046494E4520545241534D49DF
:1015D8005353494F4E452044415449000A2A2A2A68
:1015E8002A2A2A2A2A2A2A2A2A2A2A2A2A2A2A2A53
:1015F8002A2A2A2A2A2A2A2A2A2A2A2A2A2A2A2A43
:101608002A2A2A2A2A2A2A2A2A2A2A2A00446967C6
:1016180069746120696C206E756D65726F206465F0
:101628006C206E756F766F20646973706F73697460
:1016380069766F206F7070757265007072656D697C
:1016480020492070657220696E697A696172652027
:101658006C6120747261736D697373696E6520645F
:1016680065692064617469000A496C206469737053
:101678006F73697469766F2073656C657A696F6ECC
:1016880061746F20C3A820696C204E3A002A2A2A68
:101698002A2A2A2A2A2A2A2A2A2A2A2A2A2A2A2AA2
:1016A8002A2A2A2A2A2A2A2A2A2A2A2A2A2A2A2A92
:1016B8002A2A2A2A2A2A2A2A2A2A2A2A002000F812
:0E16C80003000000000000AB04F80410050051
:00000001FF
