:1000000040C064C063C062C061C060C0DFC25EC087
:100010005DC000C15BC05AC059C058C057C056C06F
:1000200055C054C053C000000000370034003100F8
:1000300000000000380035003200000000003600EB
:100040003300300004040404040404040202020225
:10005000020203030303030301020408102040808B
:100060000102040810200102040810200000000012
:100070000000000000030405000000000000000074
:100080008D0011241FBECFE5D4E0DEBFCDBF10E050
:10009000A0E6B0E0E4E9F9E002C005900D92A036D8
:1000A000B107D9F710E0A0E6B0E001C01D92A43975
:1000B000B107E1F710E0C2E8D0E003C02297FE01EB
:1000C00063D4C038D107D1F79DD062C499CFDF93F4
:1000D000CF93CDB7DEB7CF91DF910895DF93CF9364
:1000E00000D000D0CDB7DEB79A8389837C836B8341
:1000F00089819A818130910549F48B819C812FEF10
:100100008F3F920719F480E690E021D10F900F9075
:100110000F900F90CF91DF910895DF93CF93CDB7DC
:10012000DEB781E090E06FEF7FEFD8DFCF91DF9116
:100130000895DF93CF93CDB7DEB780E690E060E01F
:1001400070E03ED282E090E0909364008093630080
:1001500016C0209163003091640080E690E0B90100
:1001600052D164E170E080E090E0A8D0809163001B
:100170009091640002969093640080936300809154
:10018000630090916400823B91051CF380E690E04F
:10019000F8D060E27EE480E090E090D080E690E0ED
:1001A00060E070E00DD282EB90E090936400809369
:1001B000630016C0209163003091640080E690E0F7
:1001C000B90121D16CE271E080E090E077D08091BC
:1001D00063009091640002979093640080936300A1
:1001E0008091630090916400833091051CF780E654
:1001F00090E0C7D060E177E280E090E05FD0CF91FF
:10020000DF910895DF93CF93CDB7DEB781D05FDF65
:1002100090DFFECF1F920F920FB60F9211242F93F3
:100220003F934F935F936F937F938F939F93AF937E
:10023000BF932091690030916A0040916B0050910A
:100240006C0070916D00DA01C9010296A11DB11D0B
:10025000672F6A5F6D3730F06D57DA01C901039679
:10026000A11DB11D60936D008093690090936A0099
:10027000A0936B00B0936C00809165009091660034
:10028000A0916700B09168000196A11DB11D8093F7
:10029000650090936600A0936700B0936800BF91DB
:1002A000AF919F918F917F916F915F914F913F910E
:1002B0002F910F900FBE0F901F901895EF92FF9205
:1002C0000F931F937B018C018FB7F89440916900C5
:1002D00050916A0060916B0070916C008FBF2FB7D6
:1002E000F8948091690090916A00A0916B00B091A0
:1002F0006C002FBF841B950BA60BB70BE816F906F5
:100300000A071B0760F71F910F91FF90EF90089568
:10031000789483B7826083BF83B7816083BF89B7D6
:10032000816089BF8EB582608EBD8EB581608EBDC5
:100330008FB581608FBD85B5846085BD85B58064CE
:1003400085BD329A319A309A379A1AB80895FC01CD
:1003500080916E008C3090F480838F5F80936E006C
:10036000815090E0FC01EE0FFF1FE80FF91FE159EB
:10037000FF4F8CED95E09283818308958FEF80830A
:100380000895FC01808190E0FC01EE0FFF1FE80F53
:10039000F91FE159FF4F80818F7B80830895FC0115
:1003A00030813C3078F58181992787FD909548E828
:1003B00050E0481B590B440F551F440F551F64173D
:1003C000750784F08281992787FD909548E552E072
:1003D000481B590B440F551F440F551F64177507D1
:1003E0000CF4AB012FB7F894832F90E0FC01EE0FD3
:1003F000FF1FE80FF91FE159FF4F4650504052834D
:1004000041832FBF0895AF92BF92CF92DF92EF92B8
:10041000FF920F931F93CF93DF93EC019B0182E038
:10042000603278070CF047C077FF03C020E030E06F
:1004300005C0653B710514F024EB30E000D000D01E
:10044000B901882777FD8095982F2981332727FDCB
:100450003095B8E8AB2EB12CA21AB30AAA0CBB1C7B
:10046000AA0CBB1CCC24B7FCC094DC2CEA81FF276F
:10047000E7FDF09528E532E02E1B3F0B220F331FDE
:10048000220F331F442737FD4095542FEDB7FEB799
:10049000218332834383548320E030E040E050E006
:1004A000E4EBEE2EF12C012D112D3FD19B010F908D
:1004B0000F900F900F90CE01B90171DFDF91CF91B6
:1004C0001F910F91FF90EF90DF90CF90BF90AF9072
:1004D0000895CF92DF92EF92FF921F93CF93DF9315
:1004E000EC01162F7A01690188818C3008F05CC01C
:1004F000862F61E061D1888190E0FC01EE0FFF1F43
:10050000E80FF91FE159FF4F1F738081807C812B19
:10051000808380E292E08E199F0964E070E0CED182
:10052000698380E699E08C199D0964E070E0C6D18A
:100530006A83A8818A2F6CE0B5D1682F70E0AB0187
:10054000440F551F460F571F440F551F440F551F8B
:1005500020E030E0C901840F951FFC01EE0FFF1F62
:10056000E80FF91FE159FF4F808186FD11C02F5F11
:100570003F4F2C30310571F720C01FBC82E08EBD8B
:100580001DBC1CBC88B7806188BF89B7806189BFEA
:100590008A2F90E0FC01EE0FFF1FE80FF91FE159D1
:1005A000FF4F8081806480838881DF91CF911F918C
:1005B000FF90EF90DF90CF900895672BF1F2E8CF96
:1005C00040E252E020E639E084DF08951F920F9266
:1005D0000FB60F9211242F933F934F935F936F9316
:1005E0007F938F939F93AF93BF93EF93FF938091EC
:1005F000930087FF03C01DBC1CBC2AC02091930040
:10060000332727FD309580916E0090E02817390739
:10061000FCF480919300992787FD9095FC01EE0FE3
:10062000FF1FE80FF91FE159FF4F808186FF10C0BF
:1006300080919300992787FD9095FC01EE0FFF1F95
:10064000E80FF91FE159FF4F80818F7360E0D4D02C
:10065000809193008F5F80939300209193003327C4
:1006600027FD309580916E0090E0281739070CF037
:1006700045C0809193008C300CF040C02CB53DB546
:1006800080919300992787FD9095FC01EE0FFF1F45
:10069000E80FF91FE159FF4F81819281280F391F1F
:1006A0003BBD2ABD80919300992787FD9095FC0161
:1006B000EE0FFF1FE80FF91FE159FF4F808186FF02
:1006C00023C080919300992787FD9095FC01EE0F40
:1006D000FF1FE80FF91FE159FF4F80818F7361E021
:1006E0008BD012C080E29EE403C08CB59DB5049609
:1006F0009BBD8ABD8FEF8093930006C08CB59DB5DE
:1007000084529E4478F3F1CFFF91EF91BF91AF9166
:100710009F918F917F916F915F914F913F912F9119
:100720000F900FBE0F901F9018952F923F924F92EF
:100730005F926F927F928F929F92AF92BF92CF9271
:10074000DF92EF92FF920F931F93DF93CF93CDB77A
:10075000DEB73B014C0119012A016D897E898F8921
:10076000988D6A197B098C099D09621A730A840A9B
:10077000950AA401930177D0E218F308040915093A
:10078000A8019701AED02A0D3B1D4C1D5D1DB9017E
:10079000CA01CF91DF911F910F91FF90EF90DF90F1
:1007A000CF90BF90AF909F908F907F906F905F9011
:1007B0004F903F902F900895282F30E0C901885A1C
:1007C0009F4FFC0194912C5B3F4FF901849188234A
:1007D00091F0E82FF0E0EE0FFF1FEA5DFF4FA591CB
:1007E000B491662329F48C91909589238C93089574
:1007F0008C91892B8C930895482F50E0CA0184591D
:100800009F4FFC012491CA01885A9F4FFC0194918B
:100810004C5B5F4FFA013491332321F1222381F0A5
:10082000233019F48FB58F7704C0243021F48FB5AD
:100830008F7D8FBD05C0253019F485B58F7D85BDB1
:10084000E32FF0E0EE0FFF1FE05DFF4FA591B491A5
:10085000662329F48C91909589238C9308958C912B
:10086000892B8C930895629FD001739FF001829F22
:10087000E00DF11D649FE00DF11D929FF00D839F2F
:10088000F00D749FF00D659FF00D9927729FB00DCC
:10089000E11DF91F639FB00DE11DF91FBD01CF01DF
:1008A00011240895991B79E004C0991F961708F048
:1008B000961B881F7A95C9F78095089597FB092E96
:1008C00007260AD077FD04D027D006D000201AF4DE
:1008D000709561957F4F0895F6F7909581959F4F9C
:1008E000089597FB092E05260ED057FD04D028D079
:1008F0000AD0001C38F450954095309521953F4F13
:100900004F4F5F4F0895F6F79095809570956195DC
:100910007F4F8F4F9F4F0895AA1BBB1B51E107C00C
:10092000AA1FBB1FA617B70710F0A61BB70B881F7F
:10093000991F5A95A9F780959095BC01CD0108950E
:10094000A1E21A2EAA1BBB1BFD010DC0AA1FBB1FD3
:10095000EE1FFF1FA217B307E407F50720F0A21B45
:10096000B30BE40BF50B661F771F881F991F1A94B2
:1009700069F760957095809590959B01AC01BD01DC
:10098000CF010895EE0FFF1F0590F491E02D09941B
:04099000F894FFCF09
:00000001FF
