:1000000041C065C064C063C062C061C060C05FC001
:100010005EC0D1C15CC05BC05AC059C058C057C097
:1000200056C058C554C000000000370034003100ED
:1000300000000000380035003200000000003600EB
:100040003300300004040404040404040202020225
:10005000020203030303030301020408102040808B
:100060000102040810200102040810200000000012
:100070000000000000030405000000000000000074
:100080009800690311241FBECFE5D4E0DEBFCDBFC9
:1000900010E0A0E6B0E0EAE5F0E102C005900D92C4
:1000A000A038B107D9F710E0A0E8B0E001C01D9278
:1000B000A23EB107E1F710E0C4E8D0E003C0229708
:1000C000FE019FD6C038D107D1F758D1C4C798CF09
:1000D000EF920F93DF93CF9300D000D0CDB7DEB770
:1000E0009A8389837C836B8389819A81813091058E
:1000F000B1F48B819C812FEF8F3F920781F440E612
:1001000050E081EA90E020E730E0E4E7F0E0BA0177
:10011000A9019F0104E0EE246894E2F8B2D30F90A5
:100120000F900F900F90CF91DF910F91EF90089566
:10013000DF93CF93CDB7DEB781E090E06FEF7FEF35
:10014000C7DFCF91DF910895DF93CF9300D0CDB774
:10015000DEB78BEC90E065E070E02FD38BEC90E0A5
:1001600029E031E0B901B0D28BEC90E022ED30E033
:10017000B901A5D21A8219820BC089819A81FC012A
:10018000E058FF4F108289819A8101969A83898372
:1001900089819A818A30910584F30F900F90CF91D5
:1001A000DF9108950F931F93DF93CF9300D000D07A
:1001B000CDB7DEB79C838B831A8219821CC029813C
:1001C0003A818B819C812817390754F409811A815F
:1001D0008BEC90E02BD2F801E058FF4F808306C0F3
:1001E00089819A81FC01E058FF4F108289819A81B0
:1001F00001969A83898389819A818A309105FCF2DC
:100200000F900F900F900F90CF91DF911F910F9152
:100210000895DF93CF9300D0CDB7DEB780918000F3
:100220008823D9F42AE830E08BEC90E0B90148E06B
:1002300078D21A8219820BC089819A81FC01E65713
:10024000FF4F108289819A8101969A8389838981DF
:100250009A818930910584F317C0809180008130A4
:1002600041F424E930E08BEC90E0B90146E059D24A
:100270000BC080918000823039F42AE930E08BECA9
:1002800090E0B90145E04DD20F900F90CF91DF91F2
:100290000895DF93CF9300D00F92CDB7DEB7809152
:1002A0008A00992787FD90959093A00080939F00E6
:1002B00080919F009091A00089309105FCF481EA23
:1002C00090E005D3898389818823C1F080919F00C4
:1002D0009091A00001969093A00080939F00809140
:1002E0009F009091A000FC01E657FF4F8981808319
:1002F00080919F009091A00080938A001B821A82B7
:1003000080E044D09B838A838A81809394008A8191
:100310009B81892F990F990B9B838A838A81809374
:10032000950081E033D09B838A838A8180939600F5
:100330008A819B81892F990F990B9B838A838A815C
:100340008093970086E022D09B838A838A81809362
:1003500098008A819B81892F990F990B9B838A83AF
:100360008A818093990068EC70E080E090E085D00D
:100370000F900F900F90CF91DF910895DF93CF935F
:10038000CDB7DEB7A4D0E0DE84DFFECF8F709091D2
:100390007E009295990F990F907C982B97B9369A79
:1003A0003699FECF24B145B1942F80E030E0282B60
:1003B000392BC90108951F920F920FB60F92112485
:1003C0002F933F934F935F936F937F938F939F935D
:1003D000AF93BF932091B9003091BA004091BB0018
:1003E0005091BC007091BD00DA01C9010296A11DB7
:1003F000B11D672F6A5F6D3730F06D57DA01C901A3
:100400000396A11DB11D6093BD008093B900909328
:10041000BA00A093BB00B093BC008091B50090914E
:10042000B600A091B700B091B8000196A11DB11D12
:100430008093B5009093B600A093B700B093B80036
:10044000BF91AF919F918F917F916F915F914F91EC
:100450003F912F910F900FBE0F901F9018958FB75F
:10046000F8942091B9003091BA004091BB005091AE
:10047000BC008FBFB901CA010895EF92FF920F939C
:100480001F937B018C018FB7F8944091B900509174
:10049000BA006091BB007091BC008FBF2FB7F89479
:1004A0008091B9009091BA00A091BB00B091BC00BE
:1004B0002FBF841B950BA60BB70BE816F9060A078E
:1004C0001B0760F71F910F91FF90EF9008957894AC
:1004D00083B7826083BF83B7816083BF89B7816040
:1004E00089BF8EB582608EBD8EB581608EBD8FB5A1
:1004F00081608FBD85B5846085BD85B5806485BD0F
:10050000329A319A309A379A1AB80895282F30E0E3
:10051000C901885A9F4FFC0194912C5B3F4FF90110
:100520008491882391F0E82FF0E0EE0FFF1FEA5D41
:10053000FF4FA591B491662329F48C91909589235E
:100540008C9308958C91892B8C930895482F50E0BB
:10055000CA0184599F4FFC012491CA01885A9F4FB8
:10056000FC0194914C5B5F4FFA013491332321F1EC
:10057000222381F0233019F48FB58F7704C0243003
:1005800021F48FB58F7D8FBD05C0253019F485B559
:100590008F7D85BDE32FF0E0EE0FFF1FE05DFF4F85
:1005A000A591B491662329F48C91909589238C931D
:1005B00008958C91892B8C930895682F70E0CB015E
:1005C00084599F4FFC012491CB01885A9F4FFC0115
:1005D00044916C5B7F4FFB019491992319F420E0C7
:1005E00030E022C0222381F0233019F48FB58F77B9
:1005F00004C0243021F48FB58F7D8FBD05C0253018
:1006000019F485B58F7D85BD892F90E0880F991FDE
:10061000865C9F4FFC01A591B4918C9120E030E065
:10062000842311F021E030E0C90108959091C000C9
:100630008091C100981710F080E00895E091BE000D
:10064000F091BF00E90FF11D80819F5F9093C00082
:1006500008959C018091C9009091CA00892B11F1E5
:100660009091C0008091C1009817E0F090E00BC01D
:10067000E091BE00F091BF00EA0FFB1FA20FB31F75
:100680008C9180839F5FA92FB0E0A617B70784F3F2
:100690001092C0006093C100E091C900F091CA00BF
:1006A000CB0109950895E091C700F091C8003097FB
:1006B00029F01092C4001092C50009950895709316
:1006C000CA006093C90008957093C8006093C70082
:1006D00008950895DF93CF930F92CDB7DEB7698366
:1006E0008091C6008823A9F08091C5008032A8F4CB
:1006F0008091C400E091C200F091C300E80FF11DA9
:1007000060838091C4008F5F8093C4008093C50094
:1007100004C0CE01019661E0B6D10F90CF91DF9178
:100720000895EF92FF920F931F93CF93DF937C0175
:10073000042F8091C600882351F0EB0110E004C023
:10074000C7016991C7DF1F5F1017D0F303C0CB014A
:10075000642F99D1DF91CF911F910F91FF90EF906E
:10076000089580E290E061E070E04FD38093BE0096
:100770009093BF001092C0001092C10080E290E000
:1007800061E070E042D38093C2009093C300109266
:10079000C4001092C5000DD308950F931F938C01D0
:1007A000862F6ED183E593E090D189E293E088D1E2
:1007B000C801D7DF1F910F910895EFDF0895FC0165
:1007C000878190858617970751F070876783228904
:1007D00033892115310519F08185F90109950895AD
:1007E000DF92EF92FF920F931F93CF93DF937C01E1
:1007F000DD2434C0D7011496ED91FC911597EC0FD0
:10080000FD1F808161E082DED7011496ED91FC919D
:100810001597EC0FFD1F808161E098DE0F5FC02F00
:10082000D0E0F701868182958F7090E0C817D907D4
:100830000CF30D2D10E00280F381E02DE00FF11F8D
:10084000808160E063DED7011296ED91FC911397F1
:10085000E00FF11F808161E079DED3942D2D30E02F
:10086000F70186818F7090E02817390714F400E0B3
:10087000D6CFDF91CF911F910F91FF90EF90DF9036
:100880000895EF920F93FC015383428335832483B1
:10089000EE0CEE0CEE0CEE0C0F700E29068371833D
:1008A0006083128613861486158682E390E097870C
:1008B000868788EE93E0918B808B138A128A11864B
:1008C00010861782CF018CDF0F91EF900895CF92A1
:1008D000DF92EF92FF920F931F93CF93DF93EC0180
:1008E000CC24AFC0EC81FD81EE0DFF1D808160E066
:1008F0002DDEDD2494C022952F70822F90E09C0184
:10090000029FC001039F900D129F900D1124E8815A
:10091000F981EE0DFF1DE80FF91F99858081981769
:1009200009F040C09CDD2A853B854C855D85621BB6
:10093000730B840B950B2889398940E050E06217CE
:1009400073078407950760F0EA81FB81E00FF11FD0
:10095000808133DE892B21F4CE0163E070E02FDF4C
:100960007EDD2A853B854C855D85621B730B840B80
:10097000950B2E853F8540E050E062177307840792
:10098000950708F44BC0EA81FB81ED0DF11D8081D4
:1009900014DE019709F042C0CE0162E070E00FDF83
:1009A00019863CC05CDD2A853B854C855D85621BD4
:1009B000730B840B950B2E853F8540E050E062174A
:1009C00073078407950750F1EA81FB81E00FF11F5F
:1009D0008081F3DD892B11F5EC81FD81EE0DFF1D8A
:1009E000808161E0B3DD8E8182958F7090E09C0103
:1009F000029FC001039F900D129F900D1124E8816A
:100A0000F981EE0DFF1DE80FF91F108128DD6A87BF
:100A10007B878C879D871123F9F428C0D3940D2DF3
:100A200010E02E81822F8F7090E0081719070CF4C8
:100A300062CFEC81FD81EE0DFF1D808161E086DDDE
:100A4000C394EC2CFF248E8182958F7090E0E81681
:100A5000F9060CF447CF0AC08985181739F01987B1
:100A6000CE0161E070E0ABDE898501C080E0DF91FE
:100A7000CF911F910F91FF90EF90DF90CF9008954D
:100A8000880F82B90895482F613210F081E00895EF
:100A90008091CC00843011F082E008956093D900F9
:100AA000A091D600B091D700842F9C01F90102C01B
:100AB00081918D938E2F841B8617D0F380E008954B
:100AC0009093D1008093D00008959093CF008093AD
:100AD000CE0008951F920F920FB60F9211242F93FC
:100AE0003F934F935F936F937F938F939F93AF93B6
:100AF000BF93EF93FF9381B190E0887F9070803631
:100B0000910509F4D6C081369105CCF5883291055E
:100B100009F47AC089329105B4F48031910509F461
:100B20006FC0813191053CF4009709F428C1089702
:100B300009F02EC165C08831910509F465C0809720
:100B400009F026C17BC08034910509F49AC0813434
:100B5000910544F48033910509F479C0C89709F0F0
:100B600017C17EC08035910509F47EC08835910596
:100B700009F48CC08834910509F00AC194C0883901
:100B8000910509F4F6C089399105ECF4883791058F
:100B900009F48FC0893791054CF48836910509F422
:100BA00088C08037910509F0F3C083C0883891056B
:100BB00009F4DFC08039910509F481C080389105BE
:100BC00009F0E6C07CC0803B910509F4A5C0813BDB
:100BD00091054CF4803A910509F484C0883A910556
:100BE00009F0D6C099C0803C910509F4C5C0883C85
:100BF000910509F4C1C0883B910509F0C9C0A4C0A2
:100C00008091CD0083B9B3C09091D4008091D5007C
:100C1000981770F49091D400E091D200F091D30035
:100C2000E90FF11D808183B99F5F9093D4009FC02D
:100C300085ED86BF06B604FCFDCFA8C080E2809398
:100C4000DD0085ED86BF06B604FCFDCF9FC080E3C6
:100C50008093DD0085ED86BF06B604FCFDCF96C00F
:100C600088E38093DD0088C08091D40093B1E09147
:100C7000D200F091D300E80FF11D90838F5F809335
:100C8000D4009091D4008091D5006FC08091D400A1
:100C900093B1E091D200F091D300E80FF11D908361
:100CA0008F5F8093D40085ED86BF06B604FCFDCF30
:100CB0006DC083E08093CC001092DC0058C080911E
:100CC000DC00803208F055C08091DC0093B1E091E7
:100CD000DA00F091DB00E80FF11D90838F5F8093C5
:100CE000DC0045C08091DC00803248F48091DC005B
:100CF000E091DA00F091DB00E80FF11D10826091C5
:100D0000DC00E091D000F091D1008091DA00909168
:100D1000DB0070E0099530C084E08093CC00109235
:100D2000D8001092D900E091CE00F091CF00099543
:100D30008091D900882341F481E08093D900E0912B
:100D4000D600F091D70010829091D800E091D600A3
:100D5000F091D700E90FF11D808183B99F5F9093D7
:100D6000D8009091D8008091D900981710F485ECA4
:100D700001C085E886BF0CC085EC86BF07C0109215
:100D8000DD0085ED86BF06B604FCFDCF1092CC00D9
:100D9000FF91EF91BF91AF919F918F917F916F9153
:100DA0005F914F913F912F910F900FBE0F901F9029
:100DB00018951092CC00AC9AAD9A0898099888E4DE
:100DC00080B985E486BF80E290E061E070E01DD0EC
:100DD0008093D2009093D30080E290E061E070E0D5
:100DE00014D08093D6009093D70080E290E061E029
:100DF00070E00BD08093DA009093DB000895EE0F43
:100E0000FF1F0590F491E02D09940F931F93CF934A
:100E1000DF93689F8001699F100D789F100D11244A
:100E2000C8010DD0EC01009721F060E070E0A8014E
:100E30000BD1CE01DF91CF911F910F910895CF93E8
:100E4000DF93BC018230910510F462E070E0A09164
:100E5000E000B091E100ED01E0E0F0E040E050E0C2
:100E600021C0888199818617970769F48A819B81BF
:100E7000309719F09383828304C09093E1008093AC
:100E8000E000FE0134C06817790738F441155105B8
:100E900019F08417950708F4AC01FE018A819B8143
:100EA0009C01E9012097E9F641155105A9F1CA0114
:100EB000861B970B049708F4BA01E0E0F0E02AC023
:100EC0008D919C91119784179507F9F46417750714
:100ED00081F412968D919C911397309719F093831A
:100EE000828304C09093E1008093E000FD0132967C
:100EF0004FC0CA01861B970BFD01E80FF91F6193D4
:100F0000719302978D939C9343C0FD0182819381DD
:100F10009C01D9011097A1F68091DE009091DF002D
:100F2000892B41F480917A0090917B009093DF00AF
:100F30008093DE0040917C0050917D004115510569
:100F400041F44DB75EB78091780090917900481BCD
:100F5000590B2091DE003091DF0024173507B0F4E3
:100F6000CA01821B930B8617970780F0AB014E5F77
:100F70005F4F8417950750F0420F531F5093DF00C7
:100F80004093DE00F9016193719302C0E0E0F0E06C
:100F9000CF01DF91CF910895CF93DF93009709F4AC
:100FA00050C0EC0122971B821A82A091E000B09100
:100FB000E100109709F140E050E0AC17BD0708F1DF
:100FC000BB83AA83FE0121913191E20FF31FAE177B
:100FD000BF0779F48D919C911197280F391F2E5FCF
:100FE0003F4F3983288312968D919C9113979B8351
:100FF0008A834115510571F4D093E100C093E0005C
:1010000020C012968D919C911397AD01009711F01D
:10101000DC01D3CFFA01D383C28321913191E20F56
:10102000F31FCE17DF0769F488819981280F391FD4
:101030002E5F3F4FFA01318320838A819B81938306
:101040008283DF91CF910895DC0101C06D934150FF
:0A1050005040E0F70895F894FFCF38
:10105A003132334134353642373839432A30234422
:10106A00090A0B0C050607082000E200000001002F
:00000001FF
