:1000000041C065C064C063C062C061C060C05FC001
:100010005EC0A9C15CC05BC05AC059C058C057C0BF
:1000200056C0D1C454C00000000037003400310075
:1000300000000000380035003200000000003600EB
:100040003300300004040404040404040202020225
:10005000020203030303030301020408102040808B
:100060000102040810200102040810200000000012
:100070000000000000030405000000000000000074
:10008000A000A70411241FBECFE5D4E0DEBFCDBF82
:1000900010E0A0E6B0E0EAEFFFE002C005900D92AC
:1000A000A239B107D9F710E0A2E9B0E001C01D9272
:1000B000A13DB107E1F710E0C4E8D0E003C022970A
:1000C000FE016FD6C038D107D1F779D094C798CF49
:1000D000DF93CF93CDB7DEB7CF91DF910895CF9265
:1000E000EF920F93DF93CF9300D000D0CDB7DEB760
:1000F0009A8389837C836B8389819A81813091057E
:10010000A9F48B819C812FEF8F3F920779F482E9CC
:1001100090E06AE049E028E007E00F2EF6E0EF2EDD
:10012000F02D0F2EF5E0CF2EF02D48D30F900F902D
:100130000F900F90CF91DF910F91EF90CF90089596
:10014000DF93CF93CDB7DEB781E090E06FEF7FEF25
:10015000C6DFCF91DF910895DF93CF93CDB7DEB7A0
:1001600082E990E062E040E120E08ED282E990E016
:1001700060E040E055D282E990E020E630E0B9014D
:1001800090D368EE73E080E090E041D182E990E0A6
:1001900060E041E045D282E990E02DE630E0B9012F
:1001A00080D38AEB90E064E070E0FED38AEB90E0CD
:1001B00027EE30E0B901C6D3CF91DF910895DF93E8
:1001C000CF93CDB7DEB75BD1C7DF82DFFECF0F9312
:1001D0001F93DF93CF93CDB7DEB72E970FB6F8946A
:1001E000DEBF0FBECDBF98878F832DB73EB73E874A
:1001F0002D878DB79EB79A8789878F8198850197BC
:100200000196880F991F2DB73EB7281B390B0FB6E3
:10021000F8943EBF0FBE2DBF8DB79EB701969C8749
:100220008B878B859C8500969C878B872B853C854F
:100230003E832D831C821B8216C00B811C818AEB9E
:1002400090E037D3482F50E02D813E81C801880FC0
:10025000991FF901E80FF91F518340838B819C811D
:1002600001969C838B832B813C818F8198852817F5
:1002700039071CF3ED81FE8180819181009719F48B
:1002800082E990E0FBD1ED81FE8180819181813016
:10029000910581F5ED81FE8182819381382FED8179
:1002A000FE8184819581282F82E990E0632F422F7F
:1002B000B7D183E090E09A83898315C089819A81C0
:1002C0002D813E81880F991FF901E80FF91F808168
:1002D0009181282F82E990E0622FDBD289819A8177
:1002E00001969A83898329813A818F81988528177D
:1002F000390724F3ED81FE81808191818A30910557
:10030000C9F482E990E0BAD182E990E060E040E08F
:1003100087D182E990E020E630E0B901C2D282E9DB
:1003200090E060E041E07CD182E990E02DE630E0B1
:10033000B901B7D289859A850FB6F8949EBF0FBED2
:100340008DBF2D853E850FB6F8943EBF0FBE2DBFE5
:100350002E960FB6F894DEBF0FBECDBFCF91DF91C2
:100360001F910F9108951F920F920FB60F921124B3
:100370002F933F934F935F936F937F938F939F93AD
:10038000AF93BF932091A9003091AA004091AB0098
:100390005091AC007091AD00DA01C9010296A11D27
:1003A000B11D672F6A5F6D3730F06D57DA01C901F3
:1003B0000396A11DB11D6093AD008093A900909399
:1003C000AA00A093AB00B093AC008091A5009091DF
:1003D000A600A091A700B091A8000196A11DB11D93
:1003E0008093A5009093A600A093A700B093A800C7
:1003F000BF91AF919F918F917F916F915F914F913D
:100400003F912F910F900FBE0F901F901895EF9274
:10041000FF920F931F937B018C018FB7F89440914B
:10042000A9005091AA006091AB007091AC008FBF01
:100430002FB7F8948091A9009091AA00A091AB00E9
:10044000B091AC002FBF841B950BA60BB70BE81621
:10045000F9060A071B0760F71F910F91FF90EF90B5
:100460000895019759F0019749F0FC01EE0FFF1F25
:1004700031978FB7F8943197F1F78FBF089578943B
:1004800083B7826083BF83B7816083BF89B7816090
:1004900089BF8EB582608EBD8EB581608EBD8FB5F1
:1004A00081608FBD85B5846085BD85B5806485BD5F
:1004B000329A319A309A379A1AB808950F931F9347
:1004C0008C01FC01848160E033D481E090E0C9DFDD
:1004D000F801848161E02CD481E090E0C2DFF80172
:1004E000848160E025D484E690E0BBDF1F910F910A
:1004F0000895CF92DF92EF92FF920F931F93CF93C5
:10050000DF93D82EC92E282F392FC9018C01C0E0C6
:10051000D0E0E62EFF24F801858161E0E9D3B70140
:100520000C2E02C0759567950A94E2F76170F80188
:100530008581FED321960F5F1F4FC830D10559F733
:100540008D2D9C2DBBDFDF91CF911F910F91FF90DF
:10055000EF90DF90CF900895CF92DF92EF92FF92CD
:100560000F931F93CF93DF93D82EC92E282F392FA7
:10057000C9018C01C0E0D0E0E62EFF24F80185819E
:1005800061E0B6D3B7010C2E02C0759567950A9449
:10059000E2F76170F8018581CBD321960F5F1F4F81
:1005A000C430D10559F78D2D9C2D88DFDF91CF9177
:1005B0001F910F91FF90EF90DF90CF9008951F93C0
:1005C000CF93DF93EC01162F8A81642FB1D38B81F7
:1005D00060E0AED38D8584FF04C0CE01612F89DF3A
:1005E0000CC0612F70E084E0759567958A95E1F7FE
:1005F000CE01B2DFCE01612FAFDFDF91CF911F912E
:10060000089541E0DCDF089540E0D9DF0895FC0162
:100610006685862F846086876C60CF01F5DF08953C
:10062000DF93CF93CDB7DEB728970FB6F894DEBF30
:100630000FBECDBF9C01FE013196A9E8B0E088E075
:100640000D9001928150E1F7F9018189841710F42E
:10065000482F4150E42FF0E0EE0FFF1FEC0FFD1F7D
:100660008181680F6068C901CFDF28960FB6F894C2
:10067000DEBF0FBECDBFCF91DF91089561E0C4DF33
:1006800080ED97E0EEDE0895CF93DF93EC014230EA
:1006900018F08D8588608D87498B1A8A222329F06E
:1006A000413019F48D8584608D8780E593ECD9DE27
:1006B0008A8160E03DD38C8160E03AD38B8160E039
:1006C00037D36D8564FD16C0CE0163E045DF84E954
:1006D00091E1C7DECE0163E03FDF84E991E1C1DE55
:1006E000CE0163E039DF86E990E0BBDECE0162E057
:1006F00033DF11C06062CE0187DF84E991E1B1DEB2
:100700006D856062CE0180DF86E990E0AADE6D85AE
:100710006062CE0179DF6D856062CE0175DF84E0B5
:100720008E87CE0174DFCE01A9DF82E08F87CE01F4
:1007300066E06ADFDF91CF9108956F927F928F928A
:10074000AF92CF92EF920F931F93DF93CF93CDB7DA
:10075000DEB73C01162F842FF301428323830483E9
:10076000E582C682A78280869D8591879E85928735
:100770009F8593879889948761E0BAD2F30183813A
:1007800061E0B6D2F301848161E0B2D2112319F0A5
:10079000F301158603C080E1F3018587C30160E1A1
:1007A00041E020E071DFCF91DF911F910F91EF9039
:1007B000CF90AF908F907F906F9008958F92AF926F
:1007C000CF92EF920F931F93CF93DF93DC01362FDD
:1007D000542F722F102FAE2C8C2C83E890E01196A2
:1007E0009C938E9300D000D0EDB7FEB73196CDB775
:1007F000DEB71982118212821382CD0161E0432F8C
:100800002FEF052FE72EC12E98DF0F900F900F903E
:100810000F90DF91CF911F910F91EF90CF90AF90FC
:100820008F9008950F931F93CF93DF938C01EB016B
:1008300009C02196D801ED91FC910190F081E02D45
:10084000C801099568816623A1F7DF91CF911F91B7
:100850000F910895EF92FF920F931F93CF93DF9321
:100860008C017B01EA010CC0D7016D917D01D8019B
:10087000ED91FC910190F081E02DC801099521973F
:10088000209791F7DF91CF911F910F91FF90EF90FB
:100890000895DC01ED91FC910190F081E02D099526
:1008A0000895DC01ED91FC910280F381E02D099522
:1008B00008959091B0008091B100981710F080E0F9
:1008C0000895E091AE00F091AF00E90FF11D808135
:1008D0009F5F9093B00008959C018091B800909123
:1008E000B900892B11F19091B0008091B100981757
:1008F000E0F090E00BC0E091AE00F091AF00EA0FA5
:10090000FB1FA20FB31F8C9180839F5FA92FB0E0C4
:10091000A617B70784F31092B0006093B100E0917E
:10092000B800F091B900CB0109950895E091B600A7
:10093000F091B700309729F01092B4001092B500F2
:10094000099508957093B9006093B80008950895CB
:1009500080E290E061E070E028D28093AE00909356
:10096000AF001092B0001092B10080E290E061E020
:1009700070E01BD28093B2009093B3001092B40049
:100980001092B5008FD108950F931F938C01862F7D
:100990000DD086E994E012D08CE694E00AD0C8012C
:1009A000D7DF1F910F910895EFDF0895880F82B967
:1009B00008959093C0008093BF0008959093BE0067
:1009C0008093BD0008951F920F920FB60F921124CD
:1009D0002F933F934F935F936F937F938F939F9347
:1009E000AF93BF93EF93FF9381B190E0887F9070B6
:1009F0008036910509F4D6C081369105CCF5883250
:100A0000910509F47AC089329105B4F480319105D9
:100A100009F46FC0813191053CF4009709F428C1B5
:100A2000089709F02EC165C08831910509F465C0A9
:100A3000809709F026C17BC08034910509F49AC0E3
:100A40008134910544F48033910509F479C0C89745
:100A500009F017C17EC08035910509F47EC0883544
:100A6000910509F48CC08834910509F00AC194C03D
:100A70008839910509F4F6C089399105ECF4883775
:100A8000910509F48FC0893791054CF4883691059A
:100A900009F488C08037910509F0F3C083C0883815
:100AA000910509F4DFC08039910509F481C08038CF
:100AB000910509F0E6C07CC0803B910509F4A5C012
:100AC000813B91054CF4803A910509F484C0883A41
:100AD000910509F0D6C099C0803C910509F4C5C0C4
:100AE000883C910509F4C1C0883B910509F0C9C053
:100AF000A4C08091BC0083B9B3C09091C300809121
:100B0000C400981770F49091C300E091C100F09177
:100B1000C200E90FF11D808183B99F5F9093C300EC
:100B20009FC085ED86BF06B604FCFDCFA8C080E25D
:100B30008093CC0085ED86BF06B604FCFDCF9FC038
:100B400080E38093CC0085ED86BF06B604FCFDCF24
:100B500096C088E38093CC0088C08091C30093B195
:100B6000E091C100F091C200E80FF11D90838F5F0A
:100B70008093C3009091C3008091C4006FC08091A6
:100B8000C30093B1E091C100F091C200E80FF11DE4
:100B900090838F5F8093C30085ED86BF06B604FC0B
:100BA000FDCF6DC083E08093BB001092CB0058C096
:100BB0008091CB00803208F055C08091CB0093B17A
:100BC000E091C900F091CA00E80FF11D90838F5F9A
:100BD0008093CB0045C08091CB00803248F4809157
:100BE000CB00E091C900F091CA00E80FF11D10821E
:100BF0006091CB00E091BF00F091C0008091C900EE
:100C00009091CA0070E0099530C084E08093BB00E9
:100C10001092C7001092C800E091BD00F091BE0094
:100C200009958091C800882341F481E08093C80031
:100C3000E091C500F091C60010829091C700E0914C
:100C4000C500F091C600E90FF11D808183B99F5F57
:100C50009093C7009091C7008091C800981710F436
:100C600085EC01C085E886BF0CC085EC86BF07C057
:100C70001092CC0085ED86BF06B604FCFDCF109225
:100C8000BB00FF91EF91BF91AF919F918F917F91A9
:100C90006F915F914F913F912F910F900FBE0F90E9
:100CA0001F9018951092BB00AC9AAD9A08980998BD
:100CB00088E480B985E486BF80E290E061E070E07E
:100CC00074D08093C1009093C20080E290E061E014
:100CD00070E06BD08093C5009093C60080E290E0F6
:100CE00061E070E062D08093C9009093CA000895DB
:100CF000282F30E0C901885A9F4FFC0194912C5B4A
:100D00003F4FF9018491882391F0E82FF0E0EE0F36
:100D1000FF1FEA5DFF4FA591B491662329F48C91E2
:100D2000909589238C9308958C91892B8C930895A9
:100D3000482F50E0CA0184599F4FFC012491CA01F9
:100D4000885A9F4FFC0194914C5B5F4FFA0134919C
:100D5000332321F1222381F0233019F48FB58F77CB
:100D600004C0243021F48FB58F7D8FBD05C02530A0
:100D700019F485B58F7D85BDE32FF0E0EE0FFF1FE1
:100D8000E05DFF4FA591B491662329F48C91909575
:100D900089238C9308958C91892B8C930895EE0F61
:100DA000FF1F0590F491E02D09940F931F93CF93AB
:100DB000DF93689F8001699F100D789F100D1124AB
:100DC000C8010DD0EC01009721F060E070E0A801AF
:100DD0000BD1CE01DF91CF911F910F910895CF9349
:100DE000DF93BC018230910510F462E070E0A091C5
:100DF000CF00B091D000ED01E0E0F0E040E050E045
:100E000021C0888199818617970769F48A819B811F
:100E1000309719F09383828304C09093D00080931D
:100E2000CF00FE0134C06817790738F44115510529
:100E300019F08417950708F4AC01FE018A819B81A3
:100E40009C01E9012097E9F641155105A9F1CA0174
:100E5000861B970B049708F4BA01E0E0F0E02AC083
:100E60008D919C91119784179507F9F46417750774
:100E700081F412968D919C911397309719F093837A
:100E8000828304C09093D0008093CF00FD013296FE
:100E90004FC0CA01861B970BFD01E80FF91F619334
:100EA000719302978D939C9343C0FD01828193813E
:100EB0009C01D9011097A1F68091CD009091CE00B0
:100EC000892B41F480917B0090917C009093CE001F
:100ED0008093CD0040917D0050917E0041155105D9
:100EE00041F44DB75EB78091790090917A00481B2C
:100EF000590B2091CD003091CE0024173507B0F466
:100F0000CA01821B930B8617970780F0AB014E5FD7
:100F10005F4F8417950750F0420F531F5093CE0038
:100F20004093CD00F9016193719302C0E0E0F0E0DD
:100F3000CF01DF91CF910895CF93DF93009709F40C
:100F400050C0EC0122971B821A82A091CF00B09171
:100F5000D000109709F140E050E0AC17BD0708F150
:100F6000BB83AA83FE0121913191E20FF31FAE17DB
:100F7000BF0779F48D919C911197280F391F2E5F2F
:100F80003F4F3983288312968D919C9113979B83B1
:100F90008A834115510571F4D093D000C093CF00DE
:100FA00020C012968D919C911397AD01009711F07E
:100FB000DC01D3CFFA01D383C28321913191E20FB7
:100FC000F31FCE17DF0769F488819981280F391F35
:100FD0002E5F3F4FFA01318320838A819B81938367
:100FE0008283DF91CF910895DC0101C06D93415060
:0A0FF0005040E0F70895F894FFCF99
:100FFA004B55492D7465616D202863290049324398
:10100A00203C3D3E204C4344002000D1000000001B
:10101A00000000010312042A0400004000140054D6
:02102A000000C4
:00000001FF
