:100000000C9463000C948B000C948B000C948B006C
:100010000C948B000C948B000C948B000C948B0034
:100020000C948B000C948B000C948B000C948B0024
:100030000C948B000C948B000C948B000C948B0014
:100040000C9478020C948B000C9432030C948B006B
:100050000C948B000C948B000C948B000C948B00F4
:100060000C948B000C948B000000000024002700EF
:100070002A0000000000250028002B0000000000DE
:1000800023002600290004040404040404040202DA
:100090000202020203030303030301020408102007
:1000A0004080010204081020010204081020000012
:1000B0000007000201000003040600000000000029
:1000C0000000AE00730411241FBECFEFD8E0DEBFE6
:1000D000CDBF11E0A0E0B1E0E2E3F2E102C00590A3
:1000E0000D92AC31B107D9F711E0ACE1B1E001C03C
:1000F0001D92AE3DB107E1F710E0C6ECD0E004C0C0
:100100002297FE010E941309C23CD107C9F70E9441
:100110006D020C9417090C940000DF93CF9300D06C
:1001200000D0CDB7DEB79A8389837C836B838981C6
:100130009A818130910559F48B819C812FEF8F3FFB
:10014000920729F48CE191E06AE00E94AD040F90DF
:100150000F900F900F90CF91DF910895DF93CF9381
:10016000CDB7DEB781E090E06FEF7FEF0E948D00AA
:10017000CF91DF910895DF93CF9300D000D00F92FD
:10018000CDB7DEB78CE191E00E94FF061D8200979B
:1001900011F021E02D838D81882309F481C18BEC3E
:1001A00091E020E031E0B9010E94AB078CE191E0E1
:1001B0000E94D804882341F08BEC91E025E031E0E7
:1001C000B9010E94AB0707C08BEC91E027E031E05A
:1001D000B9010E94AB078CE191E00E94DF049C838F
:1001E0008B838B819C819C01442737FD4095542F44
:1001F0008BEC91E0BA01A9012AE030E00E94890865
:100200008BEC91E029E031E0B9010E94AB078CE171
:1002100091E061E070E00E9401059C01442737FDF8
:100220004095542F8BEC91E0BA01A9012AE030E00F
:100230000E949E088BEC91E02BE031E0B9010E9416
:10024000AB078CE191E00E94D804882341F08BEC4D
:1002500091E025E031E0B9010E94AB0707C08BECCB
:1002600091E027E031E0B9010E94AB078CE191E019
:100270000E94DF049C838B838B819C819C0144279B
:1002800037FD4095542F8BEC91E0BA01A9012AE08B
:1002900030E00E9489088BEC91E029E031E0B9015F
:1002A0000E94AB078CE191E062E070E00E940105E2
:1002B0009A83898389819A818A3091053CF48BECF9
:1002C00091E020E131E0B9010E94AB0789819A8178
:1002D0009C01442737FD4095542F8BEC91E0BA01E7
:1002E000A9012AE030E00E949E088BEC91E02BE00F
:1002F00031E0B9010E94AB078CE191E00E94D80483
:10030000882341F08BEC91E025E031E0B9010E94B7
:10031000AB0707C08BEC91E027E031E0B9010E9408
:10032000AB078CE191E00E94DF049C838B838B817F
:100330009C819C01442737FD4095542F8BEC91E024
:10034000BA01A9012AE030E00E9489088BEC91E013
:1003500029E031E0B9010E94AB078CE191E063E054
:1003600070E00E9401059A83898389819A818A308D
:1003700091053CF48BEC91E020E131E0B9010E9461
:10038000AB0789819A81843691053CF48BEC91E02E
:1003900020E131E0B9010E94AB0789819A819C017B
:1003A000442737FD4095542F8BEC91E0BA01A90109
:1003B0002AE030E00E949E088BEC91E02BE031E0D7
:1003C000B9010E94AB078CE191E00E94D804882318
:1003D00041F08BEC91E025E031E0B9010E94AB07E0
:1003E00007C08BEC91E027E031E0B9010E94AB0738
:1003F0008CE191E00E94DF049C838B838B819C8144
:100400009C01442737FD4095542F8BEC91E0BA01B5
:10041000A9012AE030E00E9489088BEC91E029E0F4
:1004200031E0B9010E94AB078CE191E064E070E03B
:100430000E9401059A83898389819A818A30910576
:100440003CF48BEC91E020E131E0B9010E94AB0774
:1004500089819A81843691053CF48BEC91E020E10E
:1004600031E0B9010E94AB0789819A8123E0883E7F
:1004700092073CF48BEC91E020E131E0B9010E945D
:10048000AB0789819A819C01442737FD4095542F01
:100490008BEC91E0BA01A9012AE030E00E949E08AD
:1004A00060ED77E080E090E00E94C0020F900F9036
:1004B0000F900F900F90CF91DF910895DF93CF931E
:1004C000CDB7DEB78BEC91E040E855E260E070E03C
:1004D0000E946F03CF91DF910895DF93CF93CDB743
:1004E000DEB70E94F8020E945E020E94BB00FDCFB0
:1004F0001F920F920FB60F9211242F933F938F9359
:100500009F93AF93BF938091420190914301A0913B
:100510004401B0914501309146010196A11DB11DE4
:10052000232F2D5F2D3720F02D570196A11DB11DD2
:10053000209346018093420190934301A09344018C
:10054000B093450180913E0190913F01A0914001FF
:10055000B09141010196A11DB11D80933E01909380
:100560003F01A0934001B0934101BF91AF919F9192
:100570008F913F912F910F900FBE0F901F90189564
:10058000EF92FF920F931F937B018C018FB7F8942A
:1005900040914201509143016091440170914501A5
:1005A0008FBF2FB7F8948091420190914301A091A1
:1005B0004401B09145012FBF841B950BA60BB70BCF
:1005C000E816F9060A071B0760F71F910F91FF90C5
:1005D000EF900895019759F0FC01EE0FFF1FEE0F09
:1005E000FF1F32978FB7F8943197F1F78FBF0895B7
:1005F000789484B5826084BD84B5816084BD85B5FE
:10060000826085BD85B5816085BDEEE6F0E08081C4
:1006100081608083E1E8F0E0808182608083808176
:1006200081608083E0E8F0E0808181608083E1EB9D
:10063000F0E0808184608083E0EBF0E08081816085
:100640008083EAE7F0E0808184608083808182603B
:100650008083808181608083808180688083109224
:10066000C10008951F920F920FB60F9211242F937D
:100670003F934F935F936F937F938F939F93AF932A
:10068000BF93EF93FF934091C600E091C701F091B3
:10069000C801CF01019660E870E00E94C8089C0183
:1006A0008091C9019091CA012817390739F0E95B97
:1006B000FE4F40833093C8012093C701FF91EF9113
:1006C000BF91AF919F918F917F916F915F914F916A
:1006D0003F912F910F900FBE0F901F9018955F9232
:1006E0006F927F928F929F92AF92BF92CF92DF9242
:1006F000EF92FF920F931F93CF93DF93EC015A0178
:100700006B0181E4A81682E4B8068FE0C80680E099
:10071000D80608F077C060E874E88EE190E0A601A2
:1007200095010E94DB0839014A01089461087108AB
:10073000810891089694879477946794A401930113
:100740002F5F3F4F4F4F5F4F74E0220F331F441F07
:10075000551F7A95D1F760E074E284EF90E00E9433
:10076000DB08CA01B9012FEF30E040E050E00E9401
:10077000A908A60195010E94DB088FEF90E0821B7B
:10078000930B181619061CF4522E509402C0522EC8
:10079000539460E079E08DE390E0A60195010E941A
:1007A000DB082150304040405040569547953795E2
:1007B00027952F5F3F4F4F4F5F4F93E0220F331F1F
:1007C000441F551F9A95D1F760E074E284EF90E0E2
:1007D0000E94DB08CA01B9012FEF30E040E050E091
:1007E0000E94A908A60195010E94DB088FEF90E006
:1007F000821B930B1816190614F4209501C02F5F65
:100800002515F0F4E885F98581E090E00A8802C0BA
:10081000880F991F0A94E2F7808360E079E08DE306
:1008200090E0A60195010E94DB0821503040404035
:1008300050405695479537952795822F232F05C011
:10084000E885F9851082862D272DEC81FD81208396
:10085000EE81FF818083EA85FB85208141E050E0C5
:10086000CA010E8402C0880F991F0A94E2F7282B50
:100870002083EA85FB852081CA010F8402C0880F8E
:10088000991F0A94E2F7282B2083EA85FB85808153
:10089000088802C0440F551F0A94E2F7842B808316
:1008A000DF91CF911F910F91FF90EF90DF90CF904C
:1008B000BF90AF909F908F907F906F905F900895C2
:1008C000FC01A085B18521898C9190E0022E02C0A7
:1008D000959587950A94E2F780FFF6CF0484F58515
:1008E000E02D6083089586E191E09093CC018093A0
:1008F000CB0187E491E09093CE018093CD0185EC0C
:1009000090E09093D0018093CF0184EC90E090939D
:10091000D2018093D10180EC90E09093D401809338
:10092000D30181EC90E09093D6018093D50186ECC1
:1009300090E09093D8018093D70184E08093D9010F
:1009400083E08093DA0187E08093DB0185E0809388
:10095000DC0181E08093DD010895DC01862F90E0C9
:10096000FC01E656FF4FE491EC938A579F4FFC0140
:100970006491E62FF0E0EE0FFF1FE458FF4F8591E2
:10098000949112969C938E9311975F961C925F9709
:1009900091961C92919790961C929097FD0187E0FA
:1009A00090E0168E3197009711F00197FACF0895D5
:1009B00020E0FC01848187FF21E0822F0895FC0163
:1009C0003481932F80E02381FC01E20FF11D37FF7A
:1009D00003C0F095E195FF4FCF0164E070E00E9405
:1009E000C808CB019F01220F331F2E0F3F1F220F7C
:1009F000331F820F931F64E670E00E94C808CB018A
:100A00000895FC013481932F80E02381AC01420FD3
:100A1000511D37FF03C0509541955F4F4F70507087
:100A200081E792E0489F9001499F300D589F300D1B
:100A3000112464307105D1F06330710521F4C901CE
:100A40006AE070E010C06230710521F4C90164E60B
:100A500070E009C06130710519F020E030E006C097
:100A6000C90168EE73E00E94C8089B01C90108959E
:100A7000DF92EF92FF920F931F93FC01E0800181C0
:100A80001281F894F80181818E2981838281DE2C84
:100A9000D0948D21828383E090E00E94EA02F801E5
:100AA00081818D21818389E090E00E94EA02F80132
:100AB0000081789485E390E00E94EA0280E010E0F3
:100AC000FF240E211F21012B09F081E01F910F91BE
:100AD000FF90EF90DF900895EF92FF920F931F9396
:100AE000CF93DF937C0101E010E0C0E0D0E0C701CC
:100AF0000E9438058111102B000F2196C830D105B6
:100B0000B1F7812FDF91CF911F910F91FF90EF905F
:100B100008951F93CF93DF93FC011081C181D2818F
:100B2000912F909560FF12C0F8948A8189238A835F
:100B30008981812B89838AE090E00E94EA028A8180
:100B4000812B8A83789487E390E011C0F8948A819E
:100B500089238A838981812B898381E490E00E94A3
:100B6000EA028A81812B8A83789485E090E00E9452
:100B7000EA02DF91CF911F910895CF92DF92EF9219
:100B8000FF920F931F93CF93DF938C01E42EFF24EA
:100B9000F394C0E0D0E0C62EDD2460E08F2D90E01D
:100BA0008C219D21892B09F061E0C8010E948905F3
:100BB000FF0C2196C830D10581F7EE20A9F4F894F6
:100BC000D8011196ED91FC91129791818C918095AD
:100BD000982391831196ED91FC91129792818C91BB
:100BE0008095982392837894DF91CF911F910F91F4
:100BF000FF90EF90DF90CF900895EF92FF920F93C8
:100C00001F93CF93DF938C017B0165E540E00E9449
:100C1000BD05C0E0D0E0F701EC0FFD1FC801608109
:100C200040E00E94BD052196C830D105A1F7DF91B3
:100C3000CF911F910F91FF90EF900895DF92EF9267
:100C4000FF920F931F93CF93DF93FC010081C1812B
:100C5000D281F8948981D02ED0948D218983789483
:100C60001DE7E02EFF24115059F182E090E00E9430
:100C7000EA02888190E08E219F21892BA1F3F894CC
:100C80008A818D218A838981802B8983789484EF5E
:100C900091E00E94EA02F89489818D21898380E5A0
:100CA00090E00E94EA02888110E090E0E822F922B8
:100CB000EF2809F411E0789484EA91E00E94EA02B6
:100CC000812FDF91CF911F910F91FF90EF90DF90D7
:100CD0000895AF92BF92DF92EF92FF920F931F930E
:100CE000CF93DF93EC015B0189A1882309F061C0F8
:100CF000CE010E941E06882329F41F8E19A218A275
:100D000090E06BC0CE0160EF40E00E94BD0501E0C5
:100D1000DD24EE24FF24F394CE010E943805182F21
:100D2000CE010E943805113019F48130E1F439C048
:100D3000181709F58F8D081770F460E0FE01EE0DAD
:100D4000F11D878990E02F2D30E082239323181620
:100D500019064CF003C060E0081729F0093008F0CC
:100D60004CC008A34AC0FE01EE0DF11D87898F29F2
:100D7000878B61E009C0612FFE01EE0DF11D9F2DF3
:100D8000909587898923878BCE010E9489050F5F03
:100D9000FF0C19F4E394FF24F39487E08E1508F018
:100DA000BBCF013430F0DF8EDD2011F581E089A367
:100DB0001FC01F8E19A218A290E0DE0120E030E0D3
:100DC000F501E20FF31F57968C91579780832F5FA1
:100DD0003F4F11962830310599F7892FDF91CF9138
:100DE0001F910F91FF90EF90DF90BF90AF9008950B
:100DF0008F898823F1F291E0E0CFD02EBDCFEF9222
:100E0000FF920F931F93CF93DF93EC011F8E19A2D4
:100E100018A27C01FC0187E090E0168E31970097C4
:100E200011F00197FACF8E01015F1F4FCE01B8017B
:100E30000E946906882319F42FEF3FEF4DC0F80197
:100E400047E030E05CE80CC0208198E0822F8327E7
:100E5000369580FD3527915011F02695F7CF3196C4
:100E6000415090F78E89381719F02EEF3FEF34C0BC
:100E70008F85883219F02DEF3FEF2EC0CE010E94F2
:100E80001E06CE01B8010E94FD05CE0164E441E0DA
:100E90000E94BD0568EE73E080E090E00E94C00211
:100EA000CE010E941E06CE01B8010E94FD05CE01B2
:100EB0006EEB40E00E94BD058E01075F1F4FCE0123
:100EC0000E946C05F70183830894E11CF11CE01675
:100ED000F106A9F721E030E0C901DF91CF911F9120
:100EE0000F91FF90EF9008950F931F93CF93DF938F
:100EF0008C01EB0109C02196D801ED91FC91019084
:100F0000F081E02DC801099568816623A1F7DF9182
:100F1000CF911F910F910895EF92FF920F931F931E
:100F2000CF93DF938C017B01EA010CC0D7016D9157
:100F30007D01D801ED91FC910190F081E02DC80177
:100F400009952197209791F7DF91CF911F910F91EC
:100F5000FF90EF900895DC01ED91FC910280F38108
:100F6000E02D099508950F931F938C01DC01ED91FD
:100F7000FC910190F081E02D6DE00995D801ED9193
:100F8000FC910190F081E02DC8016AE009951F9164
:100F90000F9108952F923F924F925F926F927F929E
:100FA0008F929F92AF92BF92CF92DF92EF92FF9279
:100FB0000F931F93DF93CF93CDB7DEB7A0970FB6F4
:100FC000F894DEBF0FBECDBF1C016A017B01411545
:100FD00051056105710549F4DC01ED91FC91019029
:100FE000F081E02D60E3099554C0882499245401D0
:100FF000422E55246624772401E010E00C0F1D1FBB
:10100000080D191DC701B601A30192010E94DB085A
:10101000F80160830894811C911CA11CB11CC701BC
:10102000B601A30192010E94DB08C901DA016C013B
:101030007D01C114D104E104F104F1F681E0E82E50
:10104000F12CEC0EFD1EE80CF91C3E010894611C0D
:10105000711CD501C4010197A109B1096C01C8181F
:10106000D90814C0F601EE0DFF1D60816A3010F43E
:10107000605D01C0695CD101ED91FC910190F0814E
:10108000E02DC10109950894E108F1086E147F0470
:1010900049F7A0960FB6F894DEBF0FBECDBFCF9133
:1010A000DF911F910F91FF90EF90DF90CF90BF9055
:1010B000AF909F908F907F906F905F904F903F90F8
:1010C0002F900895EF92FF920F931F93CF93DF938A
:1010D000EC017A018B0177FF0FC0E881F981019063
:1010E000F081E02D6DE2099510950095F094E09463
:1010F000E11CF11C011D111DCE01B801A7012AE060
:101100000E94CA07DF91CF911F910F91FF90EF903E
:101110000895DC012115310541F4ED91FC91019018
:10112000F081E02D642F099508952A30310519F4D6
:101130000E94620808950E94CA0708950F931F93A2
:101140008C010E948908C8010E94B3071F910F916A
:101150000895629FD001739FF001829FE00DF11D01
:10116000649FE00DF11D929FF00D839FF00D749F21
:10117000F00D659FF00D9927729FB00DE11DF91FCD
:10118000639FB00DE11DF91FBD01CF01112408952A
:1011900097FB092E07260AD077FD04D02ED006D063
:1011A00000201AF4709561957F4F0895F6F7909599
:1011B00081959F4F0895A1E21A2EAA1BBB1BFD012A
:1011C0000DC0AA1FBB1FEE1FFF1FA217B307E40726
:1011D000F50720F0A21BB30BE40BF50B661F771F7E
:1011E000881F991F1A9469F760957095809590955E
:1011F0009B01AC01BD01CF010895AA1BBB1B51E1AE
:1012000007C0AA1FBB1FA617B70710F0A61BB70B76
:10121000881F991F5A95A9F780959095BC01CD011B
:101220000895EE0FFF1F0590F491E02D0994F894B6
:02123000FFCFEE
:101232002E2E2E2E002B002D002E002020202000EE
:0C124200300000000000600474078C07FE
:00000001FF
