:100000000C9462000C948A000C948A000C948A0070
:100010000C948A000C948A000C948A000C948A0038
:100020000C948A000C948A000C948A000C948A0028
:100030000C948A000C948A000C948A000C948A0018
:100040000C941F010C948A000C948A000C948A0072
:100050000C948A000C948A000C948A000C948A00F8
:100060000C948A000C948A000000000024002700F1
:100070002A0000000000250028002B0000000000DE
:1000800023002600290004040404040404040202DA
:100090000202020203030303030301020408102007
:1000A0004080010204081020010204081020000012
:1000B0000007000201000003040600000000000029
:1000C0000000E30011241FBECFEFD8E0DEBFCDBF9C
:1000D00011E0A0E0B1E0EAEDF7E002C005900D927A
:1000E000A030B107D9F711E0A0E0B1E001C01D9246
:1000F000A735B107E1F710E0C4ECD0E004C02297C7
:10010000FE010E94E703C23CD107C9F70E94F0003C
:100110000C94EB030C940000EF92FF920F931F934B
:10012000DF93CF9300D000D0CDB7DEB79A83898319
:100130007C836B8389819A8181309105C9F58B819C
:100140009C812FEF8F3F920799F580E091E060ED61
:1001500077E048E050E02AE030E009E010E00F2EC0
:10016000FBE0EF2EFF24F02D0E9446038AE191E090
:1001700060ED77E044E050E026E030E005E010E09C
:100180000F2EF7E0EF2EFF24F02D0E94460384E3AC
:1001900091E060ED77E040E050E022E030E001E007
:1001A00010E00F2EF3E0EF2EFF24F02D0E94460307
:1001B0000F900F900F900F90CF91DF911F910F91A3
:1001C000FF90EF900895DF93CF93CDB7DEB781E036
:1001D00090E06FEF7FEF0E948C00CF91DF91089548
:1001E000DF93CF93CDB7DEB70E949F0180E091E00F
:1001F0004AE050E060E070E00E9446028AE191E04F
:1002000044E050E060E070E00E94460284E391E048
:1002100046E050E060E070E00E9446028DE061E060
:100220000E94D90180E091E060E078E00E94E40261
:1002300068EE73E080E090E00E947501F3CF1F92BA
:100240000F920FB60F9211242F933F938F939F938A
:10025000AF93BF938091520190915301A0915401AB
:10026000B0915501309156010196A11DB11D232F6A
:100270002D5F2D3720F02D570196A11DB11D209324
:1002800056018093520190935301A0935401B0936F
:10029000550180914E0190914F01A0915001B09174
:1002A00051010196A11DB11D80934E0190934F0104
:1002B000A0935001B0935101BF91AF919F918F9145
:1002C0003F912F910F900FBE0F901F9018958FB7F1
:1002D000F894209152013091530140915401509172
:1002E00055018FBFB901CA010895EF92FF920F9394
:1002F0001F937B018C018FB7F8944091520150916C
:10030000530160915401709155018FBF2FB7F8943C
:100310008091520190915301A0915401B0915501E7
:100320002FBF841B950BA60BB70BE816F9060A071F
:100330001B0760F71F910F91FF90EF90089578943D
:1003400084B5826084BD84B5816084BD85B58260DA
:1003500085BD85B5816085BDEEE6F0E08081816078
:100360008083E1E8F0E08081826080838081816029
:100370008083E0E8F0E0808181608083E1EBF0E061
:10038000808184608083E0EBF0E080818160808305
:10039000EAE7F0E0808184608083808182608083EE
:1003A0008081816080838081806880831092C10019
:1003B0000895282F30E0C90186569F4FFC01949183
:1003C0002A573F4FF9018491882391F0E82FF0E0FC
:1003D000EE0FFF1FE859FF4FA591B491662329F452
:1003E0008C91909589238C9308958C91892B8C9373
:1003F0000895482F50E0CA0182559F4FFC01249177
:10040000CA0186569F4FFC0194914A575F4FFA01EB
:1004100034913323D1F1222331F1233021F480911F
:1004200080008F7705C0243031F4809180008F7D6B
:100430008093800018C0213019F484B58F7704C0F0
:10044000223021F484B58F7D84BD0DC0263021F487
:100450008091B0008F7705C0273029F48091B000DB
:100460008F7D8093B000E32FF0E0EE0FFF1FEE587A
:10047000FF4FA591B491662329F48C91909589231F
:100480008C9308958C91892B8C930895CF92DF9251
:10049000EF92FF920F931F936C017A018B01FC0185
:1004A00020853185442737FD4095542F60E67AEE4C
:1004B00080E090E00E949403CA01B901A80197016D
:1004C0000E949403F60124833583468357831F914A
:1004D0000F91FF90EF90DF90CF9008950F931F93AF
:1004E000CF93DF93EC018B018A859B85029731F5D1
:1004F0006130710589F06230710524F46115710570
:1005000041F01CC06230710571F063307105B1F4C7
:100510000DC08E8560E002C08E8561E00E94F90109
:10052000888961E009C08E8561E002C08E8560E047
:100530000E94F901888960E00E94F9018A859B8503
:100540000497E9F501301105A1F0023011051CF402
:10055000012B41F034C002301105D1F003301105F8
:1005600071F51DC08E8561E00E94F901888960E007
:1005700006C08E8560E00E94F901888961E00E94D2
:10058000F9018A8961E00E94F9018C8960E015C057
:100590008E8560E00E94F901888961E006C08E8541
:1005A00061E00E94F901888960E00E94F9018A896E
:1005B00060E00E94F9018C8961E00E94F901DF91FD
:1005C000CF911F910F9108950F931F93CF93DF93B6
:1005D000EC011616170624F481E090E099838883D5
:1005E00077FF02C0198218828B0177FF46C01095F1
:1005F00001951F4F42C00E9467012E893F89488D97
:10060000598D621B730B840B950B2C813D814E81A0
:100610005F81621773078407950768F30E9467017B
:100620006E8B7F8B888F998F888199812C853D85F2
:10063000019761F42F5F3F4F3D872C87888599850F
:100640002817390771F41D861C860BC0232B21F453
:10065000888599859D878C878C859D8501979D8749
:100660008C87015010408C859D8564E070E00E946D
:100670008103BC01CE010E946E020115110509F033
:10068000BACFDF91CF911F910F910895CF92DF9252
:10069000EF92FF920F931F936C01842FF601158642
:1006A00014861382128211821082168A178A108E83
:1006B000118E7187608746875787318B208B138B0C
:1006C000028BF58AE48A61E00E94D901F6018089F3
:1006D00061E00E94D901F601828961E00E94D9019E
:1006E000F601848961E00E94D90184E090E0F6017E
:1006F000938782871F910F91FF90EF90DF90CF90AB
:10070000089597FB092E07260AD077FD04D027D03D
:1007100006D000201AF4709561957F4F0895F6F782
:10072000909581959F4F089597FB092E05260ED031
:1007300057FD04D028D00AD0001C38F450954095BD
:10074000309521953F4F4F4F5F4F0895F6F79095A5
:100750008095709561957F4F8F4F9F4F0895AA1B8D
:10076000BB1B51E107C0AA1FBB1FA617B70710F09C
:10077000A61BB70B881F991F5A95A9F780959095CE
:10078000BC01CD010895A1E21A2EAA1BBB1BFD01DD
:100790000DC0AA1FBB1FEE1FFF1FA217B307E40760
:1007A000F50720F0A21BB30BE40BF50B661F771FB8
:1007B000881F991F1A9469F7609570958095909598
:1007C0009B01AC01BD01CF010895EE0FFF1F059005
:0A07D000F491E02D0994F894FFCF96
:00000001FF
