:100000000C9436000C945E000C945E000C945E0020
:100010000C945E000C945E000C945E000C945E00E8
:100020000C945E000C945E000C945E000C945E00D8
:100030000C945E000C945E000C945E000C945E00C8
:100040000C94BF000C945E000C946B010C945E0049
:100050000C945E000C945E000C945E000C945E00A8
:100060000C949E040C945E00AC02340411241FBE58
:10007000CFEFD8E0DEBFCDBF11E0A0E0B1E0E2ED10
:10008000FFE002C005900D92A231B107D9F711E04F
:10009000A2E1B1E001C01D92A13DB107E1F710E07E
:1000A000CCE6D0E004C02297FE010E94BB06C83611
:1000B000D107C9F70E94B4000C94E7070C94000024
:1000C000DF93CF9300D0CDB7DEB78AEB91E065E048
:1000D00070E046E050E00E94440414C08AEB91E0D6
:1000E0000E94210489838981282F332727FD309599
:1000F000432F532F8FE991E0BA01A9012AE030E0A4
:100100000E9406048AEB91E00E941B048A838A8184
:10011000882311F081E08A838A818823F9F68FE9A8
:1001200091E020E031E0B9010E943C0364E670E018
:1001300080E090E00E9407010F900F90CF91DF9137
:100140000895DF93CF93CDB7DEB78AEB91E00E949D
:1001500047048FE991E040E855E260E070E00E94DA
:10016000A801CF91DF910895DF93CF93CDB7DEB78C
:100170000E9431010E94A1000E946000FDCF1F92E9
:100180000F920FB60F9211242F933F938F939F934B
:10019000AF93BF938091160190911701A091180120
:1001A000B091190130911A010196A11DB11D232FA3
:1001B0002D5F2D3720F02D570196A11DB11D2093E5
:1001C0001A018093160190931701A0931801B09320
:1001D00019018091120190911301A0911401B09125
:1001E00015010196A11DB11D809312019093130179
:1001F000A0931401B0931501BF91AF919F918F917E
:100200003F912F910F900FBE0F901F901895EF9276
:10021000FF920F931F937B018C018FB7F89440914D
:1002200016015091170160911801709119018FBF4B
:100230002FB7F8948091160190911701A0911801A1
:10024000B09119012FBF841B950BA60BB70BE816B5
:10025000F9060A071B0760F71F910F91FF90EF90B7
:100260000895789484B5826084BD84B5816084BD2E
:1002700085B5826085BD85B5816085BDEEE6F0E01F
:10028000808181608083E1E8F0E08081826080830A
:10029000808181608083E0E8F0E0808181608083FC
:1002A000E1EBF0E0808184608083E0EBF0E080812E
:1002B00081608083EAE7F0E08081846080838081D0
:1002C0008260808380818160808380818068808378
:1002D0001092C10008951F920F920FB60F92112431
:1002E0002F933F934F935F936F937F938F939F933E
:1002F000AF93BF93EF93FF934091C600E0919B01B2
:10030000F0919C01CF01019660E870E00E947006B8
:100310009C0180919D0190919E012817390739F029
:10032000E55EFE4F408330939C0120939B01FF913B
:10033000EF91BF91AF919F918F917F916F915F915D
:100340004F913F912F910F900FBE0F901F901895D6
:100350005F926F927F928F929F92AF92BF92CF9255
:10036000DF92EF92FF920F931F93CF93DF93EC01F5
:100370005A016B0181E4A81682E4B8068FE0C80632
:1003800080E0D80608F077C060E874E88EE190E07D
:10039000A60195010E94830639014A01089461086B
:1003A0007108810891089694879477946794A401C2
:1003B00093012F5F3F4F4F4F5F4F74E0220F331F6A
:1003C000441F551F7A95D1F760E074E284EF90E006
:1003D0000E948306CA01B9012FEF30E040E050E0EF
:1003E0000E945106A60195010E9483068FEF90E0BE
:1003F000821B930B181619061CF4522E509402C03F
:10040000522E539460E079E08DE390E0A6019501CF
:100410000E948306215030404040504056954795F9
:10042000379527952F5F3F4F4F4F5F4F93E0220F38
:10043000331F441F551F9A95D1F760E074E284EF93
:1004400090E00E948306CA01B9012FEF30E040E03E
:1004500050E00E945106A60195010E9483068FEF8D
:1004600090E0821B930B1816190614F4209501C016
:100470002F5F2515F0F4E885F98581E090E00A8882
:1004800002C0880F991F0A94E2F7808360E079E048
:100490008DE390E0A60195010E9483062150304033
:1004A000404050405695479537952795822F232FEA
:1004B00005C0E885F9851082862D272DEC81FD8108
:1004C0002083EE81FF818083EA85FB85208141E0E6
:1004D00050E0CA010E8402C0880F991F0A94E2F707
:1004E000282B2083EA85FB852081CA010F8402C066
:1004F000880F991F0A94E2F7282B2083EA85FB8551
:100500008081088802C0440F551F0A94E2F7842BAB
:100510008083DF91CF911F910F91FF90EF90DF903B
:10052000CF90BF90AF909F908F907F906F905F9093
:100530000895FC01A085B18521898C9190E0022E5F
:1005400002C0959587950A94E2F780FFF6CF048460
:10055000F585E02D608308958CE091E09093A001F3
:1005600080939F018BE191E09093A2018093A10180
:1005700085EC90E09093A4018093A30184EC90E03B
:100580009093A6018093A50180EC90E09093A80140
:100590008093A70181EC90E09093AA018093A90138
:1005A00086EC90E09093AC018093AB0184E0809363
:1005B000AD0183E08093AE0187E08093AF0185E0D9
:1005C0008093B00181E08093B10108950F931F9350
:1005D000CF93DF938C01EB0109C02196D801ED91F7
:1005E000FC910190F081E02DC80109956881662396
:1005F000A1F7DF91CF911F910F910895EF92FF9294
:100600000F931F93CF93DF938C017B01EA010CC002
:10061000D7016D917D01D801ED91FC910190F081A0
:10062000E02DC80109952197209791F7DF91CF918F
:100630001F910F91FF90EF900895DC01ED91FC91D7
:100640000280F381E02D099508950F931F938C018B
:10065000DC01ED91FC910190F081E02D6DE00995B8
:10066000D801ED91FC910190F081E02DC8016AE084
:1006700009951F910F9108950F931F938C010E946C
:100680001D03C8010E9425031F910F9108952F9209
:100690003F924F925F926F927F928F929F92AF9212
:1006A000BF92CF92DF92EF92FF920F931F93DF934F
:1006B000CF93CDB7DEB7A0970FB6F894DEBF0FBECD
:1006C000CDBF1C016A017B01411551056105710512
:1006D00049F4DC01ED91FC910190F081E02D60E3A3
:1006E000099554C0882499245401422E5524662427
:1006F000772401E010E00C0F1D1F080D191DC70124
:10070000B601A30192010E948306F8016083089458
:10071000811C911CA11CB11CC701B601A30192014F
:100720000E948306C901DA016C017D01C114D10464
:10073000E104F104F1F681E0E82EF12CEC0EFD1E4F
:10074000E80CF91C3E010894611C711CD501C40120
:100750000197A109B1096C01C818D90814C0F601A4
:10076000EE0DFF1D60816A3010F4605D01C0695CB0
:10077000D101ED91FC910190F081E02DC10109952D
:100780000894E108F1086E147F0449F7A0960FB6AB
:10079000F894DEBF0FBECDBFCF91DF911F910F91B7
:1007A000FF90EF90DF90CF90BF90AF909F908F9091
:1007B0007F906F905F904F903F902F900895EF92B1
:1007C000FF920F931F93CF93DF93EC017A018B017C
:1007D00077FF0FC0E881F9810190F081E02D6DE293
:1007E000099510950095F094E094E11CF11C011D11
:1007F000111DCE01B801A7012AE00E944703DF9135
:10080000CF911F910F91FF90EF900895DC0121157A
:10081000310541F4ED91FC910190F081E02D642FC0
:10082000099508952A30310519F40E94DF030895CF
:100830000E94470308958091B5019091B401891BEE
:1008400008959091B4018091B501981710F080E05F
:100850000895E091B201F091B301E90FF11D80819B
:100860009F5F9093B40108950895862F6091B2011F
:100870007091B301413208F040E20E946604109288
:10088000B4018093B50108950E943504089580E273
:1008900090E061E070E00E94BF068093B201909307
:1008A000B3011092B4011092B50180E290E061E0D2
:1008B00070E00E94BF068093B6019093B70110923A
:1008C000B8011092B9010E9420060895982F413274
:1008D00010F040E031C08091BB018823E1F781E056
:1008E0008093BB018FEF8093CC011092C3014150E4
:1008F0004093C4014F5F990F91609093BC0185EEC6
:100900008093BC008091BB018130E1F38091C301F1
:10091000841710F44091C301A091C101B091C201AC
:1009200020E030E007C0FB01E20FF31F8D918083D0
:100930002F5F3F4F2417B8F3842F08951F920F9213
:100940000FB60F9211242F933F934F935F936F93A2
:100950007F938F939F93AF93BF93EF93FF93809178
:10096000B90090E0887F90708036910509F4E2C06C
:1009700081369105CCF58832910509F47BC0893226
:100980009105B4F48031910509F46FC0813191056E
:100990003CF4009709F438C1089709F040C165C0DC
:1009A0008831910509F466C0809709F038C17FC08D
:1009B0008034910509F4A3C08134910544F4803357
:1009C000910509F47FC0C89709F029C186C0803518
:1009D000910509F486C08835910509F495C08834DD
:1009E000910509F01CC19EC08839910509F404C124
:1009F00089399105ECF48837910509F49BC0893752
:100A000091054CF48836910509F494C0803791051E
:100A100009F005C18FC08838910509F4EDC080390F
:100A2000910509F48DC08038910509F0F8C088C09F
:100A3000803B910509F4B2C0813B91054CF4803AAA
:100A4000910509F491C0883A910509F0E8C0A6C063
:100A5000803C910509F4D4C0883C910509F4D0C0CC
:100A6000883B910509F0DBC0B1C08091BC01809347
:100A7000BB00C0C09091C3018091C401981778F465
:100A80009091C301E091C101F091C201E90FF11D04
:100A900080818093BB009F5F9093C301ABC085EDC5
:100AA0008093BC008091BC0084FDFCCFB6C080E286
:100AB0008093CC0185ED8093BC008091BC0084FDC7
:100AC000FCCFABC080E38093CC0185ED8093BC006C
:100AD0008091BC0084FDFCCFA0C088E38093CC0152
:100AE0008FC08091C3019091BB00E091C101F09152
:100AF000C201E80FF11D90838F5F8093C301909135
:100B0000C3018091C40174C08091C3019091BB0066
:100B1000E091C101F091C201E80FF11D90838F5F58
:100B20008093C30185ED8093BC008091BC0084FD5F
:100B3000FCCF73C083E08093BB011092CB015AC0FD
:100B40008091CB01803208F057C08091CB01909109
:100B5000BB00E091C901F091CA01E80FF11D90833B
:100B60008F5F8093CB0146C08091CB01803248F4E7
:100B70008091CB01E091C901F091CA01E80FF11D0C
:100B800010826091CB01E091BF01F091C001809192
:100B9000C9019091CA0170E0099532C084E0809348
:100BA000BB011092C7011092C801E091BD01F09104
:100BB000BE0109958091C801882341F481E08093AA
:100BC000C801E091C501F091C60110829091C70162
:100BD000E091C501F091C601E90FF11D808180937C
:100BE000BB009F5F9093C7019091C7018091C8019E
:100BF000981710F485EC01C085E88093BC000FC005
:100C000085EC8093BC0009C01092CC0185ED8093E7
:100C1000BC008091BC0084FDFCCF1092BB01FF9111
:100C2000EF91BF91AF919F918F917F916F915F9164
:100C30004F913F912F910F900FBE0F901F901895DD
:100C40001092BB01449A459AE9EBF0E080818E7FD7
:100C5000808380818D7F808388E48093B80085E4E1
:100C60008093BC0080E290E061E070E00E94BF06EB
:100C70008093C1019093C20180E290E061E070E056
:100C80000E94BF068093C5019093C60180E290E068
:100C900061E070E00E94BF068093C9019093CA0191
:100CA0000895629FD001739FF001829FE00DF11DB6
:100CB000649FE00DF11D929FF00D839FF00D749FD6
:100CC000F00D659FF00D9927729FB00DE11DF91F82
:100CD000639FB00DE11DF91FBD01CF0111240895DF
:100CE00097FB092E07260AD077FD04D02ED006D018
:100CF00000201AF4709561957F4F0895F6F790954E
:100D000081959F4F0895A1E21A2EAA1BBB1BFD01DE
:100D10000DC0AA1FBB1FEE1FFF1FA217B307E407DA
:100D2000F50720F0A21BB30BE40BF50B661F771F32
:100D3000881F991F1A9469F7609570958095909512
:100D40009B01AC01BD01CF010895AA1BBB1B51E162
:100D500007C0AA1FBB1FA617B70710F0A61BB70B2B
:100D6000881F991F5A95A9F780959095BC01CD01D0
:100D70000895EE0FFF1F0590F491E02D09940F9355
:100D80001F93CF93DF93689F8001699F100D789F19
:100D9000100D1124C8010E94DB06EC01009729F018
:100DA00060E070E0A8010E94E007CE01DF91CF91E2
:100DB0001F910F910895CF93DF93BC01823091056D
:100DC00010F462E070E0A091CF01B091D001ED018C
:100DD000E0E0F0E040E050E021C088819981861792
:100DE000970769F48A819B81309719F093838283F6
:100DF00004C09093D0018093CF01FE0134C06817E6
:100E0000790738F44115510519F08417950708F44E
:100E1000AC01FE018A819B819C01E9012097E9F6E2
:100E200041155105A9F1CA01861B970B049708F4D7
:100E3000BA01E0E0F0E02AC08D919C9111978417EF
:100E40009507F9F46417750781F412968D919C91BA
:100E50001397309719F09383828304C09093D00145
:100E60008093CF01FD0132964FC0CA01861B970BBC
:100E7000FD01E80FF91F6193719302978D939C9385
:100E800043C0FD01828193819C01D9011097A1F695
:100E90008091CD019091CE01892B41F48091040184
:100EA000909105019093CE018093CD014091060170
:100EB000509107014115510541F44DB75EB780913E
:100EC000020190910301481B590B2091CD013091F3
:100ED000CE0124173507B0F4CA01821B930B861785
:100EE000970780F0AB014E5F5F4F8417950750F076
:100EF000420F531F5093CE014093CD01F9016193EE
:100F0000719302C0E0E0F0E0CF01DF91CF9108954E
:100F1000CF93DF93009709F450C0EC0122971B8216
:100F20001A82A091CF01B091D001109709F140E051
:100F300050E0AC17BD0708F1BB83AA83FE012191E5
:100F40003191E20FF31FAE17BF0779F48D919C9199
:100F50001197280F391F2E5F3F4F39832883129630
:100F60008D919C9113979B838A834115510571F450
:100F7000D093D001C093CF0120C012968D919C9147
:100F80001397AD01009711F0DC01D3CFFA01D383A1
:100F9000C28321913191E20FF31FCE17DF0769F46D
:100FA00088819981280F391F2E5F3F4FFA013183C5
:100FB00020838A819B8193838283DF91CF910895DF
:100FC000DC0101C06D9341505040E0F70895F89462
:020FD000FFCF51
:100FD2002D002000D1010000000000009902E6026D
:020FE200FE020D
:00000001FF
