:100000000C9435000C945D000C945D000C945D0024
:100010000C945D000C945D000C945D000C945D00EC
:100020000C945D000C945D000C945D000C945D00DC
:100030000C945D000C945D000C945D000C945D00CC
:100040000C94B0000C945D000C9433010C945D0092
:100050000C945D000C945D000C945D000C945D00AC
:100060000C94BD030C945D002B0211241FBECFEF36
:10007000D8E0DEBFCDBF11E0A0E0B1E0E4E8FDE0F4
:1000800002C005900D92A831B107D9F711E0A8E19F
:10009000B1E001C01D92A03DB107E1F710E0CAE652
:1000A000D0E004C02297FE010E949405C836D10713
:1000B000C9F70E947A000C94C0060C940000DF93EC
:1000C000CF93CDB7DEB727970FB6F894DEBF0FBE3C
:1000D000CDBF89836A835C834B832D838981282FDD
:1000E00030E027960FB6F894DEBF0FBECDBFCF919C
:1000F000DF910895DF93CF93CDB7DEB72A970FB680
:10010000F894DEBF0FBECDBF0E94F80085EA91E0F3
:1001100040E855E260E070E00E946401CE01019683
:100120000E94C202CE01059661E00E942303CE0127
:10013000019661E041E021E00E949502CE01059622
:100140002FE530E0B9010E94D40280E090E02A96C9
:100150000FB6F894DEBF0FBECDBFCF91DF910895EB
:100160001F920F920FB60F9211242F933F938F93EC
:100170009F93AF93BF9380911C0190911D01A0911B
:100180001E01B0911F01309120010196A11DB11DEA
:10019000232F2D5F2D3720F02D570196A11DB11D66
:1001A0002093200180931C0190931D01A0931E01B8
:1001B000B0931F018091180190911901A0911A012B
:1001C000B0911B010196A11DB11D80931801909360
:1001D0001901A0931A01B0931B01BF91AF919F9198
:1001E0008F913F912F910F900FBE0F901F901895F8
:1001F000789484B5826084BD84B5816084BD85B502
:10020000826085BD85B5816085BDEEE6F0E08081C8
:1002100081608083E1E8F0E01082808182608083E9
:10022000808181608083E0E8F0E08081816080836C
:10023000E1EBF0E0808184608083E0EBF0E080819E
:1002400081608083EAE7F0E0808184608083808140
:1002500082608083808181608083808180688083E8
:100260001092C10008951F920F920FB60F921124A1
:100270002F933F934F938F939F93EF93FF934091CF
:10028000C600E091A101F091A20131969F012F7764
:10029000307031978091A3019091A40128173907FC
:1002A00039F0EF5DFE4F40833093A2012093A1010E
:1002B000FF91EF919F918F914F913F912F910F90CF
:1002C0000FBE0F901F901895CF93DF93EC019A010A
:1002D000AB01E885F985203081EE380780E04807DA
:1002E00080E0580709F445C081E090E00A8802C028
:1002F000880F991F0A94E2F7808360E079E08DE32C
:1003000090E00E947005215030404040504056958A
:10031000479537952795EC81FD813083EE81FF81EC
:100320002083EA85FB85208141E050E0CA010E84EC
:1003300002C0880F991F0A94E2F7282B2083EA85D0
:10034000FB852081CA010F8402C0880F991F0A947F
:10035000E2F7282B2083EA85FB858081088802C08C
:10036000440F551F0A94E2F7842B8083DF91CF91CD
:100370000895108220E130E0CECFDC011296ED919D
:10038000FC911397E058FF4F219131918081918129
:10039000281B390B2F773070C9010895DC011296A4
:1003A000ED91FC911397EE57FF4F2081318192918F
:1003B0008291E058F0408217930719F42FEF3FEF36
:1003C00005C0E20FF31F8081282F30E0C901089596
:1003D000DC011296ED91FC911397DF01AE57BF4FF0
:1003E0002D913C911197E058FF4F80819181E05809
:1003F000F0408217930719F42FEF3FEF0BC0E20F85
:10040000F31F80812F5F3F4F2F7730702D933C93E8
:10041000282F30E0C9010895DC011296ED91FC917E
:100420001397EE57FF4F80819181929382930895A5
:10043000FC01A085B18521898C9190E0022E02C03B
:10044000959587950A94E2F780FFF6CF0484F585A9
:10045000E02D608308958AE091E09093A601809357
:10046000A50181E291E09093A8018093A70185EC1A
:1004700090E09093AA018093A90184EC90E090937E
:10048000AC018093AB0180EC90E09093AE0180933F
:10049000AD0181EC90E09093B0018093AF0186ECC8
:1004A00090E09093B2018093B10184E08093B30116
:1004B00083E08093B40187E08093B50185E0809369
:1004C000B60181E08093B7010895EF920F931F93D7
:1004D000CF93DF93EC01362F942F4E2D60E070E028
:1004E0000AC0A60FB71FF801E60FF71F8081149608
:1004F0008C936F5F7F4FA881B981641790F39C93B1
:10050000E881F9812183E881F981428368817981D9
:100510004C5F832F21E00E946E031A821B82DF91C1
:10052000CF911F910F91EF900895EF92FF920F934B
:100530001F93CF93DF93EC01F62E8B8181111A82EA
:10054000E881F9814083E881F9812183E881F9819B
:100550008A81828308811981CE016F2DEA800E94F1
:100560006502688179814A814C5F8F2D21E00E946C
:100570006E031A821B82DF91CF911F910F91FF9022
:10058000EF9008950F931F938C0184E290E061E057
:1005900070E00E949805F801808391830E943F05D6
:1005A0001F910F91089508957093B9016093B80158
:1005B0000895DF92EF92FF920F931F93CF93DF93F3
:1005C000EC018091B8019091B901892BA1F16330C0
:1005D00071058CF10881D980EA80862F90E0801B1C
:1005E0009109039741F5802F90E061E070E00E944F
:1005F0009805192F282F392FF82EDE0140E050E002
:1006000009C0F901E40FF51F12968C9112978083AF
:100610004F5F5F4F11964017A0F3E091B801F09142
:10062000B9018D2D6E2D4F2D512F202F09958F2D16
:10063000912F0E946106DF91CF911F910F91FF9042
:10064000EF90DF900895FC01862F10820E946A03CC
:1006500089ED92E00E94B30383ED92E00E94B8031B
:100660000E943F0508950F931F93CF93DF938C0152
:10067000EB0109C02196D801ED91FC910190F08128
:10068000E02DC801099568816623A1F7DF91CF911C
:100690001F910F910895EF92FF920F931F93CF93A5
:1006A000DF938C017B01EA010CC0D7016D917D01C4
:1006B000D801ED91FC910190F081E02DC8010995E0
:1006C0002197209791F7DF91CF911F910F91FF9084
:1006D000EF900895880F8093BA0008951F93582FC4
:1006E000122F413210F081E03CC08091BA01882382
:1006F000E1F782E08093BA018FEF8093CB011092F3
:10070000C2014093C301A091C001B091C101FB019E
:1007100002C081918D938E2F861B8417D0F3852F75
:1007200090E0880F991F8093BB0185EE8093BC00F9
:10073000112321F08091BA018230E1F38091CB0145
:100740008F3F11F480E00DC08091CB01803211F415
:1007500082E007C08091CB01803311F084E001C0BA
:1007600083E01F9108959093BF018093BE01089587
:100770009093BD018093BC0108951F920F920FB614
:100780000F9211242F933F934F935F936F937F9317
:100790008F939F93AF93BF93EF93FF938091B90093
:1007A00090E0887F90708036910509F4E2C0813630
:1007B0009105CCF58832910509F47BC08932910509
:1007C000B4F48031910509F46FC0813191053CF496
:1007D000009709F438C1089709F040C165C0883115
:1007E000910509F466C0809709F038C17FC0803454
:1007F000910509F4A3C08134910544F48033910537
:1008000009F47FC0C89709F029C186C080359105D9
:1008100009F486C08835910509F495C0883491059E
:1008200009F01CC19EC08839910509F404C18939B9
:100830009105ECF48837910509F49BC0893791053F
:100840004CF48836910509F494C08037910509F07D
:1008500005C18FC08838910509F4EDC08039910534
:1008600009F48DC08038910509F0F8C088C0803B3C
:10087000910509F4B2C0813B91054CF4803A910591
:1008800009F491C0883A910509F0E8C0A6C0803CFF
:10089000910509F4D4C0883C910509F4D0C0883B87
:1008A000910509F0DBC0B1C08091BB018093BB0012
:1008B000C0C09091C2018091C301981778F49091C3
:1008C000C201E091C001F091C101E90FF11D8081E9
:1008D0008093BB009F5F9093C201ABC085ED809376
:1008E000BC008091BC0084FDFCCFB6C080E2809348
:1008F000CB0185ED8093BC008091BC0084FDFCCFD2
:10090000ABC080E38093CB0185ED8093BC008091E8
:10091000BC0084FDFCCFA0C088E38093CB018FC0D6
:100920008091C2019091BB00E091C001F091C101A2
:10093000E80FF11D90838F5F8093C2019091C201F7
:100940008091C30174C08091C2019091BB00E0917D
:10095000C001F091C101E80FF11D90838F5F80937A
:10096000C20185ED8093BC008091BC0084FDFCCF6A
:1009700073C083E08093BA011092CA015AC080917B
:10098000CA01803208F057C08091CA019091BB0023
:10099000E091C801F091C901E80FF11D90838F5FCC
:1009A0008093CA0146C08091CA01803248F4809188
:1009B000CA01E091C801F091C901E80FF11D108250
:1009C0006091CA01E091BE01F091BF018091C80120
:1009D0009091C90170E0099532C084E08093BA011A
:1009E0001092C6011092C701E091BC01F091BD01C7
:1009F00009958091C701882341F481E08093C70164
:100A0000E091C401F091C50110829091C601E0917E
:100A1000C401F091C501E90FF11D80818093BB00F5
:100A20009F5F9093C6019091C6018091C70198176E
:100A300010F485EC01C085E88093BC000FC085EC04
:100A40008093BC0009C01092CB0185ED8093BC005F
:100A50008091BC0084FDFCCF1092BA01FF91EF9110
:100A6000BF91AF919F918F917F916F915F914F91C6
:100A70003F912F910F900FBE0F901F9018951092DD
:100A8000BA01449A459AE9EBF0E080818E7F808339
:100A900080818D7F808388E48093B80085E4809393
:100AA000BC0080E290E061E070E00E9498058093D5
:100AB000C0019093C10180E290E061E070E00E948B
:100AC00098058093C4019093C50180E290E061E0B5
:100AD00070E00E9498058093C8019093C901089521
:100AE000A1E21A2EAA1BBB1BFD010DC0AA1FBB1F32
:100AF000EE1FFF1FA217B307E407F50720F0A21BA4
:100B0000B30BE40BF50B661F771F881F991F1A9410
:100B100069F760957095809590959B01AC01BD013A
:100B2000CF010895EE0FFF1F0590F491E02D099479
:100B30000F931F93CF93DF93689F8001699F100DE0
:100B4000789F100D1124C8010E94B405EC01009794
:100B500029F060E070E0A8010E94B906CE01DF91A3
:100B6000CF911F910F910895CF93DF93BC018230F5
:100B7000910510F462E070E0A091CE01B091CF0138
:100B8000ED01E0E0F0E040E050E021C08881998193
:100B90008617970769F48A819B81309719F09383B0
:100BA000828304C09093CF018093CE01FE0134C0B4
:100BB0006817790738F44115510519F0841795071E
:100BC00008F4AC01FE018A819B819C01E901209718
:100BD000E9F641155105A9F1CA01861B970B049747
:100BE00008F4BA01E0E0F0E02AC08D919C911197E1
:100BF00084179507F9F46417750781F412968D919F
:100C00009C911397309719F09383828304C090933B
:100C1000CF018093CE01FD0132964FC0CA01861BE1
:100C2000970BFD01E80FF91F6193719302978D9364
:100C30009C9343C0FD01828193819C01D90110974F
:100C4000A1F68091CC019091CD01892B41F4809146
:100C50000201909103019093CD018093CC014091CA
:100C60000401509105014115510541F44DB75EB79E
:100C70008091000190910101481B590B2091CC01FA
:100C80003091CD0124173507B0F4CA01821B930BB4
:100C90008617970780F0AB014E5F5F4F841795076B
:100CA00050F0420F531F5093CD014093CC01F901F6
:100CB0006193719302C0E0E0F0E0CF01DF91CF914A
:100CC0000895CF93DF93009709F450C0EC01229769
:100CD0001B821A82A091CE01B091CF01109709F129
:100CE00040E050E0AC17BD0708F1BB83AA83FE01CA
:100CF00021913191E20FF31FAE17BF0779F48D9167
:100D00009C911197280F391F2E5F3F4F39832883FD
:100D100012968D919C9113979B838A83411551055F
:100D200071F4D093CF01C093CE0120C012968D9163
:100D30009C911397AD01009711F0DC01D3CFFA011C
:100D4000D383C28321913191E20FF31FCE17DF07C6
:100D500069F488819981280F391F2E5F3F4FFA016E
:100D6000318320838A819B8193838283DF91CF911A
:100D70000895DC0101C06D9341505040E0F70895A3
:040D8000F894FFCF15
:100D84002000D001000000000000180233034B03D0
:080D9400BD01E801CE010C02D3
:00000001FF
