:1000000040C064C063C062C061C060C05FC05EC009
:100010005DC082C15BC05AC059C058C057C056C0ED
:1000200055C097C553C000000000370034003100B0
:1000300000000000380035003200000000003600EB
:100040003300300004040404040404040202020225
:10005000020203030303030301020408102040808B
:100060000102040810200102040810200000000012
:100070000000000000030405000000000000000074
:100080009C0011241FBECFE5D4E0DEBFCDBF10E041
:10009000A0E6B0E0E2EEF1E102C005900D92A83AD0
:1000A000B107D9F710E0A8EAB0E001C01D92A23E66
:1000B000B107E1F710E0C2E8D0E003C02297FE01EB
:1000C00064D7C038D107D1F743D089C899CFCF9230
:1000D000EF920F93DF93CF9300D000D0CDB7DEB770
:1000E0009A8389837C836B8389819A81813091058E
:1000F000C9F48B819C812FEF8F3F920799F488EA96
:1001000090E06AE049E028E007E00F2EF6E0EF2EED
:10011000F02D0F2EF5E0CF2EF02DACD38BEB90E031
:1001200065E01CD20F900F900F900F90CF91DF9150
:100130000F91EF90CF900895DF93CF93CDB7DEB7B7
:1001400081E090E06FEF7FEFC2DFCF91DF91089504
:10015000DF93CF93CDB7DEB798D188EA90E062E025
:1001600040E120E0EDD288EA90E060E040E0B4D2E7
:1001700088EA90E020E630E0B901E7D368EE73E06A
:1001800080E090E01DD188EA90E060E041E0A4D2F8
:1001900088EA90E02DE630E0B901D7D38BEB90E010
:1001A00025ED30E0B90192D1FFCFDF93CF93CDB7EA
:1001B000DEB728970FB6F894DEBF0FBECDBF8A8397
:1001C0006B835D834C832E8388EA90E0B3D268EE24
:1001D00073E080E090E0F4D088EA90E060E040E0F6
:1001E0007BD288EA90E02AE730E0B901AED38A8179
:1001F000282F30E088EA90E0B9014AE050E077D457
:1002000064EF71E080E090E0DBD088EA90E060E0AD
:1002100041E062D288EA90E021E830E0B90195D36C
:100220008B81282F30E088EA90E0B9014AE050E065
:100230005ED464EF71E080E090E0C2D08A81882FC4
:1002400090E08130910509F05EC08B81282F30E06D
:1002500038872F838F8198858230910599F12F817E
:1002600038852330310551F08F8198858130910593
:1002700009F049C088EA90E05DD245C088EA90E084
:1002800059D288EA90E060E040E026D288EA90E027
:1002900020E630E0B90159D368EE73E080E090E0E9
:1002A0008FD088EA90E060E041E016D288EA90E0E2
:1002B00027E830E0B90149D364E670E080E090E0DF
:1002C0007FD021C088EA90E035D288EA90E060E0F3
:1002D00040E002D2198213C08981282F30E08C813E
:1002E0009D81FC01E20FF31F8081282F88EA90E0B6
:1002F000622F40E050E00DD489818F5F898399811E
:100300008E81981748F328960FB6F894DEBF0FBE7B
:10031000CDBFCF91DF9108951F920F920FB60F922C
:1003200011242F933F934F935F936F937F938F93FA
:100330009F93AF93BF932091C5003091C600409129
:10034000C7005091C8007091C900DA01C901029636
:10035000A11DB11D672F6A5F6D3730F06D57DA014F
:10036000C9010396A11DB11D6093C9008093C5000A
:100370009093C600A093C700B093C8008091C100BD
:100380009091C200A091C300B091C4000196A11D3C
:10039000B11D8093C1009093C200A093C300B0939D
:1003A000C400BF91AF919F918F917F916F915F91A9
:1003B0004F913F912F910F900FBE0F901F90189566
:1003C0009B01AC017FB7F8948091C1009091C2006D
:1003D000A091C300B091C40062B708B600FE05C08A
:1003E0006F3F19F00196A11DB11D7FBFBA2FA92F34
:1003F000982F8827860F911DA11DB11D63E0880FDE
:10040000991FAA1FBB1F6A95D1F7BC012EC0FFB769
:10041000F8948091C1009091C200A091C300B09166
:10042000C400E2B708B600FE05C0EF3F19F0019620
:10043000A11DB11DFFBFBA2FA92F982F88278E0F9E
:10044000911DA11DB11DE3E0880F991FAA1FBB1FBD
:10045000EA95D1F7861B970B885E9340C0F2215036
:1004600030404040504068517C4F211531054105D6
:10047000510569F60895019739F0019729F0880F21
:10048000991F01970197F1F70895789483B78260D7
:1004900083BF83B7816083BF89B7816089BF1EBC7A
:1004A0008EB582608EBD8EB581608EBD8FB5816048
:1004B0008FBD85B5846085BD85B5806485BD329A64
:1004C000319A309A379A1AB8089508957093CB00EC
:1004D0006093CA000895CF92DF92EF92FF920F933C
:1004E0001F93CF93DF937C018B018091CA00909181
:1004F000CB00892B51F1633071053CF1F701C080CD
:10050000D180CB0161E070E044D5EC0190E009C0FE
:10051000FE01EA0FFB1FAE0DBF1D14968C91808368
:100520009F5FA92FB0E0A017B10794F3FFEFDF168C
:1005300051F0202F2450E091CA00F091CB008C2D77
:100540006D2DAE010995CE01EBD5DF91CF911F91B5
:100550000F91FF90EF90DF90CF900895FC01862FD0
:100560001082EAD28BE692E0EAD285E692E0ECD203
:100570005FD408950F931F938C01FC01848160E088
:10058000A3D481E090E077DFF801848161E09CD41E
:1005900081E090E070DFF801848160E095D484E62A
:1005A00090E069DF1F910F910895CF92DF92EF9253
:1005B000FF920F931F93CF93DF93D82EC92E282F2E
:1005C000392FC9018C01C0E0D0E0E62EFF24F801EC
:1005D000858161E053D4B7010C2E02C075956795F3
:1005E0000A94E2F76170F80185816ED421960F5F5D
:1005F0001F4FC830D10559F78D2D9C2DBBDFDF91E2
:10060000CF911F910F91FF90EF90DF90CF900895C1
:10061000CF92DF92EF92FF920F931F93CF93DF93CE
:10062000D82EC92E282F392FC9018C01C0E0D0E067
:10063000E62EFF24F801858161E020D4B7010C2E5D
:1006400002C0759567950A94E2F76170F80185819B
:100650003BD421960F5F1F4FC430D10559F78D2D24
:100660009C2D88DFDF91CF911F910F91FF90EF902C
:10067000DF90CF9008951F93CF93DF93EC01162F57
:100680008A81642F21D48B8160E01ED48D8584FF04
:1006900004C0CE01612F89DF0CC0612F70E084E0BF
:1006A000759567958A95E1F7CE01B2DFCE01612F8E
:1006B000AFDFDF91CF911F91089541E0DCDF089516
:1006C00040E0D9DF0895FC016685862F8460868727
:1006D0006C60CF01F5DF0895DF93CF93CDB7DEB720
:1006E00028970FB6F894DEBF0FBECDBF9C01FE0168
:1006F0003196A0EAB0E088E00D9001928150E1F7D8
:10070000F9018189841710F4482F4150E42FF0E05B
:10071000EE0FFF1FEC0FFD1F8181680F6068C9019C
:10072000CFDF28960FB6F894DEBF0FBECDBFCF91B6
:10073000DF91089561E0C4DF80ED97E09CDE0895CD
:10074000CF93DF93EC01423018F08D8588608D8760
:10075000498B1A8A222329F0413019F48D8584604F
:100760008D8780E593EC87DE8A8160E0ADD38C8154
:1007700060E0AAD38B8160E0A7D36D8564FD16C0CD
:10078000CE0163E045DF84E991E175DECE0163E0EF
:100790003FDF84E991E16FDECE0163E039DF86E976
:1007A00090E069DECE0162E033DF11C06062CE010D
:1007B00087DF84E991E15FDE6D856062CE0180DFD5
:1007C00086E990E058DE6D856062CE0179DF6D8547
:1007D0006062CE0175DF84E08E87CE0174DFCE01CA
:1007E000A9DF82E08F87CE0166E06ADFDF91CF91DB
:1007F00008956F927F928F92AF92CF92EF920F9364
:100800001F93DF93CF93CDB7DEB73C01162F842F14
:10081000F301428323830483E582C682A782808614
:100820009D8591879E8592879F85938798899487D8
:1008300061E024D3F301838161E020D3F30184815B
:1008400061E01CD3112319F0F301158603C080E188
:10085000F3018587C30160E141E020E071DFCF91C2
:10086000DF911F910F91EF90CF90AF908F907F907D
:100870006F9008958F92AF92CF92EF920F931F9344
:10088000CF93DF93DC01362F542F722F102FAE2C15
:100890008C2C8AE990E011969C938E9300D000D026
:1008A000EDB7FEB73196CDB7DEB71982118212824D
:1008B0001382CD0161E0432F2FEF052FE72EC12ECC
:1008C00098DF0F900F900F900F90DF91CF911F91B5
:1008D0000F91EF90CF90AF908F9008950F931F934B
:1008E000CF93DF938C01EB0109C02196D801ED91E4
:1008F000FC910190F081E02DC80109956881662383
:10090000A1F7DF91CF911F910F910895EF92FF9280
:100910000F931F93CF93DF938C017B01EA010CC0EF
:10092000D7016D917D01D801ED91FC910190F0818D
:10093000E02DC80109952197209791F7DF91CF917C
:100940001F910F91FF90EF900895DC01ED91FC91C4
:100950000280F381E02D099508952F923F924F92E6
:100960005F926F927F928F929F92AF92BF92CF923F
:10097000DF92EF92FF920F931F93DF93CF93CDB748
:10098000DEB7A0970FB6F894DEBF0FBECDBF1C0137
:100990006A017B01411551056105710541F440E390
:1009A00050E060E070E020E030E06DD053C088247B
:1009B00099245401422E55246624772401E010E046
:1009C0000C0F1D1F080D191DC701B601A3019201CF
:1009D000B8D2F80160830894811C911CA11CB11C41
:1009E000C701B601A3019201ACD2C901DA016C01C1
:1009F0007D01C114D104E104F10401F781E0E82E86
:100A0000F12CEC0EFD1EE80CF91C3E010894611C53
:100A1000711CD501C4010197A109B1096C01C81865
:100A2000D90815C0F601EE0DFF1D40814A3010F4C3
:100A3000405D01C0495C552747FD5095652F752FD6
:100A4000C10120E030E01FD00894E108F1086E14E5
:100A50007F0441F7A0960FB6F894DEBF0FBECDBF5E
:100A6000CF91DF911F910F91FF90EF90DF90CF908A
:100A7000BF90AF909F908F907F906F905F904F90BE
:100A80003F902F900895EF92FF920F931F93CF9373
:100A9000DF93EC017A018B012115310541F4E881E6
:100AA000F9810190F081E02D642F099519C02A3059
:100AB0003105A9F477FF0FC04DE250E060E070E02F
:100AC00020E030E0E0DF10950095F094E094E11C28
:100AD000F11C011D111DCE01B801A7012AE03DDF67
:100AE000DF91CF911F910F91FF90EF900895EF92BA
:100AF000FF920F931F937B019A010027F7FC00954B
:100B0000102FB801A701BFDF1F910F91FF90EF9049
:100B10000895EF92FF920F931F93E62E9A01FF2400
:100B2000E7FCF0940F2D1F2DB801A701ACDF1F913A
:100B30000F91FF90EF900895880F82B908959093D8
:100B4000D1008093D00008959093CF008093CE0081
:100B500008951F920F920FB60F9211242F933F9377
:100B60004F935F936F937F938F939F93AF93BF93B5
:100B7000EF93FF9381B190E0887F9070803691056C
:100B800009F4D6C081369105CCF58832910509F477
:100B90007AC089329105B4F48031910509F46FC0AF
:100BA000813191053CF4009709F428C1089709F0B8
:100BB0002EC165C08831910509F465C0809709F0A0
:100BC00026C17BC08034910509F49AC08134910517
:100BD00044F48033910509F479C0C89709F017C12E
:100BE0007EC08035910509F47EC08835910509F4F1
:100BF0008CC08834910509F00AC194C088399105E8
:100C000009F4F6C089399105ECF48837910509F4A7
:100C10008FC0893791054CF48836910509F488C056
:100C20008037910509F0F3C083C08838910509F435
:100C3000DFC08039910509F481C08038910509F041
:100C4000E6C07CC0803B910509F4A5C0813B9105BD
:100C50004CF4803A910509F484C0883A910509F072
:100C6000D6C099C0803C910509F4C5C0883C910567
:100C700009F4C1C0883B910509F0C9C0A4C08091A6
:100C8000CD0083B9B3C09091D4008091D50098175E
:100C900070F49091D400E091D200F091D300E90F6C
:100CA000F11D808183B99F5F9093D4009FC085ED33
:100CB00086BF06B604FCFDCFA8C080E28093DD00AD
:100CC00085ED86BF06B604FCFDCF9FC080E3809310
:100CD000DD0085ED86BF06B604FCFDCF96C088E337
:100CE0008093DD0088C08091D40093B1E091D20060
:100CF000F091D300E80FF11D90838F5F8093D400B3
:100D00009091D4008091D5006FC08091D40093B1B0
:100D1000E091D200F091D300E80FF11D90838F5F36
:100D20008093D40085ED86BF06B604FCFDCF6DC070
:100D300083E08093CC001092DC0058C08091DC00EE
:100D4000803208F055C08091DC0093B1E091DA0068
:100D5000F091DB00E80FF11D90838F5F8093DC0042
:100D600045C08091DC00803248F48091DC00E09145
:100D7000DA00F091DB00E80FF11D10826091DC00D9
:100D8000E091D000F091D1008091DA009091DB00E9
:100D900070E0099530C084E08093CC001092D800B8
:100DA0001092D900E091CE00F091CF00099580918A
:100DB000D900882341F481E08093D900E091D600E6
:100DC000F091D70010829091D800E091D600F09178
:100DD000D700E90FF11D808183B99F5F9093D80000
:100DE0009091D8008091D900981710F485EC01C03B
:100DF00085E886BF0CC085EC86BF07C01092DD0079
:100E000085ED86BF06B604FCFDCF1092CC00FF91A5
:100E1000EF91BF91AF919F918F917F916F915F9172
:100E20004F913F912F910F900FBE0F901F901895EB
:100E30001092CC00AC9AAD9A0898099888E480B9D1
:100E400085E486BF80E290E061E070E0A2D080930C
:100E5000D2009093D30080E290E061E070E099D0FE
:100E60008093D6009093D70080E290E061E070E03C
:100E700090D08093DA009093DB000895482F50E0E3
:100E8000CA01885A9F4FFC0124914C5B5F4FFA01C5
:100E900084918823C1F0E82FF0E0EE0FFF1FEA5D98
:100EA000FF4FA591B491662341F49FB7F8948C91BC
:100EB000209582238C939FBF08959FB7F8948C91BF
:100EC000822B8C939FBF0895482F50E0CA0184590C
:100ED0009F4FFC012491CA01885A9F4FFC01349115
:100EE0004C5B5F4FFA019491992351F1222381F0D9
:100EF000243039F0253049F0233051F48FB58F7705
:100F000002C08FB58F7D8FBD03C085B58F7D85BD38
:100F1000E92FF0E0EE0FFF1FE05DFF4FA591B491C8
:100F2000662341F49FB7F8948C91309583238C937A
:100F30009FBF08959FB7F8948C91832B8C939FBF8C
:100F40000895A1E21A2EAA1BBB1BFD010DC0AA1F0A
:100F5000BB1FEE1FFF1FA217B307E407F50720F022
:100F6000A21BB30BE40BF50B661F771F881F991F9D
:100F70001A9469F760957095809590959B01AC01E6
:100F8000BD01CF010895EE0FFF1F0590F491E02DF4
:100F900009940F931F93CF93DF93689F8001699FFC
:100FA000100D789F100D1124C8010DD0EC01009791
:100FB00021F060E070E0A8010BD1CE01DF91CF916C
:100FC0001F910F910895CF93DF93BC01823091055B
:100FD00010F462E070E0A091E000B091E100ED015A
:100FE000E0E0F0E040E050E021C088819981861780
:100FF000970769F48A819B81309719F093838283E4
:1010000004C09093E1008093E000FE0134C06817B3
:10101000790738F44115510519F08417950708F43C
:10102000AC01FE018A819B819C01E9012097E9F6D0
:1010300041155105A9F1CA01861B970B049708F4C5
:10104000BA01E0E0F0E02AC08D919C9111978417DD
:101050009507F9F46417750781F412968D919C91A8
:101060001397309719F09383828304C09093E10023
:101070008093E000FD0132964FC0CA01861B970B9A
:10108000FD01E80FF91F6193719302978D939C9373
:1010900043C0FD01828193819C01D9011097A1F683
:1010A0008091DE009091DF00892B41F480919200C5
:1010B000909193009093DF008093DE004091940024
:1010C000509195004115510541F44DB75EB780919F
:1010D000900090919100481B590B2091DE003091B7
:1010E000DF0024173507B0F4CA01821B930B861763
:1010F000970780F0AB014E5F5F4F8417950750F064
:10110000420F531F5093DF004093DE00F9016193BB
:10111000719302C0E0E0F0E0CF01DF91CF9108953C
:10112000CF93DF93009709F450C0EC0122971B8204
:101130001A82A091E000B091E100109709F140E01F
:1011400050E0AC17BD0708F1BB83AA83FE012191D3
:101150003191E20FF31FAE17BF0779F48D919C9187
:101160001197280F391F2E5F3F4F3983288312961E
:101170008D919C9113979B838A834115510571F43E
:10118000D093E100C093E00020C012968D919C9115
:101190001397AD01009711F0DC01D3CFFA01D3838F
:1011A000C28321913191E20FF31FCE17DF0769F45B
:1011B00088819981280F391F2E5F3F4FFA013183B3
:1011C00020838A819B8193838283DF91CF910895CD
:1011D000DC0101C06D9341505040E0F70895F89450
:0211E000FFCF3F
:1011E2004B55492D7465616D2028632900494932A8
:1011F20043203C3D3E204C434400504F52543A2041
:1012020000434D443A20005665722E20312E3000A4
:101212002000E2000000000000005D036E0486046E
:0812220000004000140054001C
:00000001FF
