:1000000040C064C063C062C061C060C05FC05EC009
:100010005DC049C15BC05AC059C058C057C056C026
:1000200055C0D5C253C00000000037003400310075
:1000300000000000380035003200000000003600EB
:100040003300300004040404040404040202020225
:10005000020203030303030301020408102040808B
:100060000102040810200102040810200000000012
:100070000000000000030405000000000000000074
:10008000870011241FBECFE5D4E0DEBFCDBF10E056
:10009000A0E6B0E0E4E5FBE002C005900D92A636D4
:1000A000B107D9F710E0A6E6B0E001C01D92A23971
:1000B000B107E1F710E0C2E8D0E003C02297FE01EB
:1000C0001DD4C038D107D1F7ADD042C599CFDF9349
:1000D000CF9300D000D0CDB7DEB79A8389837C83DD
:1000E0006B8389819A818130910551F48B819C8148
:1000F0002FEF8F3F920721F486E690E06AE04ED220
:100100000F900F900F900F90CF91DF910895DF9394
:10011000CF93CDB7DEB781E090E06FEF7FEFD7DF11
:10012000CF91DF910895DF93CF93CDB7DEB72B97B3
:100130000FB6F894DEBF0FBECDBF89836A835C83A0
:100140004B832D838981282F30E03B872A878A853E
:100150009B858130910531F02A853B852230310520
:1001600049F157C08A81282F30E039872887888550
:1001700099858230910589F02885398523303105AC
:1001800099F08885998581309105A1F486E061E038
:100190007FD187E060E07CD10DC086E060E078D15F
:1001A00087E061E075D106C087E061E071D188E049
:1001B00061E06ED18A81282F30E03F832E838E81CB
:1001C0009F8182309105D1F02E813F81233031050E
:1001D00034F48E819F818130910561F01AC02E81A7
:1001E0003F812330310571F08E819F8184309105EC
:1001F00069F00FC088E060E04BD10BC088E061E09F
:1002000047D107C085E061E043D103C085E060E0ED
:100210003FD12B960FB6F894DEBF0FBECDBFCF9166
:10022000DF910895DF93CF93CDB7DEB7EBD085E0B4
:1002300061E008D186E061E005D187E061E002D1AC
:1002400088E061E0FFD085E061E022D186E060E0F7
:100250001FD187E060E01CD188E060E019D168EE32
:1002600073E080E090E073D086E061E011D168EE49
:1002700073E080E090E06BD087E061E009D168EE48
:1002800073E080E090E063D088E061E001D168EE47
:1002900073E080E090E05BD086E690E023E930E018
:1002A000B90134D1FFCF1F920F920FB60F921124D4
:1002B0002F933F934F935F936F937F938F939F936E
:1002C000AF93BF93209175003091760040917700F5
:1002D0005091780070917900DA01C9010296A11D50
:1002E000B11D672F6A5F6D3730F06D57DA01C901B4
:1002F0000396A11DB11D60937900809375009093C2
:100300007600A0937700B09378008091710090916F
:100310007200A0917300B09174000196A11DB11DEF
:100320008093710090937200A0937300B093740057
:10033000BF91AF919F918F917F916F915F914F91FD
:100340003F912F910F900FBE0F901F9018959B011A
:10035000AC017FB7F8948091710090917200A091E8
:100360007300B091740062B708B600FE05C06F3F1D
:1003700019F00196A11DB11D7FBFBA2FA92F982F8B
:100380008827860F911DA11DB11D63E0880F991F5D
:10039000AA1FBB1F6A95D1F7BC012EC0FFB7F89406
:1003A0008091710090917200A0917300B0917400DF
:1003B000E2B708B600FE05C0EF3F19F00196A11D97
:1003C000B11DFFBFBA2FA92F982F88278E0F911D1F
:1003D000A11DB11DE3E0880F991FAA1FBB1FEA955D
:1003E000D1F7861B970B885E9340C0F221503040B6
:1003F0004040504068517C4F211531054105510561
:1004000069F60895789483B7826083BF83B781606B
:1004100083BF89B7816089BF1EBC8EB582608EBDE7
:100420008EB581608EBD8FB581608FBD85B58460CE
:1004300085BD85B5806485BD329A319A309A379AE8
:100440001AB80895482F50E0CA01885A9F4FFC01FE
:1004500024914C5B5F4FFA0184918823C1F0E82F0F
:10046000F0E0EE0FFF1FEA5DFF4FA591B491662308
:1004700041F49FB7F8948C91209582238C939FBF71
:1004800008959FB7F8948C91822B8C939FBF089509
:10049000482F50E0CA0184599F4FFC012491CA01A2
:1004A000885A9F4FFC0134914C5B5F4FFA01949145
:1004B000992351F1222381F0243039F0253049F07D
:1004C000233051F48FB58F7702C08FB58F7D8FBDEC
:1004D00003C085B58F7D85BDE92FF0E0EE0FFF1FCE
:1004E000E05DFF4FA591B491662341F49FB7F89466
:1004F0008C91309583238C939FBF08959FB7F89478
:100500008C91832B8C939FBF0895089570937B00EB
:1005100060937A000895CF92DF92EF92FF920F934B
:100520001F93CF93DF937C018B0180917A00909190
:100530007B00892B51F1633071053CF1F701C080DC
:10054000D180CB0161E070E0DDD1EC0190E009C029
:10055000FE01EA0FFB1FAE0DBF1D14968C91808328
:100560009F5FA92FB0E0A017B10794F3FFEFDF164C
:1005700051F0202F2450E0917A00F0917B008C2DD7
:100580006D2DAE010995CE0184D2DF91CF911F91DF
:100590000F91FF90EF90DF90CF900895FC01862F90
:1005A000108208D08BE892E008D085E892E00AD06B
:1005B0007DD10895880F82B908959093810080932A
:1005C0008000089590937F0080937E0008951F928D
:1005D0000F920FB60F9211242F933F934F935F9377
:1005E0006F937F938F939F93AF93BF93EF93FF93FB
:1005F00081B190E0887F90708036910509F4D6C073
:1006000081369105CCF58832910509F47AC089329A
:100610009105B4F48031910509F46FC081319105E1
:100620003CF4009709F428C1089709F02EC165C071
:100630008831910509F465C0809709F026C17BC017
:100640008034910509F49AC08134910544F48033D3
:10065000910509F479C0C89709F017C17EC08035AB
:10066000910509F47EC08835910509F48CC0883461
:10067000910509F00AC194C08839910509F4F6C0C2
:1006800089399105ECF48837910509F48FC08937D1
:1006900091054CF48836910509F488C0803791059E
:1006A00009F0F3C083C08838910509F4DFC08039B0
:1006B000910509F481C08038910509F0E6C07CC03D
:1006C000803B910509F4A5C0813B91054CF4803A2B
:1006D000910509F484C0883A910509F0D6C099C003
:1006E000803C910509F4C5C0883C910509F4C1C05E
:1006F000883B910509F0C9C0A4C080917D0083B9F1
:10070000B3C09091840080918500981770F4909107
:100710008400E0918200F0918300E90FF11D808157
:1007200083B99F5F909384009FC085ED86BF06B616
:1007300004FCFDCFA8C080E280938D0085ED86BFCC
:1007400006B604FCFDCF9FC080E380938D0085ED4D
:1007500086BF06B604FCFDCF96C088E380938D006B
:1007600088C08091840093B1E0918200F091830071
:10077000E80FF11D90838F5F809384009091840037
:10078000809185006FC08091840093B1E0918200D8
:10079000F0918300E80FF11D90838F5F80938400B8
:1007A00085ED86BF06B604FCFDCF6DC083E0809367
:1007B0007C0010928C0058C080918C00803208F030
:1007C00055C080918C0093B1E0918A00F0918B002C
:1007D000E80FF11D90838F5F80938C0045C080915E
:1007E0008C00803248F480918C00E0918A00F09176
:1007F0008B00E80FF11D108260918C00E091800069
:10080000F091810080918A0090918B0070E00995B1
:1008100030C084E080937C001092880010928900A0
:10082000E0917E00F0917F000995809189008823F6
:1008300041F481E080938900E0918600F091870087
:10084000108290918800E0918600F0918700E90F76
:10085000F11D808183B99F5F9093880090918800FB
:1008600080918900981710F485EC01C085E886BF57
:100870000CC085EC86BF07C010928D0085ED86BF49
:1008800006B604FCFDCF10927C00FF91EF91BF9162
:10089000AF919F918F917F916F915F914F913F9118
:1008A0002F910F900FBE0F901F90189510927C0003
:1008B000AC9AAD9A0898099888E480B985E486BF17
:1008C00080E290E061E070E01DD080938200909320
:1008D000830080E290E061E070E014D080938600B5
:1008E0009093870080E290E061E070E00BD080930D
:1008F0008A0090938B000895EE0FFF1F0590F491EE
:10090000E02D09940F931F93CF93DF93689F80018D
:10091000699F100D789F100D1124C8010DD0EC01B6
:10092000009721F060E070E0A8010BD1CE01DF91CB
:10093000CF911F910F910895CF93DF93BC01823027
:10094000910510F462E070E0A0919000B0919100E8
:10095000ED01E0E0F0E040E050E021C088819981C5
:100960008617970769F48A819B81309719F09383E2
:10097000828304C09093910080939000FE0134C064
:100980006817790738F44115510519F08417950750
:1009900008F4AC01FE018A819B819C01E90120974A
:1009A000E9F641155105A9F1CA01861B970B049779
:1009B00008F4BA01E0E0F0E02AC08D919C91119713
:1009C00084179507F9F46417750781F412968D91D1
:1009D0009C911397309719F09383828304C090936E
:1009E000910080939000FD0132964FC0CA01861B92
:1009F000970BFD01E80FF91F6193719302978D9397
:100A00009C9343C0FD01828193819C01D901109781
:100A1000A1F680918E0090918F00892B41F48091F6
:100A200062009091630090938F0080938E004091BC
:100A30006400509165004115510541F44DB75EB712
:100A40008091600090916100481B590B20918E00AD
:100A500030918F0024173507B0F4CA01821B930B25
:100A60008617970780F0AB014E5F5F4F841795079D
:100A700050F0420F531F50938F0040938E00F901A6
:100A80006193719302C0E0E0F0E0CF01DF91CF917C
:100A90000895CF93DF93009709F450C0EC0122979B
:100AA0001B821A82A0919000B0919100109709F1D9
:100AB00040E050E0AC17BD0708F1BB83AA83FE01FC
:100AC00021913191E20FF31FAE17BF0779F48D9199
:100AD0009C911197280F391F2E5F3F4F3983288330
:100AE00012968D919C9113979B838A834115510592
:100AF00071F4D0939100C093900020C012968D9114
:100B00009C911397AD01009711F0DC01D3CFFA014E
:100B1000D383C28321913191E20FF31FCE17DF07F8
:100B200069F488819981280F391F2E5F3F4FFA01A0
:100B3000318320838A819B8193838283DF91CF914C
:100B40000895DC0101C06D9341505040E0F70895D5
:040B5000F894FFCF47
:060B5400200092000000E9
:00000001FF
