:100000000C9436000C945E000C945E000C945E0020
:100010000C945E000C945E000C945E000C945E00E8
:100020000C945E000C945E000C945E000C945E00D8
:100030000C945E000C945E000C945E000C945E00C8
:100040000C9489010C945E000C940C020C945E00DC
:100050000C945E000C945E000C945E000C945E00A8
:100060000C945E000C945E000403A30411241FBED4
:10007000CFEFD8E0DEBFCDBF12E0A0E0B1E0E2ED0F
:10008000FDE102C005900D92AC37B107D9F715E03C
:10009000ACE7B2E001C01D92A835B107E1F710E06E
:1000A000CCE6D0E004C02297FE010E94D60EC836EE
:1000B000D107C9F70E9498000C94E70E0C94000039
:1000C000DF93CF93CDB7DEB78AE093E020E031E055
:1000D000B9010E9498048AE093E026E031E0B9017A
:1000E0000E9498048AE093E024E131E0B9010E9483
:1000F00098048AE093E02FE131E0B9010E9498046E
:100100008AE093E021E331E0B9010E9498048AE09B
:1001100093E029E431E0B9010E9498048AE093E079
:100120002CE531E0B9010E949804CF91DF91089548
:10013000DF93CF9300D000D00F92CDB7DEB70E94EF
:10014000D1018AE093E040E855E260E070E00E946F
:100150003D028AE093E02CE631E0B9010E94980468
:100160008AE093E00E9496021D821816190614F484
:1001700021E02D833D81332399F31A8219828AE08D
:1001800093E00E94C10280937C0280917C02282F20
:1001900030E03C832B838B819C818C34910579F1F9
:1001A0002B813C812D34310594F48B819C818434E6
:1001B000910509F473C02B813C8128343105C1F0CD
:1001C0008B819C818134910509F452C071C02B81CF
:1001D0003C8122353105E9F08B819C818735910581
:1001E00011F12B813C812035310509F44BC060C0F1
:1001F0000E94600083E090E09A8389835DC08DE374
:1002000095E02AE831E0B9010E949F099A83898329
:1002100053C08DE395E02AE831E0B9010E9442081D
:100220009A83898349C08DE395E02AE831E0B901DA
:100230000E9489079A8389838DE395E023E931E061
:10024000B9010E9489079A8389838DE395E02DE99E
:1002500031E0B9010E9489079A8389838DE395E093
:1002600027EA31E0B9010E9489079A83898324C073
:100270008DE395E02AE831E0B9010E944C079A83AA
:1002800089831AC041EB51E08DE395E02AE831E023
:10029000B9010E9430079A8389830EC08DE395E0EF
:1002A0002AE831E0B9010E9413099A83898304C0C6
:1002B00082E090E09A83898389819A8181309105D7
:1002C00051F48DE395E02AE831E067E070E0A901A0
:1002D0000E94720545CF89819A818230910551F43F
:1002E0008DE395E020EC31E068E070E0A9010E9428
:1002F000720536CF89819A81009709F031CF8DE35D
:1003000095E02AE831E066E070E0A9010E947205FC
:1003100027CF1F920F920FB60F9211242F933F9366
:100320008F939F93AF93BF938091810290918202AC
:10033000A0918302B0918402309185020196A11DA3
:10034000B11D232F2D5F2D3720F02D570196A11DB4
:10035000B11D209385028093810290938202A09325
:100360008302B093840280917D0290917E02A091DD
:100370007F02B09180020196A11DB11D80937D0284
:1003800090937E02A0937F02B0938002BF91AF91C1
:100390009F918F913F912F910F900FBE0F901F90C3
:1003A0001895789484B5826084BD84B5816084BDDD
:1003B00085B5826085BD85B5816085BDEEE6F0E0DE
:1003C000808181608083E1E8F0E01082808182603A
:1003D0008083808181608083E0E8F0E080818160BB
:1003E0008083E1EBF0E0808184608083E0EBF0E0EB
:1003F000808181608083EAE7F0E08081846080838F
:100400008081826080838081816080838081806838
:1004100080831092C10008951F920F920FB60F9221
:1004200011242F933F934F938F939F93EF93FF93B9
:100430004091C600E0910603F091070331969F01B9
:100440002F77307031978091080390910903281716
:10045000390739F0EA57FD4F408330930703209363
:100460000603FF91EF919F918F914F913F912F91B3
:100470000F900FBE0F901F901895CF93DF93EC0154
:100480009A01AB01E885F985203081EE380780E0DC
:10049000480780E0580709F445C081E090E00A88E9
:1004A00002C0880F991F0A94E2F7808360E079E028
:1004B0008DE390E00E94970E215030404040504024
:1004C0005695479537952795EC81FD813083EE81D0
:1004D000FF812083EA85FB85208141E050E0CA014D
:1004E0000E8402C0880F991F0A94E2F7282B2083FC
:1004F000EA85FB852081CA010F8402C0880F991FFD
:100500000A94E2F7282B2083EA85FB8580810888FE
:1005100002C0440F551F0A94E2F7842B8083DF91B9
:10052000CF910895108220E130E0CECFDC01129609
:10053000ED91FC911397E058FF4F2191319180810B
:100540009181281B390B2F773070C9010895DC0188
:100550001296ED91FC911397EE57FF4F2081318158
:1005600092918291E058F0408217930719F42FEF8F
:100570003FEF05C0E20FF31F8081282F30E0C90153
:100580000895DC011296ED91FC911397DF01AE57AF
:10059000BF4F2D913C911197E058FF4F8081918181
:1005A000E058F0408217930719F42FEF3FEF0BC08C
:1005B000E20FF31F80812F5F3F4F2F7730702D9315
:1005C0003C93282F30E0C9010895DC011296ED918B
:1005D000FC911397EE57FF4F808191819293829304
:1005E0000895FC01A085B18521898C9190E0022EAF
:1005F00002C0959587950A94E2F780FFF6CF0484B0
:10060000F585E02D608308958EE692E090930B03CC
:1006100080930A0386E892E090930D0380930C0385
:1006200085EC90E090930F0380930E0384EC90E0B0
:10063000909311038093100380EC90E09093130348
:100640008093120381EC90E0909315038093140340
:1006500086EC90E0909317038093160384E08093D8
:10066000180383E08093190387E080931A0385E0E1
:1006700080931B0381E080931C0308950F931F93C5
:10068000CF93DF938C01EB0109C02196D801ED9146
:10069000FC910190F081E02DC801099568816623E5
:1006A000A1F7DF91CF911F910F910895EF92FF92E3
:1006B0000F931F93CF93DF938C017B01EA010CC052
:1006C000D7016D917D01D801ED91FC910190F081F0
:1006D000E02DC80109952197209791F7DF91CF91DF
:1006E0001F910F91FF90EF900895DC01ED91FC9127
:1006F0000280F381E02D099508952F923F924F9249
:100700005F926F927F928F929F92AF92BF92CF92A1
:10071000DF92EF92FF920F931F93DF93CF93CDB7AA
:10072000DEB7A0970FB6F894DEBF0FBECDBF1C0199
:100730006A017B01411551056105710549F440E3EA
:1007400050E060E070E020E030E00E94380456C0E5
:10075000882499245401422E55246624772401E0EC
:1007600010E00C0F1D1F080D191DC701B601A301D4
:1007700092010E94970EF80160830894811C911CDD
:10078000A11CB11CC701B601A30192010E94970EE2
:10079000C901DA016C017D01C114D104E104F10445
:1007A000F1F681E0E82EF12CEC0EFD1EE80CF91CB0
:1007B0003E010894611C711CD501C4010197A10977
:1007C000B1096C01C818D90816C0F601EE0DFF1D5D
:1007D00040814A3010F4405D01C0495C552747FD17
:1007E0005095652F752FC10120E030E00E9438043C
:1007F0000894E108F1086E147F0439F7A0960FB64B
:10080000F894DEBF0FBECDBFCF91DF911F910F9146
:10081000FF90EF90DF90CF90BF90AF909F908F9020
:100820007F906F905F904F903F902F900895DC01E4
:100830002115310541F4ED91FC910190F081E02DFD
:10084000642F099508950E947D030895EF92FF9209
:100850000F931F939A01E62EFF2400E010E0B801E9
:10086000A7010E9417041F910F91FF90EF90089528
:10087000EF92FF920F931F93CF93DF93EC017A01D6
:100880008B012115310541F4E881F9810190F08156
:10089000E02D642F09951BC02A303105B1F477FF94
:1008A00010C04DE250E060E070E020E030E00E94D7
:1008B000380410950095F094E094E11CF11C011DA2
:1008C000111DCE01B801A7012AE00E947D03DF912E
:1008D000CF911F910F91FF90EF900895EF92FF92AB
:1008E0000F931F937B019A010027F7FC0095102FAF
:1008F000B801A7010E9438041F910F91FF90EF905B
:1009000008950F931F938C014DE050E060E070E07C
:1009100020E030E00E943804C8014AE050E060E086
:1009200070E020E030E00E9438041F910F9108959C
:100930000F931F938C010E947503C8010E948104CC
:100940001F910F91089508952F923F924F925F92B9
:100950006F927F928F929F92AF92BF92CF92DF92CF
:10096000EF92FF920F931F938B010E94F20C8DE187
:1009700093E00E94AE0A882309F49EC0C80162E495
:1009800075E046E455E00E94400B882309F494C0CA
:100990008091460590914705A0914805B091490581
:1009A000813022E0920720E0A20720E0B207D8F0D1
:1009B00029E0B695A795979587952A95D1F78093C5
:1009C0003E0590933F05A0934005B093410580E01C
:1009D00092E0A0E0B0E08093460590934705A09395
:1009E0004805B0934905EE24FF248701AA24BB24BF
:1009F0006501212C82E0382E412C512C4EC04091B3
:100A000042055091430560914405709145054A0D9A
:100A10005B1D6C1D7D1D8DE193E021E00E94800D2A
:100A2000882309F049C08091460590914705A0911F
:100A30004805B091490581509240A040B04040F037
:100A4000209246053092470540924805509249054C
:100A50006090460570904705809048059090490544
:100A6000EDE1F3E020E030E040E050E00CC08191A7
:100A70002F5F3F4F4F4F5F4F833009F10894E11CC8
:100A8000F11C011D111D261537054805590578F380
:100A90000894A11CB11CC11CD11C80913E059091F1
:100AA0003F05A0914005B09141058A159B05AC0515
:100AB000BD0508F0A4CF03C0EE24FF248701B701D1
:100AC000C8011F910F91FF90EF90DF90CF90BF90E2
:100AD000AF909F908F907F906F905F904F903F90DE
:100AE0002F9008950F931F93CF93DF93EB018A010B
:100AF00080916702882309F460C08AE093E060ED8A
:100B000071E00E9475038AE093E0B8010E947503CA
:100B10008AE093E062ED71E00E947503C430D10574
:100B200091F1C530D1057CF4C130D105E9F0C23076
:100B3000D1051CF4CD2B99F040C0C230D105C9F0CD
:100B40002397D9F51BC0C630D10539F1C630D10580
:100B5000FCF0C730D10531F1289779F528C08AE03B
:100B600093E067ED71E027C08AE093E061EE71E009
:100B700022C08AE093E06DEE71E01DC08AE093E050
:100B80006AEF71E018C08AE093E065E072E013C09C
:100B90008AE093E06AE172E00EC08AE093E063E2EB
:100BA00072E009C08AE093E06BE272E004C08AE080
:100BB00093E065E372E00E949804DF91CF911F916A
:100BC0000F9108954F925F926F927F928F929F92B2
:100BD000AF92BF92CF92DF92EF92FF920F931F934B
:100BE000CF93DF938C017B012A0163E070E0A701C2
:100BF0000E947205C801B7010E94A4047B018C0108
:100C000020E032E040E050E00E94B90ECA01A901A4
:100C1000BC0140933E0550933F056093400570939F
:100C200041058091420590914305A0914405B09102
:100C30004505480F591F6A1F7B1F8DE193E021E096
:100C40000E94800D882309F0F4C0809146059091A0
:100C50004705A0914805B091490581509240A040B8
:100C6000B04060F080E092E0A0E0B0E08093460504
:100C700090934705A0934805B0934905C801B70173
:100C800020E032E040E050E00E94B90E9B013B01C1
:100C9000A0904605B0904705C0904805D090490502
:100CA0007B010027F7FC0095102F4DE1842E43E0D7
:100CB000942E860E971E80E090E0A0E0B0E01AC06F
:100CC000E40DF51D60810894E11CF11C011D111D4E
:100CD0000196A11DB11D662351F4CE01AA2797FDEF
:100CE000A095BA2FFE01E35EFC4F23E011C0F40192
:100CF00061934F01FC01EC01C20FD31FEA14FB0406
:100D00000C051D05E8F2E9CF21930196A11DB11D47
:100D10008A159B05AC05BD05B8F300E010E04091D5
:100D20003E0550913F0560914005709141058091CD
:100D3000420590914305A0914405B0914505480FA7
:100D4000591F6A1F7B1F8DE193E021E00E94EF0D88
:100D5000882309F06EC00F5F1F4F0A301105F9F6A6
:100D6000FE01E619F709E40DF51D8081882309F4D9
:100D700063C0E0904605F09047050091480510914A
:100D80004905ADE1B3E020E030E040E050E008C0CC
:100D900081912F5F3F4F4F4F5F4F882341F08D93DD
:100DA000B9012E153F054007510790F345C0FB01DF
:100DB000E35EFC4F83E08083CB0101969C014427D6
:100DC00037FD4095542FFC01E35EFC4F80E205C0E7
:100DD00081932F5F3F4F4F4F5F4F2E153F054007C9
:100DE0005107B0F300E010E04091420550914305F7
:100DF000609144057091450580913E0590913F05B5
:100E0000A0914005B0914105480F591F6A1F7B1FF3
:100E10004F5F5F4F6F4F7F4F8DE193E021E00E9466
:100E2000EF0D882331F40F5F1F4F0A301105E1F6F3
:100E300003C021E030E002C020E030E0C901DF91D2
:100E4000CF911F910F91FF90EF90DF90CF90BF90C7
:100E5000AF909F908F907F906F905F904F9008958C
:100E6000CF92DF92EF92FF920F931F937C016B0161
:100E70000E94E2058C01C701B60141E452E00E94E4
:100E8000E2059C01202B312BC9011F910F91FF908E
:100E9000EF90DF90CF9008950F931F93CF93DF9340
:100EA0008C01AB0165E070E00E947205CDE1D5E0F8
:100EB0008AE093E00E949602892BD1F38AE093E0C6
:100EC0000E94C102BC0190936902809368028AE08B
:100ED00093E040E050E00E946E048091680290919F
:100EE00069028E32910529F0899385E0CD33D807C8
:100EF000F9F68AE093E00E948104C80163E472E09D
:100F00004DE155E00E94E205DF91CF911F910F91D5
:100F10000895CF92DF92EF92FF920F931F93CF939A
:100F2000DF938B0164E070E0A8010E9472050E94CB
:100F3000F20C8DE193E00E94AE0A882309F496C07A
:100F4000C80162E475E046E455E00E94400B882346
:100F500009F48CC0409142055091430560914405CD
:100F6000709145058DE193E021E00E94800D88237A
:100F700009F07CC08091460590914705A0914805F5
:100F8000B091490581509240A040B04060F080E0AF
:100F900092E0A0E0B0E08093460590934705A093CF
:100FA0004805B09349055DE1C52E53E0D52EEE24EA
:100FB000FF24870119C08AE093E00E949602892BE2
:100FC000D1F38AE093E00E94C1029093690280937A
:100FD00068020894E11CF11C011D111D8E3291055F
:100FE00089F0F60181936F01E701809146059091A8
:100FF0004705A0914805B0914905E816F9060A078A
:101000001B07C8F2209146053091470540914805DD
:1010100050914905CE01AA2797FDA095BA2FFE0150
:10102000E35EFC4F63E004C061930196A11DB11D16
:1010300082179307A407B507B8F300E010E04091CA
:1010400042055091430560914405709145058DE13D
:1010500093E021E00E94EF0D882341F40F5F1F4FC2
:101060000A30110561F720E030E002C021E030E0F5
:10107000C901DF91CF911F910F91FF90EF90DF9009
:10108000CF9008956F927F928F929F92AF92BF926E
:10109000CF92DF92EF92FF920F931F93CF93DF9344
:1010A0008B0162E070E0A8010E9472050E94F20CC0
:1010B0008DE193E00E94AE0A882309F4A2C0C80122
:1010C00062E475E046E455E00E94400B882309F491
:1010D00098C08091460590914705A0914805B09130
:1010E0004905813022E0920720E0A20720E0B20704
:1010F000D8F079E0B695A795979587957A95D1F729
:1011000080933E0590933F05A0934005B093410521
:1011100080E092E0A0E0B0E0809346059093470520
:10112000A0934805B0934905AA24BB246501612C0E
:1011300062E0762E812C912C4FC040914205509157
:10114000430560914405709145054A0D5B1D6C1D7A
:101150007D1D8DE193E021E00E94800D882309F040
:1011600050C08091460590914705A0914805B091E7
:10117000490581509240A040B04040F06092460541
:10118000709247058092480590924905CDE1D3E0E1
:10119000EE24FF2487010EC069910894E11CF11C24
:1011A000011D111D633031F18AE093E040E050E011
:1011B0000E9426048091460590914705A09148051C
:1011C000B0914905E816F9060A071B0728F30894A9
:1011D000A11CB11CC11CD11C80913E0590913F0502
:1011E000A0914005B09141058A159B05AC05BD0550
:1011F00008F0A3CF8AE093E00E94810420E030E071
:1012000002C021E030E0C901DF91CF911F910F9121
:10121000FF90EF90DF90CF90BF90AF909F908F9016
:101220007F906F900895DF92EF92FF920F931F933C
:10123000CF93DF93EB0161E070E0AE010E94720595
:101240000E94F20C8DE193E00E94AE0A882309F41B
:101250006BC0CE0162E475E046E455E00E94400BAD
:10126000882309F461C08091460590914705A091BB
:101270004805B0914905F9E0B695A79597958795EA
:10128000FA95D1F780933E0590933F05A0934005D2
:10129000B0934105EE24FF248701E3E0DE2E33C046
:1012A0004091420550914305609144057091450578
:1012B0004E0D5F1D601F711F8DE193E021E00E94C4
:1012C000800D882389F5D0921D03C0E0D0E04091C5
:1012D00042055091430560914405709145054E0DBE
:1012E0005F1D601F711F8DE193E021E00E94EF0DF3
:1012F0008823D1F42196CA30D10549F70894E11C1E
:10130000F11C011D111D80913E0590913F05A0919A
:101310004005B09141058E159F05A007B10708F063
:10132000BFCF20E030E002C021E030E0C901DF9112
:10133000CF911F910F91FF90EF90DF9008952F9222
:101340003F924F925F926F927F928F929F92AF9255
:10135000BF92CF92DF92EF92FF920F931F937C0187
:101360008B010E94F20C8DE193E00E94AE0A88236B
:1013700009F4E0C0C70160E070E0A8010E947205B6
:10138000C80162E475E046E455E00E94400B882302
:1013900009F4D0C08AE093E06CE472E00E94980403
:1013A0004091460550914705609148057091490567
:1013B0008AE093E02AE030E00E9417048AE093E09C
:1013C00060E672E00E9475038091460590914705A2
:1013D000A0914805B091490581509240A040B0408D
:1013E00060F080E092E0A0E0B0E08093460590934A
:1013F0004705A0934805B093490540914605509193
:1014000047056091480570914905B9E07695679563
:1014100057954795BA95D1F740933E0550933F05B0
:1014200060934005709341058AE093E02AE030E044
:101430000E9417048AE093E063E672E00E9475035D
:10144000AA24BB246501EE24FF248701212CA2E0FD
:101450003A2E412C512C5DC04091420550914305DC
:1014600060914405709145054E0D5F1D601F711F11
:101470008DE193E021E00E94800D882309F05AC09D
:101480008091460590914705A0914805B091490586
:1014900081509240A040B04040F0209246053092EA
:1014A0004705409248055092490560904605709066
:1014B00047058090480590904905EDE1F3E020E074
:1014C00030E040E050E01BC081912F5F3F4F4F4F15
:1014D0005F4F833079F48AE093E0B601A5012AE0FA
:1014E00030E00E9438048AE093E065E672E00E94F2
:1014F00098041DC00894A11CB11CC11CD11C261548
:1015000037054805590500F30894E11CF11C011D3D
:10151000111D80913E0590913F05A0914005B0912D
:1015200041058E159F05A007B10708F095CF20E073
:1015300030E002C021E030E0C9011F910F91FF901F
:10154000EF90DF90CF90BF90AF909F908F907F9063
:101550006F905F904F903F902F900895AF92BF9201
:10156000CF92DF92EF92FF920F931F9390935505C6
:101570008093540540E050E060E070E021E00E947C
:10158000800D882309F072C0E0915405F091550553
:10159000E254FE4FA084B184C284D384EE5BF14058
:1015A000CF01B601A50121E00E94800D882309F03A
:1015B0005DC0E0915405F091550583859485805078
:1015C000924009F053C0858580934A0510924B05DF
:1015D000868597857C0100E010E0EA0CFB1C0C1D61
:1015E0001D1D808990E026893789AC01429FC0018A
:1015F000439F900D529F900D1124A0E0B0E0E80EA3
:10160000F91E0A1F1B1FE0924C05F0924D05009336
:101610004E0510934F058189928975E0880F991FB7
:101620007A95E1F7A0E0B0E09C01AD0169E0559545
:101630004795379527956A95D1F79170A070B0704E
:101640000097A105B10521F02F5F3F4F4F4F5F4F2E
:101650002E0D3F1D401F511F209350053093510503
:10166000409352055093530581E001C080E01F91E3
:101670000F91FF90EF90DF90CF90BF90AF900895C3
:101680008F929F92AF92BF92CF92DF92EF92FF9292
:101690000F931F93DF93CF93CDB7DEB72B970FB682
:1016A000F894DEBF0FBECDBF8C015B014A014091B3
:1016B0004C0550914D0560914E0570914F058091FC
:1016C00054059091550521E00E94800D882309F072
:1016D0007AC0FE01319620E2CE010D962193E817E3
:1016E000F907E1F721C08E3219F428E030E009C093
:1016F00080360CF08052FB01E20FF31F80832F5FD6
:101700003F4F4F5F5F4F4C305105A9F40091540596
:1017100010915505E12CE2E0FE2EE00EF11E6E0167
:101720000894C11CD11C4BC040E050E020E030E0E8
:10173000BE016F5F7F4FF801E40FF51F80818823A2
:1017400091F6E4CFF80183858E71B9F5C601B80131
:101750004BE050E00E94DA0E009779F5F801828D97
:10176000938D029720914A0530914B05AC01429F21
:10177000C001439F900D529F900D1124A0E0B0E056
:1017800020915005309151054091520550915305DB
:10179000820F931FA41FB51FF50180839183A2833D
:1017A000B383F801848D958DA68DB78DF401808368
:1017B0009183A283B38381E007C0005E1F4F0E15A3
:1017C0001F0509F0BFCF80E02B960FB6F894DEBF5F
:1017D0000FBECDBFCF91DF911F910F91FF90EF9082
:1017E000DF90CF90BF90AF909F908F900895DF9241
:1017F000EF92FF920F931F937A018B01D22E782FD5
:10180000705CA0E0B0E8E0E0F0E0472F50E061E07D
:1018100029E08A2F90E036E0969587953A95E1F792
:10182000382F31708B2F90E084239523892B09F07A
:101830003627AA0F3111A227B6953196E830F10567
:1018400041F7AF77B0E8E0E0F0E0412F50E061E031
:1018500029E08A2F90E036E0969587953A95E1F752
:10186000382F31708B2F90E084239523892B09F03A
:101870003627AA0F3111A227B6953196E830F10527
:1018800041F7AF77B0E8E0E0F0E0402F50E061E0F2
:1018900029E08A2F90E036E0969587953A95E1F712
:1018A000382F31708B2F90E084239523892B09F0FA
:1018B0003627AA0F3111A227B6953196E830F105E7
:1018C00041F7AF77B0E8E0E0F0E04F2D50E061E0A5
:1018D00029E08A2F90E036E0969587953A95E1F7D2
:1018E000382F31708B2F90E084239523892B09F0BA
:1018F0003627AA0F3111A227B6953196E830F105A7
:1019000041F7AF77B0E8E0E0F0E04E2D50E061E065
:1019100029E08A2F90E036E0969587953A95E1F791
:10192000382F31708B2F90E084239523892B09F079
:101930003627AA0F3111A227B6953196E830F10566
:1019400041F78A2F880F8160A0E0BFEF9FEF2A98B0
:101950007EBD0DB407FEFDCF2EB51EBD0DB407FE36
:10196000FDCF2EB50EBD0DB407FEFDCF2EB5FEBCCE
:101970000DB407FEFDCF2EB5EEBC0DB407FEFDCFB6
:101980002EB58EBD0DB407FEFDCF2EB5E0E0F0E024
:101990009EBD0DB407FEFDCF3EB537FF05C03196A5
:1019A00020E1E030F207A1F7DD2081F033FF16C01F
:1019B0002A9ABEBD0DB407FEFDCF2EB5AF5FA53090
:1019C00031F604C00DB407FEFDCF8EB5832F90E035
:1019D0001F910F91FF90EF90DF9008952A9A8FEF5B
:1019E0008EBDF0CFCF93DF9383E090E090935705C7
:1019F0008093560585B1846385B984B18C6284B9BE
:101A0000249883E58CBD8DB58EB52A9A80E09FEF32
:101A10009EBD0DB407FEFDCF2EB58F5F8A30C1F796
:101A200080E040E050E060E070E021E00E94F70BD1
:101A3000813009F05EC0CFEFDFEF8AE340E050E095
:101A400060E070E020E00E94F70B823008F455C09F
:101A500021978FEFCF3FD80709F44FC0EECF20E09A
:101A600030E040E050E01EBC0DB407FEFDCF8EB567
:101A7000582F4EBD0DB407FEFDCF8EB5482F3EBD8D
:101A80000DB407FEFDCF8EB5382F2EBD0DB407FE69
:101A9000FDCF8EB5282F42FD08C02A9A8FEF8EBD4C
:101AA0000DB407FEFDCF8EB524C0CFEFDFEF81E090
:101AB00040E050E060E070E421E00E94F70B2197E5
:101AC000882319F0209799F714C0CD2B91F080E16D
:101AD00040E052E060E070E021E00E94F70B8823D4
:101AE00041F482E090E0909357058093560580E0A2
:101AF00001C083E0DF91CF910895CD2BB1F2AFCF3C
:101B0000BF92CF92DF92EF92FF920F931F93CF93EA
:101B1000DF93EC017A018B01B22EDD24CC24CA9430
:101B200050C0B801A701E9E0440F551F661F771F99
:101B3000EA95D1F781E120E00E94F70B882389F430
:101B40002FEF3FE0CEBC0DB407FEFDCF8EB58E3F2C
:101B500031F02115310529F021503040F3CF232BEE
:101B600049F42A9A83E090E09093570580935605B4
:101B700081E02BC0FE0120E030E0CEBC0DB407FEBA
:101B8000FDCF8EB581932F5F3F4F82E02030380725
:101B9000A1F7C050DE4FCEBC0DB407FEFDCF8EB511
:101BA000CEBC0DB407FEFDCF8EB52A9ACEBC0DB4C7
:101BB00007FEFDCF8EB5D3940894E11CF11C011DE6
:101BC000111DDB1408F4ADCF80E0DF91CF911F91A0
:101BD0000F91FF90EF90DF90CF90BF9008953F92CC
:101BE0004F925F926F927F928F929F92AF92BF922D
:101BF000CF92DF92EF92FF920F931F93CF93DF93D9
:101C0000EC017A018B01422E88248EEF382E552468
:101C10005A9468C088E1B601A50120E00E94F70B44
:101C2000882309F043C03EBC0DB407FEFDCF8EB53E
:101C3000FE0120E030E081918EBD0DB407FEFDCFA6
:101C40008EB52F5F3F4F82E020303807A1F71EBCD2
:101C50000DB407FEFDCF8EB51EBC0DB407FEFDCF43
:101C60008EB55EBC0DB407FEFDCF9EB5892F8F707B
:101C7000853059F02A9A5EBC0DB407FEFDCF8EB5B3
:101C8000939485E0981631F614C02FEF3FEF5EBCB9
:101C90000DB407FEFDCF8EB5882331F42115310533
:101CA00029F021503040F3CF232B11F42A9A11C090
:101CB000E3012A9A5EBC0DB407FEFDCF8EB50894F1
:101CC000E11CF11C011D111D84E0891550F493FDE8
:101CD00006C083E090E0909357058093560581E01D
:101CE00014C08394841480F457016801B9E0AA0CED
:101CF000BB1CCC1CDD1CBA95D1F79924612CA2E049
:101D00007A2E6C0E7D1E86CF80E0DF91CF911F91E1
:101D10000F91FF90EF90DF90CF90BF90AF909F908A
:101D20008F907F906F905F904F903F900895A1E2C9
:101D30001A2EAA1BBB1BFD010DC0AA1FBB1FEE1F45
:101D4000FF1FA217B307E407F50720F0A21BB30B90
:101D5000E40BF50B661F771F881F991F1A9469F70C
:101D600060957095809590959B01AC01BD01CF0168
:101D7000089597FB092E05260ED057FD04D0D7DF16
:101D80000AD0001C38F450954095309521953F4F6E
:101D90004F4F5F4F0895F6F7909580957095619538
:101DA0007F4F8F4F9F4F0895EE0FFF1F0590F491C7
:101DB000E02D0994FB01DC0104C08D910190801994
:101DC00021F441505040C8F7881B990B0895F894AE
:021DD000FFCF43
:101DD20048454C500A00094C2066696C6520696EC2
:101DE200666F0A0009442064656C6574650A00091F
:101DF2005020617070656E6420737472696E670A38
:101E020000095720696E69742066696C6520616EED
:101E1200642077726974650A0009522064756D70D6
:101E220020746F2073657269616C0A000941206138
:101E32007070656E6420746578740A005072656D06
:101E42006920482070657220696C204D454E5520EE
:101E5200646920616975746F0A00686F6C612E7421
:101E6200787400686F6C61312E74787400686F6CDE
:101E720061322E74787400686F6C61332E747874DA
:101E8200000A686F6C612063617261636F6C61004C
:101E9200756E6B6E6F776E20636F6D6D616E640031
:101EA2005B005D202D200066696C6520696E666F9F
:101EB20000646574696E672066696C650066696CAA
:101EC2006520636F6E74656E740061646420737460
:101ED20072696E6700696E69742066696C652C2090
:101EE2007479706520746578740061646420746527
:101EF2007874002E2E646F6E650A002E2E65727243
:101F02006F72210A002E2E7761726E696E67210A46
:101F1200000A00686F6C612E747874006C656E67DD
:101F2200746809736563746F72730975736564000D
:101F32004209000900420001FFFF00000000F10217
:0C1F42003E0356039602C102A702E5020E
:00000001FF
