:1000000040C064C063C062C061C060C05FC05EC009
:100010005DC0CFC15BC05AC059C058C057C056C0A0
:1000200055C080C453C000000000370034003100C8
:1000300000000000380035003200000000003600EB
:100040003300300004040404040404040202020225
:10005000020203030303030301020408102040808B
:100060000102040810200102040810200000000012
:100070000000000000030405000000000000000074
:100080009A0111241FBECFE5D4E0DEBFCDBF10E042
:10009000A0E6B0E0E2EEFFE002C005900D92AE37C0
:1000A000B107D9F710E0AEE7B0E001C01D92AF3C58
:1000B000B107E1F710E0C2E8D0E003C02297FE01EB
:1000C00064D6C038D107D1F741D189C799CFDF9322
:1000D000CF9300D000D00F92CDB7DEB789836A836B
:1000E0005C834B832D838981882F90E0813091053B
:1000F00051F48A81882F90E08330910521F4109289
:100100009300109292000F900F900F900F900F900D
:10011000CF91DF910895DF93CF93CDB7DEB72B97C3
:100120000FB6F894DEBF0FBECDBF8E836F835987A5
:1001300048871D828E81882F90E08130910509F0DB
:10014000BBC08F81282F30E03B872A878A859B851B
:100150008230910509F12A853B852330310534F43D
:100160008A859B858130910569F0A6C02A853B85EB
:100170002430310509F470C08A859B85853091054E
:10018000A1F19AC08091920090919300E885F98541
:10019000808381E08D8390C0809192009091930044
:1001A0008D831C821B8213C02B813C81888599859D
:1001B000DC01A20FB31F8B819C81FC01E258FF4F31
:1001C00080818C938B819C8101969C838B83209171
:1001D0009200309193008B819C818217930724F3C6
:1001E000109293001092920067C081E08D838091FD
:1001F000920090919300181619060CF05DC0809142
:100200007E00E885F985808380919200909193002B
:10021000019790939300809392001A82198212C0E2
:1002200029813A8189819A810196FC01E258FF4F28
:100230008081F901E258FF4F808389819A8101967C
:100240009A838983209192003091930089819A81C9
:10025000821793072CF330C088E08D83E885F985F9
:1002600086E5808388859985FC01319685E68083C3
:1002700088859985FC01329682E7808388859985F7
:10028000FC0133968EE2808388859985FC01349643
:1002900080E2808388859985FC01359681E380839F
:1002A00088859985FC0136968EE2808388859985BC
:1002B000FC01379680E380838D812B960FB6F894EE
:1002C000DEBF0FBECDBFCF91DF910895EF920F93A8
:1002D000DF93CF9300D000D0CDB7DEB79A83898368
:1002E0007C836B8389819A8181309105D1F48B81E4
:1002F0009C812FEF8F3F9207A1F484E990E066E0A4
:10030000DBD240E650E085E990E020E730E0E4E72A
:10031000F0E0BA01A9019F0104E0EE246894E2F83C
:100320002CD10F900F900F900F90CF91DF910F91E4
:10033000EF900895DF93CF93CDB7DEB781E090E0E3
:100340006FEF7FEFC3DFCF91DF910895DF93CF93FE
:100350000F92CDB7DEB78FD084E990E027E630E08A
:10036000B9010AD284E990E02BE830E0B90109D262
:10037000809192009091930084319105CCF785E9AA
:1003800090E021D189838981882391F38091920023
:1003900090919300FC01E258FF4F89818083809106
:1003A0009200909193000196909393008093920015
:1003B000DFCF1F920F920FB60F9211242F933F930E
:1003C0004F935F936F937F938F939F93AF93BF935D
:1003D0002091AD003091AE004091AF005091B0003F
:1003E0007091B100DA01C9010296A11DB11D672FFC
:1003F0006A5F6D3730F06D57DA01C9010396A11DB0
:10040000B11D6093B1008093AD009093AE00A093B6
:10041000AF00B093B0008091A9009091AA00A09184
:10042000AB00B091AC000196A11DB11D8093A90055
:100430009093AA00A093AB00B093AC00BF91AF9192
:100440009F918F917F916F915F914F913F912F91EC
:100450000F900FBE0F901F9018958FB7F8942091B2
:10046000AD003091AE004091AF005091B0008FBF11
:10047000B901CA010895789483B7826083BF83B7B6
:10048000816083BF89B7816089BF1EBC8EB58260E1
:100490008EBD8EB581608EBD8FB581608FBD85B5F7
:1004A000846085BD85B5806485BD329A319A309A65
:1004B000379A1AB80895FC018781908586179707A7
:1004C00051F070876783228933892115310519F02E
:1004D0008185F90109950895DF92EF92FF920F93BC
:1004E0001F93CF93DF937C01DD2434C0D701149692
:1004F000ED91FC911597EC0FFD1F808161E0A7D372
:10050000D7011496ED91FC911597EC0FFD1F80819A
:1005100061E0C3D30F5FC02FD0E0F70186818295E1
:100520008F7090E0C817D9070CF30D2D10E00280F2
:10053000F381E02DE00FF11F808160E088D3D701C7
:100540001296ED91FC911397E00FF11F808161E00D
:10055000A4D3D3942D2D30E0F70186818F7090E0E5
:100560002817390714F400E0D6CFDF91CF911F91FF
:100570000F91FF90EF90DF900895EF920F93FC01A1
:100580005383428335832483EE0CEE0CEE0CEE0C89
:100590000F700E290683718360831286138614867A
:1005A000158682E390E09787868788EE93E0918BAB
:1005B000808B138A128A118610861782CF018CDFF6
:1005C0000F91EF900895CF92DF92EF92FF920F93E9
:1005D0001F93CF93DF93EC01CC24AFC0EC81FD815E
:1005E000EE0DFF1D808160E058D3DD2494C022957C
:1005F0002F70822F90E09C01029FC001039F900DFD
:10060000129F900D1124E881F981EE0DFF1DE80F76
:10061000F91F99858081981709F040C01EDF2A854F
:100620003B854C855D85621B730B840B950B28897C
:10063000398940E050E0621773078407950760F03E
:10064000EA81FB81E00FF11F808164D3892B21F4C3
:10065000CE0163E070E02FDF00DF2A853B854C850B
:100660005D85621B730B840B950B2E853F8540E0E7
:1006700050E0621773078407950708F44BC0EA81BE
:10068000FB81ED0DF11D808145D3019709F042C03A
:10069000CE0162E070E00FDF19863CC0DEDE2A8505
:1006A0003B854C855D85621B730B840B950B2E85FA
:1006B0003F8540E050E0621773078407950750F1CB
:1006C000EA81FB81E00FF11F808124D3892B11F592
:1006D000EC81FD81EE0DFF1D808161E0DED28E8117
:1006E00082958F7090E09C01029FC001039F900D46
:1006F000129F900D1124E881F981EE0DFF1DE80F86
:10070000F91F1081AADE6A877B878C879D8711235A
:10071000F9F428C0D3940D2D10E02E81822F8F7014
:1007200090E0081719070CF462CFEC81FD81EE0D03
:10073000FF1D808161E0B1D2C394EC2CFF248E8137
:1007400082958F7090E0E816F9060CF447CF0AC046
:100750008985181739F01987CE0161E070E0ABDEAA
:10076000898501C080E0DF91CF911F910F91FF90AB
:10077000EF90DF90CF9008957093B6006093B5002E
:1007800008957093B8006093B7000895DF93CF93F6
:10079000CDB7DEB7A4970FB6F894DEBF0FBECDBFBE
:1007A0008091B3008823D1F0E091B700F091B800B8
:1007B0006091B400AE014B5F5F4F09959091B2001C
:1007C00099839091B3009A839091B4009B838C831A
:1007D000CE01019664E27FD01092B300A4960FB6CA
:1007E000F894DEBF0FBECDBFCF91DF910895CF92B9
:1007F000DF92EF92FF920F931F93DF93CF93CDB7CA
:10080000DEB7FC01CDB6DEB6FDB6EEB68091B50022
:100810009091B600892BD1F164307105BCF1308123
:10082000618122818DB79EB7821B91090FB6F89422
:100830009EBF0FBE8DBF0DB71EB70F5F1F4FDF01ED
:1008400090E008C0F801E90FF11D13968C91139701
:1008500080839F5F11969217A8F36F3F41F0E0915C
:10086000B500F091B600832FA801099502C030931E
:10087000B300F80180818093B4002F2D3E2DC90173
:100880000FB6F8949EBF0FBE8DBF08C08F2D9E2D52
:100890009C010FB6F8943EBF0FBE2DBF0FB6F89463
:1008A000DEBE0FBECDBECF91DF911F910F91FF90A5
:1008B000EF90DF90CF900895862F6093B20008D01C
:1008C00087EF93E025D086EC93E027D09AD1089566
:1008D000880F82B90895482F653210F081E008959D
:1008E0008091B900843011F082E008956093C600D1
:1008F000A091C300B091C400842F9C01F90102C0F3
:1009000081918D938E2F841B8617D0F380E00895FC
:100910009093BE008093BD0008959093BC00809397
:10092000BB0008951F920F920FB60F9211242F93C0
:100930003F934F935F936F937F938F939F93AF9367
:10094000BF93EF93FF9381B190E0887F90708036E2
:10095000910509F4D6C081369105CCF58832910510
:1009600009F47AC089329105B4F48031910509F413
:100970006FC0813191053CF4009709F428C10897B4
:1009800009F02EC165C08831910509F465C08097D2
:1009900009F026C17BC08034910509F49AC08134E6
:1009A000910544F48033910509F479C0C89709F0A2
:1009B00017C17EC08035910509F47EC08835910548
:1009C00009F48CC08834910509F00AC194C08839B3
:1009D000910509F4F6C089399105ECF48837910541
:1009E00009F48FC0893791054CF48836910509F4D4
:1009F00088C08037910509F0F3C083C0883891051D
:100A000009F4DFC08039910509F481C0803891056F
:100A100009F0E6C07CC0803B910509F4A5C0813B8C
:100A200091054CF4803A910509F484C0883A910507
:100A300009F0D6C099C0803C910509F4C5C0883C36
:100A4000910509F4C1C0883B910509F0C9C0A4C053
:100A50008091BA0083B9B3C09091C1008091C20067
:100A6000981770F49091C100E091BF00F091C00020
:100A7000E90FF11D808183B99F5F9093C1009FC0F2
:100A800085ED86BF06B604FCFDCFA8C080E280934A
:100A9000CA0085ED86BF06B604FCFDCF9FC080E38B
:100AA0008093CA0085ED86BF06B604FCFDCF96C0D4
:100AB00088E38093CA0088C08091C10093B1E0911F
:100AC000BF00F091C000E80FF11D90838F5F80930D
:100AD000C1009091C1008091C2006FC08091C1009F
:100AE00093B1E091BF00F091C000E80FF11D908339
:100AF0008F5F8093C10085ED86BF06B604FCFDCFF5
:100B00006DC083E08093B9001092C90058C08091F5
:100B1000C900843208F055C08091C90093B1E091BA
:100B2000C700F091C800E80FF11D90838F5F80939C
:100B3000C90045C08091C900843248F48091C90041
:100B4000E091C700F091C800E80FF11D108260919C
:100B5000C900E091BD00F091BE008091C700909166
:100B6000C80070E0099530C084E08093B90010920D
:100B7000C5001092C600E091BB00F091BC00099541
:100B80008091C600882341F481E08093C600E09103
:100B9000C300F091C40010829091C500E091C300A1
:100BA000F091C400E90FF11D808183B99F5F90939C
:100BB000C5009091C5008091C600981710F485EC8F
:100BC00001C085E886BF0CC085EC86BF07C01092C7
:100BD000CA0085ED86BF06B604FCFDCF1092B900B1
:100BE000FF91EF91BF91AF919F918F917F916F9105
:100BF0005F914F913F912F910F900FBE0F901F90DB
:100C000018951092B900AC9AAD9A0898099888E4A2
:100C100080B985E486BF84E290E061E070E0B9D0FD
:100C20008093BF009093C00084E290E061E070E0A8
:100C3000B0D08093C3009093C40084E290E061E060
:100C400070E0A7D08093C7009093C8000895482F04
:100C500050E0CA01885A9F4FFC0124914C5B5F4FC2
:100C6000FA0184918823C1F0E82FF0E0EE0FFF1F16
:100C7000EA5DFF4FA591B491662341F49FB7F894C4
:100C80008C91209582238C939FBF08959FB7F894F1
:100C90008C91822B8C939FBF0895482F50E0CA01FE
:100CA00084599F4FFC012491CA01885A9F4FFC012F
:100CB00034914C5B5F4FFA019491992351F12223B7
:100CC00081F0243039F0253049F0233051F48FB5CC
:100CD0008F7702C08FB58F7D8FBD03C085B58F7DA7
:100CE00085BDE92FF0E0EE0FFF1FE05DFF4FA591FE
:100CF000B491662341F49FB7F8948C913095832387
:100D00008C939FBF08959FB7F8948C91832B8C93FD
:100D10009FBF0895682F70E0CB0184599F4FFC015D
:100D20002491CB01885A9F4FFC0144916C5B7F4F0B
:100D3000FB019491992319F420E030E022C0222392
:100D400081F0243039F0253049F0233051F48FB54B
:100D50008F7702C08FB58F7D8FBD03C085B58F7D26
:100D600085BD892F90E0880F991F865C9F4FFC01FD
:100D7000A591B4918C9120E030E0842311F021E022
:100D800030E0C9010895EE0FFF1F0590F491E02DAA
:100D900009940F931F93CF93DF93689F8001699FFE
:100DA000100D789F100D1124C8010DD0EC01009793
:100DB00021F060E070E0A8010BD1CE01DF91CF916E
:100DC0001F910F910895CF93DF93BC01823091055D
:100DD00010F462E070E0A091CD00B091CE00ED0182
:100DE000E0E0F0E040E050E021C088819981861782
:100DF000970769F48A819B81309719F093838283E6
:100E000004C09093CE008093CD00FE0134C06817DB
:100E1000790738F44115510519F08417950708F43E
:100E2000AC01FE018A819B819C01E9012097E9F6D2
:100E300041155105A9F1CA01861B970B049708F4C7
:100E4000BA01E0E0F0E02AC08D919C9111978417DF
:100E50009507F9F46417750781F412968D919C91AA
:100E60001397309719F09383828304C09093CE0038
:100E70008093CD00FD0132964FC0CA01861B970BAF
:100E8000FD01E80FF91F6193719302978D939C9375
:100E900043C0FD01828193819C01D9011097A1F685
:100EA0008091CB009091CC00892B41F480917A0005
:100EB00090917B009093CC008093CB0040917C007C
:100EC00050917D004115510541F44DB75EB78091B9
:100ED000780090917900481B590B2091CB003091FC
:100EE000CC0024173507B0F4CA01821B930B861778
:100EF000970780F0AB014E5F5F4F8417950750F066
:100F0000420F531F5093CC004093CB00F9016193E3
:100F1000719302C0E0E0F0E0CF01DF91CF9108953E
:100F2000CF93DF93009709F450C0EC0122971B8206
:100F30001A82A091CD00B091CE00109709F140E047
:100F400050E0AC17BD0708F1BB83AA83FE012191D5
:100F50003191E20FF31FAE17BF0779F48D919C9189
:100F60001197280F391F2E5F3F4F39832883129620
:100F70008D919C9113979B838A834115510571F440
:100F8000D093CE00C093CD0020C012968D919C913D
:100F90001397AD01009711F0DC01D3CFFA01D38391
:100FA000C28321913191E20FF31FCE17DF0769F45D
:100FB00088819981280F391F2E5F3F4FFA013183B5
:100FC00020838A819B8193838283DF91CF910895CF
:100FD000DC0101C06D9341505040E0F70895F89452
:020FE000FFCF41
:100FE2003132334134353642373839432A3023449B
:0E0FF200090A0B0C050607082000CF000000BE
:00000001FF
