:100000000C9463000C948B000C948B000C948B006C
:100010000C948B000C948B000C948B000C948B0034
:100020000C948B000C948B000C948B000C948B0024
:100030000C948B000C948B000C948B000C948B0014
:100040000C9402020C948B000C94BC020C948B0058
:100050000C948B000C948B000C948B000C948B00F4
:100060000C948B000C948B000000000024002700EF
:100070002A0000000000250028002B0000000000DE
:1000800023002600290004040404040404040202DA
:100090000202020203030303030301020408102007
:1000A0004080010204081020010204081020000012
:1000B0000007000201000003040600000000000029
:1000C0000000AE00FD0311241FBECFEFD8E0DEBF5D
:1000D000CDBF11E0A0E0B1E0E6ECFFE002C005908A
:1000E0000D92A432B107D9F711E0A4E2B1E001C04A
:1000F0001D92A23DB107E1F710E0C6ECD0E004C0CC
:100100002297FE010E94DD07C23CD107C9F70E9479
:10011000F7010C94E1070C940000DF93CF9300D01B
:1001200000D0CDB7DEB79A8389837C836B838981C6
:100130009A818130910559F48B819C812FEF8F3FFB
:10014000920729F484E291E06AE00E9437040F905C
:100150000F900F900F90CF91DF910895DF93CF9381
:10016000CDB7DEB781E090E06FEF7FEF0E948D00AA
:10017000CF91DF9108950F931F93DF93CF93CDB766
:10018000DEB7AA970FB6F894DEBF0FBECDBF1982B7
:1001900084E291E09E01235E3F4FB9010E94B505C4
:1001A00018A6882311F421E028A738A5332391F05D
:1001B0008FEB91E020E031E0B9010E94A10684E2DA
:1001C00091E00E94620464EF71E080E090E00E94A0
:1001D0004A02F3C01A8203C08A818F5F8A838A81B0
:1001E0008830D0F3CE014D9667E00E946F04982FBF
:1001F0008CA11FA2981711F081E08FA39FA19923D2
:1002000009F0DBC08D8D883239F068EE73E080E054
:1002100090E00E944A02D1C084E291E00E946A0507
:1002200084E291E09E01235E3F4FB9010E9449059F
:1002300084E291E064E441E00E94090568EE73E025
:1002400080E090E00E944A0284E291E00E946A0508
:10025000898384E291E09E01235E3F4FB9010E94B1
:10026000490584E291E06EEB40E00E9409051A82A4
:1002700011C08A81082F10E084E291E00E94B80446
:10028000282FCE014196FC01E00FF11F20838A81C7
:100290008F5F8A838A81893060F38FEB91E00E94BF
:1002A0008A068989882F90E09E878D878A89882F82
:1002B00090E0988B8F878F859889382F22278D859E
:1002C0009E85820F931F9C878B878B859C85807072
:1002D00090789A87898789859A85009739F08B85E8
:1002E0009C85909581959F4F9C878B872B853C851E
:1002F000C901880F991F820F931F880F991F9EA312
:100300008DA38B859C859AA789A729A53AA5332318
:100310002CF489A59AA503969AA789A789A59AA5D9
:1003200095958795959587952DA13EA1820F931F51
:1003300098878F838F81988524E630E0B9010E94E9
:100340009207CB019E838D838F81988524E630E0D0
:10035000B9010E9492079C838B8389859A850097B7
:1003600039F08FEB91E024E131E0B9010E9482067F
:100370008FEB91E02D813E81B9010E946B078FEBDD
:1003800091E026E131E0B9010E9482068B819C81D7
:100390008A3091053CF48FEB91E028E131E0B9011E
:1003A0000E9482068FEB91E02B813C81B9010E9473
:1003B0006B0784E291E00E946204AA960FB6F8945B
:1003C000DEBF0FBECDBFCF91DF911F910F9108957A
:1003D000DF93CF93CDB7DEB78FEB91E040E855E2E6
:1003E00060E070E00E94F902CF91DF910895DF9301
:1003F000CF93CDB7DEB70E9482020E94E8010E942F
:10040000BB00FDCF1F920F920FB60F9211242F93B6
:100410003F938F939F93AF93BF93809136019091B9
:100420003701A0913801B091390130913A0101961C
:10043000A11DB11D232F2D5F2D3720F02D570196C3
:10044000A11DB11D20933A0180933601909337018D
:10045000A0933801B093390180913201909133011A
:10046000A0913401B09135010196A11DB11D809379
:10047000320190933301A0933401B0933501BF91C1
:10048000AF919F918F913F912F910F900FBE0F9041
:100490001F901895EF92FF920F931F937B018C0191
:1004A0008FB7F8944091360150913701609138012F
:1004B000709139018FBF2FB7F894809136019091D8
:1004C0003701A0913801B09139012FBF841B950BE2
:1004D000A60BB70BE816F9060A071B0760F71F9172
:1004E0000F91FF90EF900895019759F0FC01EE0FE6
:1004F000FF1FEE0FFF1F32978FB7F8943197F1F778
:100500008FBF0895789484B5826084BD84B581607E
:1005100084BD85B5826085BD85B5816085BDEEE60B
:10052000F0E0808181608083E1E8F0E0808182609A
:100530008083808181608083E0E8F0E08081816059
:100540008083E1EBF0E0808184608083E0EBF0E089
:10055000808181608083EAE7F0E08081846080832D
:1005600080818260808380818160808380818068D7
:1005700080831092C10008951F920F920FB60F92C0
:1005800011242F933F934F935F936F937F938F9398
:100590009F93AF93BF93EF93FF934091C600E09179
:1005A000BB01F091BC01CF01019660E870E00E94B0
:1005B00092079C018091BD019091BE0128173907D7
:1005C00039F0E55CFE4F40833093BC012093BB01C2
:1005D000FF91EF91BF91AF919F918F917F916F911B
:1005E0005F914F913F912F910F900FBE0F901F90F1
:1005F00018955F926F927F928F929F92AF92BF9267
:10060000CF92DF92EF92FF920F931F93CF93DF93DE
:10061000EC015A016B0181E4A81682E4B8068FE070
:10062000C80680E0D80608F077C060E874E88EE17C
:1006300090E0A60195010E94A50739014A0108949E
:10064000610871088108910896948794779467945B
:10065000A40193012F5F3F4F4F4F5F4F74E0220F74
:10066000331F441F551F7A95D1F760E074E284EF81
:1006700090E00E94A507CA01B9012FEF30E040E0E9
:1006800050E00E947307A60195010E94A5078FEF15
:1006900090E0821B930B181619061CF4522E5094EE
:1006A00002C0522E539460E079E08DE390E0A60101
:1006B00095010E94A507215030404040504056957A
:1006C0004795379527952F5F3F4F4F4F5F4F93E0EB
:1006D000220F331F441F551F9A95D1F760E074E233
:1006E00084EF90E00E94A507CA01B9012FEF30E026
:1006F00040E050E00E947307A60195010E94A50703
:100700008FEF90E0821B930B1816190614F42095B6
:1007100001C02F5F2515F0F4E885F98581E090E0B0
:100720000A8802C0880F991F0A94E2F7808360E06C
:1007300079E08DE390E0A60195010E94A507215084
:100740003040404050405695479537952795822F29
:10075000232F05C0E885F9851082862D272DEC8191
:10076000FD812083EE81FF818083EA85FB852081E6
:1007700041E050E0CA010E8402C0880F991F0A941C
:10078000E2F7282B2083EA85FB852081CA010F84AC
:1007900002C0880F991F0A94E2F7282B2083EA856C
:1007A000FB858081088802C0440F551F0A94E2F738
:1007B000842B8083DF91CF911F910F91FF90EF9059
:1007C000DF90CF90BF90AF909F908F907F906F9071
:1007D0005F900895FC01A085B18521898C9190E0FE
:1007E000022E02C0959587950A94E2F780FFF6CF16
:1007F0000484F585E02D608308958EE191E0909367
:10080000C0018093BF018BE391E09093C20180937C
:10081000C10185EC90E09093C4018093C30184EC06
:1008200090E09093C6018093C50180EC90E0909396
:10083000C8018093C70181EC90E09093CA01809336
:10084000C90186EC90E09093CC018093CB0184E0C9
:100850008093CD0183E08093CE0187E08093CF0128
:1008600085E08093D00181E08093D1010895DC017F
:10087000862F90E0FC01E656FF4FE491EC938A57F7
:100880009F4FFC016491E62FF0E0EE0FFF1FE4584C
:10089000FF4F8591949112969C938E9311971B967E
:1008A0001C921B971D961C921D971C961C921C97C0
:1008B000FD0187E090E012863197009711F00197D3
:1008C000FACF0895FC0113861586148687E090E020
:1008D00012863197009711F00197FACF0895FC0125
:1008E00030E04CE80DC0208198E0822F83273695B8
:1008F00080FD3427915011F02695F7CF3196615045
:10090000662389F7832F0895DF92EF92FF920F936A
:100910001F93FC01E08001811281F894F80181812C
:100920008E2981838281DE2CD0948D21828383E085
:1009300090E00E947402F80181818D21818389E019
:1009400090E00E947402F8010081789485E390E0C1
:100950000E94740280E010E0FF240E211F21012B71
:1009600009F081E01F910F91FF90EF90DF900895C3
:10097000EF92FF920F931F93CF93DF937C0101E0DF
:1009800010E0C0E0D0E0C7010E9484048111102B68
:10099000000F2196C830D105B1F7812FDF91CF919B
:1009A0001F910F91FF90EF9008951F93CF93DF93C6
:1009B000FC011081C181D281912F909560FF12C0FE
:1009C000F8948A8189238A838981812B89838AE0AB
:1009D00090E00E9474028A81812B8A83789487E355
:1009E00090E011C0F8948A8189238A838981812BC0
:1009F000898381E490E00E9474028A81812B8A833A
:100A0000789485E090E00E947402DF91CF911F916D
:100A10000895CF92DF92EF92FF920F931F93CF939F
:100A2000DF938C01E42EFF24F394C0E0D0E0C62EC7
:100A3000DD2460E08F2D90E08C219D21892B09F031
:100A400061E0C8010E94D504FF0C2196C830D10591
:100A500081F7EE20A9F4F894D8011196ED91FC915C
:100A6000129791818C918095982391831196ED91A5
:100A7000FC91129792818C9180959823928378941F
:100A8000DF91CF911F910F91FF90EF90DF90CF906A
:100A90000895EF92FF920F931F93CF93DF938C01F2
:100AA0007B0165E540E00E940905C0E0D0E0F70168
:100AB000EC0FFD1FC801608140E00E9409052196EE
:100AC000C830D105A1F7DF91CF911F910F91FF9011
:100AD000EF900895DF92EF92FF920F931F93CF93C1
:100AE000DF93FC010081C181D281F8948981D02EED
:100AF000D0948D21898378941DE7E02EFF24115036
:100B000059F182E090E00E947402888190E08E2189
:100B10009F21892BA1F3F8948A818D218A83898171
:100B2000802B8983789484EF91E00E947402F8947A
:100B300089818D21898380E590E00E9474028881FB
:100B400010E090E0E822F922EF2809F411E078940F
:100B500084EA91E00E947402812FDF91CF911F916E
:100B60000F91FF90EF90DF900895AF92BF92DF92C8
:100B7000EF92FF920F931F93CF93DF93EC015B01F2
:100B80008D85882309F061C0CE010E946A05882303
:100B900029F41B861D861C8690E06BC0CE0160EF99
:100BA00040E00E94090501E0DD24EE24FF24F394D7
:100BB000CE010E948404182FCE010E9484041130BB
:100BC00019F48130E1F439C0181709F58B8508173D
:100BD00070F460E0FE01EE0DF11D838190E02F2D99
:100BE00030E082239323181619064CF003C060E00E
:100BF000081729F0093008F04CC00C874AC0FE01E4
:100C0000EE0DF11D83818F29838361E009C0612F7F
:100C1000FE01EE0DF11D9F2D909583818923838325
:100C2000CE010E94D5040F5FFF0C19F4E394FF245A
:100C3000F39487E08E1508F0BBCF013430F0DB86EB
:100C4000DD2011F581E08D871FC01B861D861C8667
:100C500090E0DE0120E030E0F501E20FF31F139693
:100C60008C91139780832F5F3F4F11962830310569
:100C700099F7892FDF91CF911F910F91FF90EF90FE
:100C8000DF90BF90AF9008958B818823F1F291E0BF
:100C9000E0CFD02EBDCF0F931F93CF93DF938C0166
:100CA000EB0109C02196D801ED91FC910190F081F2
:100CB000E02DC801099568816623A1F7DF91CF91E6
:100CC0001F910F910895EF92FF920F931F93CF936F
:100CD000DF938C017B01EA010CC0D7016D917D018E
:100CE000D801ED91FC910190F081E02DC8010995AA
:100CF0002197209791F7DF91CF911F910F91FF904E
:100D0000EF900895DC01ED91FC910280F381E02DDC
:100D1000099508950F931F938C01DC01ED91FC91CF
:100D20000190F081E02D6DE00995D801ED91FC91E5
:100D30000190F081E02DC8016AE009951F910F91A3
:100D400008950F931F938C010E948206C8010E9490
:100D50008A061F910F9108952F923F924F925F92B2
:100D60006F927F928F929F92AF92BF92CF92DF92BB
:100D7000EF92FF920F931F93DF93CF93CDB7DEB720
:100D8000A0970FB6F894DEBF0FBECDBF1C016A015D
:100D90007B01411551056105710549F4DC01ED91B7
:100DA000FC910190F081E02D60E3099554C0882406
:100DB00099245401422E55246624772401E010E042
:100DC0000C0F1D1F080D191DC701B601A3019201CB
:100DD0000E94A507F80160830894811C911CA11C46
:100DE000B11CC701B601A30192010E94A507C90168
:100DF000DA016C017D01C114D104E104F104F1F6C2
:100E000081E0E82EF12CEC0EFD1EE80CF91C3E01F1
:100E10000894611C711CD501C4010197A109B10995
:100E20006C01C818D90814C0F601EE0DFF1D6081D1
:100E30006A3010F4605D01C0695CD101ED91FC91F4
:100E40000190F081E02DC10109950894E108F108B5
:100E50006E147F0449F7A0960FB6F894DEBF0FBE5C
:100E6000CDBFCF91DF911F910F91FF90EF90DF9059
:100E7000CF90BF90AF909F908F907F906F905F903A
:100E80004F903F902F900895EF92FF920F931F93F2
:100E9000CF93DF93EC017A018B0177FF0FC0E881DC
:100EA000F9810190F081E02D6DE209951095009592
:100EB000F094E094E11CF11C011D111DCE01B8015C
:100EC000A7012AE00E94AC06DF91CF911F910F91FC
:100ED000FF90EF900895AB01662757FD6095762F40
:100EE0000E9444070895629FD001739FF001829F82
:100EF000E00DF11D649FE00DF11D929FF00D839FA9
:100F0000F00D749FF00D659FF00D9927729FB00D45
:100F1000E11DF91F639FB00DE11DF91FBD01CF0158
:100F20001124089597FB092E07260AD077FD04D0D7
:100F30002ED006D000201AF4709561957F4F089549
:100F4000F6F7909581959F4F0895A1E21A2EAA1B5E
:100F5000BB1BFD010DC0AA1FBB1FEE1FFF1FA21769
:100F6000B307E407F50720F0A21BB30BE40BF50B66
:100F7000661F771F881F991F1A9469F760957095EF
:100F8000809590959B01AC01BD01CF010895AA1BEE
:100F9000BB1B51E107C0AA1FBB1FA617B70710F064
:100FA000A61BB70B881F991F5A95A9F78095909596
:100FB000BC01CD010895EE0FFF1F0590F491E02DC7
:060FC0000994F894FFCF34
:100FC6004E6F206D6F726520616464726573736520
:100FD600732E0A002D002E00300000000000EA03E8
:040FE6004B0663064D
:00000001FF
